{
  "contractName": "BridgeState",
  "abi": [
    {
      "inputs": [],
      "stateMutability": "nonpayable",
      "type": "constructor"
    },
    {
      "anonymous": false,
      "inputs": [
        {
          "indexed": false,
          "internalType": "address",
          "name": "tokenAddress",
          "type": "address"
        }
      ],
      "name": "LogAddToken",
      "type": "event"
    },
    {
      "anonymous": false,
      "inputs": [
        {
          "indexed": false,
          "internalType": "address",
          "name": "tokenAddress",
          "type": "address"
        }
      ],
      "name": "LogRemoveToken",
      "type": "event"
    },
    {
      "anonymous": false,
      "inputs": [
        {
          "indexed": true,
          "internalType": "address",
          "name": "previousOwner",
          "type": "address"
        },
        {
          "indexed": true,
          "internalType": "address",
          "name": "newOwner",
          "type": "address"
        }
      ],
      "name": "OwnershipTransferred",
      "type": "event"
    },
    {
      "inputs": [
        {
          "internalType": "address",
          "name": "",
          "type": "address"
        }
      ],
      "name": "_soldierKeys",
      "outputs": [
        {
          "internalType": "bool",
          "name": "",
          "type": "bool"
        }
      ],
      "stateMutability": "view",
      "type": "function",
      "constant": true
    },
    {
      "inputs": [
        {
          "internalType": "address",
          "name": "",
          "type": "address"
        }
      ],
      "name": "_validTokens",
      "outputs": [
        {
          "internalType": "bool",
          "name": "",
          "type": "bool"
        }
      ],
      "stateMutability": "view",
      "type": "function",
      "constant": true
    },
    {
      "inputs": [],
      "name": "index",
      "outputs": [
        {
          "internalType": "uint32",
          "name": "",
          "type": "uint32"
        }
      ],
      "stateMutability": "view",
      "type": "function",
      "constant": true
    },
    {
      "inputs": [],
      "name": "owner",
      "outputs": [
        {
          "internalType": "address",
          "name": "",
          "type": "address"
        }
      ],
      "stateMutability": "view",
      "type": "function",
      "constant": true
    },
    {
      "inputs": [],
      "name": "renounceOwnership",
      "outputs": [],
      "stateMutability": "nonpayable",
      "type": "function"
    },
    {
      "inputs": [
        {
          "internalType": "address",
          "name": "newOwner",
          "type": "address"
        }
      ],
      "name": "transferOwnership",
      "outputs": [],
      "stateMutability": "nonpayable",
      "type": "function"
    },
    {
      "inputs": [
        {
          "internalType": "address",
          "name": "_address",
          "type": "address"
        }
      ],
      "name": "addToken",
      "outputs": [
        {
          "internalType": "bool",
          "name": "",
          "type": "bool"
        }
      ],
      "stateMutability": "nonpayable",
      "type": "function"
    },
    {
      "inputs": [
        {
          "internalType": "address",
          "name": "_address",
          "type": "address"
        }
      ],
      "name": "removeToken",
      "outputs": [
        {
          "internalType": "bool",
          "name": "",
          "type": "bool"
        }
      ],
      "stateMutability": "nonpayable",
      "type": "function"
    },
    {
      "inputs": [
        {
          "internalType": "address",
          "name": "soldierAdd",
          "type": "address"
        }
      ],
      "name": "addSoldier",
      "outputs": [
        {
          "internalType": "bool",
          "name": "",
          "type": "bool"
        }
      ],
      "stateMutability": "nonpayable",
      "type": "function"
    },
    {
      "inputs": [
        {
          "internalType": "address",
          "name": "soldierAdd",
          "type": "address"
        }
      ],
      "name": "removeSoldier",
      "outputs": [
        {
          "internalType": "bool",
          "name": "",
          "type": "bool"
        }
      ],
      "stateMutability": "nonpayable",
      "type": "function"
    },
    {
      "inputs": [],
      "name": "getNumOfSoldiers",
      "outputs": [
        {
          "internalType": "uint256",
          "name": "",
          "type": "uint256"
        }
      ],
      "stateMutability": "view",
      "type": "function",
      "constant": true
    },
    {
      "inputs": [
        {
          "internalType": "address",
          "name": "_msgSender",
          "type": "address"
        }
      ],
      "name": "isSoldier",
      "outputs": [
        {
          "internalType": "bool",
          "name": "",
          "type": "bool"
        }
      ],
      "stateMutability": "view",
      "type": "function",
      "constant": true
    },
    {
      "inputs": [
        {
          "internalType": "address",
          "name": "_address",
          "type": "address"
        }
      ],
      "name": "isTokenValid",
      "outputs": [
        {
          "internalType": "bool",
          "name": "",
          "type": "bool"
        }
      ],
      "stateMutability": "view",
      "type": "function",
      "constant": true
    }
  ],
  "bytecode": "0x608060405234801561001057600080fd5b5061003361002564010000000061004b810204565b64010000000061004f810204565b6000805460a060020a63ffffffff021916905561009f565b3390565b60008054600160a060020a03838116600160a060020a0319831681178455604051919092169283917f8be0079c531659141344cd1fd0a4f28419497f9722a3daafe3b4186f6b6457e09190a35050565b610727806100ae6000396000f3fe608060405234801561001057600080fd5b50600436106100ec576000357c010000000000000000000000000000000000000000000000000000000090048063715018a6116100a9578063c15e26ba11610083578063c15e26ba1461022f578063cc1bb6181461025b578063d48bfca71461026e578063f2fde38b1461028157600080fd5b8063715018a6146101e75780638da5cb5b146101f1578063b0ae13871461020c57600080fd5b80630c9c8d9e146100f157806311662a38146101325780631d367654146101615780632986c0e5146101745780632f43ce58146101b15780635fa7b584146101d4575b600080fd5b61011d6100ff366004610619565b600160a060020a031660009081526001602052604090205460ff1690565b60405190151581526020015b60405180910390f35b60005474010000000000000000000000000000000000000000900463ffffffff16604051908152602001610129565b61011d61016f366004610619565b610294565b60005461019c9074010000000000000000000000000000000000000000900463ffffffff1681565b60405163ffffffff9091168152602001610129565b61011d6101bf366004610619565b60026020526000908152604090205460ff1681565b61011d6101e2366004610619565b61033f565b6101ef6103ca565b005b600054604051600160a060020a039091168152602001610129565b61011d61021a366004610619565b60016020526000908152604090205460ff1681565b61011d61023d366004610619565b600160a060020a031660009081526002602052604090205460ff1690565b61011d610269366004610619565b610403565b61011d61027c366004610619565b610482565b6101ef61028f366004610619565b610504565b60008054600160a060020a031633146102cb5760405160e560020a62461bcd0281526004016102c290610649565b60405180910390fd5b600160a060020a0382166000908152600160205260408120805460ff19169055805474010000000000000000000000000000000000000000900463ffffffff16906014610317836106ad565b91906101000a81548163ffffffff021916908363ffffffff1602179055505060019050919050565b60008054600160a060020a0316331461036d5760405160e560020a62461bcd0281526004016102c290610649565b600160a060020a038216600081815260026020908152604091829020805460ff1916905590519182527fc459bfeac99abefb39c79f8c9bde7a7e1823b71c3b3f6a55a8544727d2c7ac7c91015b60405180910390a1506001919050565b600054600160a060020a031633146103f75760405160e560020a62461bcd0281526004016102c290610649565b61040160006105bc565b565b60008054600160a060020a031633146104315760405160e560020a62461bcd0281526004016102c290610649565b600160a060020a03821660009081526001602081905260408220805460ff19169091179055805474010000000000000000000000000000000000000000900463ffffffff16906014610317836106cd565b60008054600160a060020a031633146104b05760405160e560020a62461bcd0281526004016102c290610649565b600160a060020a038216600081815260026020908152604091829020805460ff1916600117905590519182527fe7d16086f8855445a14d300d6753b58fdf180a826e7b3642cc20bd34ce94ba7391016103ba565b600054600160a060020a031633146105315760405160e560020a62461bcd0281526004016102c290610649565b600160a060020a0381166105b05760405160e560020a62461bcd02815260206004820152602660248201527f4f776e61626c653a206e6577206f776e657220697320746865207a65726f206160448201527f646472657373000000000000000000000000000000000000000000000000000060648201526084016102c2565b6105b9816105bc565b50565b60008054600160a060020a0383811673ffffffffffffffffffffffffffffffffffffffff19831681178455604051919092169283917f8be0079c531659141344cd1fd0a4f28419497f9722a3daafe3b4186f6b6457e09190a35050565b60006020828403121561062b57600080fd5b8135600160a060020a038116811461064257600080fd5b9392505050565b6020808252818101527f4f776e61626c653a2063616c6c6572206973206e6f7420746865206f776e6572604082015260600190565b7f4e487b7100000000000000000000000000000000000000000000000000000000600052601160045260246000fd5b600063ffffffff8216806106c3576106c361067e565b6000190192915050565b600063ffffffff808316818114156106e7576106e761067e565b600101939250505056fea264697066735822122046a82ade9754e3692b6a5f396294fb93571c3d976ce2503512bf81eec67bf56e64736f6c634300080a0033",
  "immutableReferences": {},
  "source": "// SPDX-License-Identifier: MIT\npragma solidity ^0.8.0;\nimport \"@openzeppelin/contracts/access/Ownable.sol\";\n\ncontract BridgeState is Ownable {\n    uint32 public index;\n\n    event LogAddToken(address tokenAddress);\n    event LogRemoveToken(address tokenAddress);\n\n    mapping(address => bool) public _soldierKeys;\n    // List of valid tokens we accept\n    mapping(address => bool) public _validTokens;\n\n    constructor() {\n        index = 0;\n    }\n\n    function addToken(address _address) public onlyOwner returns (bool) {\n        _validTokens[_address] = true;\n        emit LogAddToken(_address);\n        return true;\n    }\n\n    function removeToken(address _address) public onlyOwner returns (bool) {\n        delete _validTokens[_address];\n        emit LogRemoveToken(_address);\n        return true;\n    }\n\n    function addSoldier(address soldierAdd) public onlyOwner returns (bool) {\n        _soldierKeys[soldierAdd] = true;\n        index++;\n        return true;\n    }\n\n    function removeSoldier(address soldierAdd) public onlyOwner returns (bool) {\n        delete _soldierKeys[soldierAdd];\n        index--;\n        return true;\n    }\n\n    function getNumOfSoldiers() public view returns (uint256) {\n        return index;\n    }\n\n    function isSoldier(address _msgSender) public view returns (bool) {\n        return (_soldierKeys[_msgSender]);\n    }\n\n    function isTokenValid(address _address) public view returns (bool) {\n        return _validTokens[_address];\n    }\n}\n",
  "sourcePath": "/home/cicd/contract/zerobridge-smart-contracts/contracts/BridgeState.sol",
  "compiler": {
    "name": "solc",
    "version": "0.8.10+commit.fc410830.Emscripten.clang"
  },
  "schemaVersion": "3.4.4",
  "updatedAt": "2022-01-21T07:24:20.985Z",
  "networkType": "ethereum",
  "devdoc": {
    "kind": "dev",
    "methods": {
      "owner()": {
        "details": "Returns the address of the current owner."
      },
      "renounceOwnership()": {
        "details": "Leaves the contract without owner. It will not be possible to call `onlyOwner` functions anymore. Can only be called by the current owner. NOTE: Renouncing ownership will leave the contract without an owner, thereby removing any functionality that is only available to the owner."
      },
      "transferOwnership(address)": {
        "details": "Transfers ownership of the contract to a new account (`newOwner`). Can only be called by the current owner."
      }
    },
    "version": 1
  },
  "userdoc": {
    "kind": "user",
    "methods": {},
    "version": 1
  }
}