{
  "contractName": "Bridge",
  "abi": [
    {
      "inputs": [
        {
          "internalType": "uint32",
          "name": "chainId",
          "type": "uint32"
        },
        {
          "internalType": "address",
          "name": "_stateAddress",
          "type": "address"
        }
      ],
      "stateMutability": "nonpayable",
      "type": "constructor"
    },
    {
      "anonymous": false,
      "inputs": [
        {
          "indexed": false,
          "internalType": "address",
          "name": "toAddr",
          "type": "address"
        },
        {
          "indexed": false,
          "internalType": "uint32",
          "name": "rootChainId",
          "type": "uint32"
        },
        {
          "indexed": false,
          "internalType": "uint32",
          "name": "destinationChainId",
          "type": "uint32"
        },
        {
          "indexed": false,
          "internalType": "address",
          "name": "tokenAddr",
          "type": "address"
        },
        {
          "indexed": false,
          "internalType": "string",
          "name": "rootTxnId",
          "type": "string"
        },
        {
          "indexed": false,
          "internalType": "uint256",
          "name": "amount",
          "type": "uint256"
        },
        {
          "indexed": false,
          "internalType": "uint256",
          "name": "timestamp",
          "type": "uint256"
        }
      ],
      "name": "BridgeSuccess",
      "type": "event"
    },
    {
      "anonymous": false,
      "inputs": [
        {
          "indexed": false,
          "internalType": "address",
          "name": "feeTokenAddr",
          "type": "address"
        },
        {
          "indexed": false,
          "internalType": "uint256",
          "name": "feeAmount",
          "type": "uint256"
        },
        {
          "indexed": false,
          "internalType": "address",
          "name": "rootTokenAddr",
          "type": "address"
        },
        {
          "indexed": false,
          "internalType": "uint256",
          "name": "rootAmount",
          "type": "uint256"
        },
        {
          "indexed": false,
          "internalType": "string",
          "name": "destinationTokenAddr",
          "type": "string"
        },
        {
          "indexed": false,
          "internalType": "uint256",
          "name": "destinationAmount",
          "type": "uint256"
        },
        {
          "indexed": false,
          "internalType": "string",
          "name": "destinationAddr",
          "type": "string"
        },
        {
          "indexed": false,
          "internalType": "uint32",
          "name": "destinationChainId",
          "type": "uint32"
        },
        {
          "indexed": false,
          "internalType": "address",
          "name": "fromAddr",
          "type": "address"
        },
        {
          "indexed": false,
          "internalType": "uint32",
          "name": "rootChainId",
          "type": "uint32"
        },
        {
          "indexed": false,
          "internalType": "uint8",
          "name": "signatureThreshold",
          "type": "uint8"
        },
        {
          "indexed": false,
          "internalType": "uint256",
          "name": "timestamp",
          "type": "uint256"
        }
      ],
      "name": "Lock",
      "type": "event"
    },
    {
      "anonymous": false,
      "inputs": [
        {
          "indexed": false,
          "internalType": "address",
          "name": "account",
          "type": "address"
        }
      ],
      "name": "Paused",
      "type": "event"
    },
    {
      "anonymous": false,
      "inputs": [
        {
          "indexed": false,
          "internalType": "address",
          "name": "account",
          "type": "address"
        }
      ],
      "name": "Unpaused",
      "type": "event"
    },
    {
      "inputs": [],
      "name": "paused",
      "outputs": [
        {
          "internalType": "bool",
          "name": "",
          "type": "bool"
        }
      ],
      "stateMutability": "view",
      "type": "function",
      "constant": true
    },
    {
      "inputs": [],
      "name": "stateContract",
      "outputs": [
        {
          "internalType": "address",
          "name": "",
          "type": "address"
        }
      ],
      "stateMutability": "view",
      "type": "function",
      "constant": true
    },
    {
      "inputs": [],
      "name": "thisChainId",
      "outputs": [
        {
          "internalType": "uint32",
          "name": "",
          "type": "uint32"
        }
      ],
      "stateMutability": "view",
      "type": "function",
      "constant": true
    },
    {
      "inputs": [
        {
          "internalType": "uint32",
          "name": "",
          "type": "uint32"
        },
        {
          "internalType": "string",
          "name": "",
          "type": "string"
        }
      ],
      "name": "transactions",
      "outputs": [
        {
          "internalType": "bool",
          "name": "processed",
          "type": "bool"
        }
      ],
      "stateMutability": "view",
      "type": "function",
      "constant": true
    },
    {
      "inputs": [
        {
          "internalType": "address",
          "name": "tokenAddr",
          "type": "address"
        },
        {
          "internalType": "address",
          "name": "toAddr",
          "type": "address"
        },
        {
          "internalType": "uint32",
          "name": "rootChainId",
          "type": "uint32"
        },
        {
          "internalType": "uint32",
          "name": "destinationChainId",
          "type": "uint32"
        },
        {
          "internalType": "string",
          "name": "rootTxnId",
          "type": "string"
        },
        {
          "internalType": "uint256",
          "name": "amount",
          "type": "uint256"
        },
        {
          "internalType": "bytes[]",
          "name": "signatures",
          "type": "bytes[]"
        }
      ],
      "name": "releaseTokens",
      "outputs": [
        {
          "internalType": "bool",
          "name": "",
          "type": "bool"
        }
      ],
      "stateMutability": "nonpayable",
      "type": "function"
    },
    {
      "inputs": [
        {
          "internalType": "address",
          "name": "feeTokenAddr",
          "type": "address"
        },
        {
          "internalType": "uint256",
          "name": "feeAmount",
          "type": "uint256"
        },
        {
          "internalType": "address",
          "name": "rootTokenAddr",
          "type": "address"
        },
        {
          "internalType": "uint256",
          "name": "rootAmount",
          "type": "uint256"
        },
        {
          "internalType": "string",
          "name": "destinationTokenAddr",
          "type": "string"
        },
        {
          "internalType": "uint256",
          "name": "destinationAmount",
          "type": "uint256"
        },
        {
          "internalType": "string",
          "name": "destinationAddr",
          "type": "string"
        },
        {
          "internalType": "uint32",
          "name": "destinationChainId",
          "type": "uint32"
        }
      ],
      "name": "lockTokens",
      "outputs": [
        {
          "internalType": "bool",
          "name": "",
          "type": "bool"
        }
      ],
      "stateMutability": "payable",
      "type": "function",
      "payable": true
    },
    {
      "inputs": [
        {
          "internalType": "address",
          "name": "feeTokenAddr",
          "type": "address"
        },
        {
          "internalType": "uint256",
          "name": "feeAmount",
          "type": "uint256"
        },
        {
          "internalType": "uint256",
          "name": "rootAmount",
          "type": "uint256"
        },
        {
          "internalType": "string",
          "name": "destinationTokenAddr",
          "type": "string"
        },
        {
          "internalType": "uint256",
          "name": "destinationAmount",
          "type": "uint256"
        },
        {
          "internalType": "string",
          "name": "destinationAddr",
          "type": "string"
        },
        {
          "internalType": "uint32",
          "name": "destinationChainId",
          "type": "uint32"
        }
      ],
      "name": "lockNativeCurrency",
      "outputs": [
        {
          "internalType": "bool",
          "name": "",
          "type": "bool"
        }
      ],
      "stateMutability": "payable",
      "type": "function",
      "payable": true
    },
    {
      "inputs": [],
      "name": "deposit",
      "outputs": [],
      "stateMutability": "payable",
      "type": "function",
      "payable": true
    },
    {
      "inputs": [
        {
          "internalType": "address",
          "name": "toAddr",
          "type": "address"
        },
        {
          "internalType": "uint32",
          "name": "rootChainId",
          "type": "uint32"
        },
        {
          "internalType": "uint32",
          "name": "destinationChainId",
          "type": "uint32"
        },
        {
          "internalType": "address",
          "name": "tokenAddr",
          "type": "address"
        },
        {
          "internalType": "string",
          "name": "rootTxnId",
          "type": "string"
        },
        {
          "internalType": "uint256",
          "name": "amount",
          "type": "uint256"
        }
      ],
      "name": "reconstructMessageHash",
      "outputs": [
        {
          "internalType": "bytes32",
          "name": "",
          "type": "bytes32"
        }
      ],
      "stateMutability": "pure",
      "type": "function",
      "constant": true
    }
  ],
  "bytecode": "0x608060405234801561001057600080fd5b50604051611b25380380611b2583398101604081905261002f9161006f565b6000805460ff1916905560028054600160a060020a0390921664010000000002600160c060020a031990921663ffffffff909316929092171790556100be565b6000806040838503121561008257600080fd5b825163ffffffff8116811461009657600080fd5b6020840151909250600160a060020a03811681146100b357600080fd5b809150509250929050565b611a58806100cd6000396000f3fe60806040526004361061008a5760003560e060020a9004806383f6f0f11161005d57806383f6f0f114610149578063cbe0cb0114610169578063d0e30db01461017c578063db5f30e11461017e578063e3d29c5d146101be57600080fd5b80630c6414aa1461008f57806344089b11146100c25780635c975abb146100e55780637a8a0067146100fd575b600080fd5b34801561009b57600080fd5b506100af6100aa36600461134e565b6101f0565b6040519081526020015b60405180910390f35b6100d56100d03660046113d6565b61027b565b60405190151581526020016100b9565b3480156100f157600080fd5b5060005460ff166100d5565b34801561010957600080fd5b506100d5610118366004611489565b6001602090815260009283526040909220815180830184018051928152908401929093019190912091525460ff1681565b34801561015557600080fd5b506100d56101643660046114d7565b610757565b6100d5610177366004611625565b610c2d565b005b34801561018a57600080fd5b506002546101a6906401000000009004600160a060020a031681565b604051600160a060020a0390911681526020016100b9565b3480156101ca57600080fd5b506002546101db9063ffffffff1681565b60405163ffffffff90911681526020016100b9565b6000610270878787878787604051602001610210969594939291906116f7565b60408051601f1981840301815282825280516020918201207f19457468657265756d205369676e6564204d6573736167653a0a33320000000084830152603c8085019190915282518085039091018152605c909301909152815191012090565b979650505050505050565b6000805460ff16156102ab5760405160e560020a62461bcd0281526004016102a290611766565b60405180910390fd5b60025460405160e160020a6360af135d028152600160a060020a0389811660048301526401000000009092049091169063c15e26ba90602401602060405180830381865afa158015610301573d6000803e3d6000fd5b505050506040513d601f19601f82011682018060405250810190610325919061179d565b6103445760405160e560020a62461bcd0281526004016102a2906117bf565b88600160a060020a031687600160a060020a0316141580156103665750600088115b801561037a5750600160a060020a03891615155b1561050b5760025460405160e160020a6360af135d028152600160a060020a038b811660048301526401000000009092049091169063c15e26ba90602401602060405180830381865afa1580156103d5573d6000803e3d6000fd5b505050506040513d601f19601f820116820180604052508101906103f9919061179d565b6104185760405160e560020a62461bcd0281526004016102a2906117bf565b60405160e060020a6323b872dd028152600160a060020a038a16906323b872dd9061044b90339030908d9060040161181c565b6020604051808303816000875af115801561046a573d6000803e3d6000fd5b505050506040513d601f19601f8201168201806040525081019061048e919061179d565b5060405160e060020a6323b872dd028152600160a060020a038816906323b872dd906104c290339030908b9060040161181c565b6020604051808303816000875af11580156104e1573d6000803e3d6000fd5b505050506040513d601f19601f82011682018060405250810190610505919061179d565b50610670565b88600160a060020a031687600160a060020a031614801561052c5750600088115b1561056d57600160a060020a0387166323b872dd333061054c8c8b61186f565b6040518463ffffffff1660e060020a0281526004016104c29392919061181c565b87341480156105835750600160a060020a038916155b801561058f5750600034115b156105c75760405160e060020a6323b872dd028152600160a060020a038816906323b872dd906104c290339030908b9060040161181c565b876105ff5760405160e060020a6323b872dd028152600160a060020a038816906323b872dd906104c290339030908b9060040161181c565b60405160e560020a62461bcd02815260206004820152603760248201527f50726f626c656d206f63637572726564207768696c6520747279696e6720746f60448201527f2073656c6563742061207472616e73666572206361736500000000000000000060648201526084016102a2565b7f9b59db97e77dc0b4bcd9539b2cff33bce32248b8de768b80d17ce1d181fe386c898989898989898933600260009054906101000a900463ffffffff16600260049054906101000a9004600160a060020a0316600160a060020a0316634f2c65a56040518163ffffffff1660e060020a028152600401602060405180830381865afa158015610703573d6000803e3d6000fd5b505050506040513d601f19601f820116820180604052508101906107279190611887565b426040516107409c9b9a999897969594939291906118d6565b60405180910390a150600198975050505050505050565b6000805460ff161561077e5760405160e560020a62461bcd0281526004016102a290611766565b60025460405160e160020a6360af135d028152600160a060020a038a811660048301526401000000009092049091169063c15e26ba90602401602060405180830381865afa1580156107d4573d6000803e3d6000fd5b505050506040513d601f19601f820116820180604052508101906107f8919061179d565b61086d5760405160e560020a62461bcd02815260206004820152602560248201527f547279696e6720746f2072656c65617365206e6f6e206578697374656e74207460448201527f6f6b656e2e00000000000000000000000000000000000000000000000000000060648201526084016102a2565b600260049054906101000a9004600160a060020a0316600160a060020a0316634f2c65a56040518163ffffffff1660e060020a028152600401602060405180830381865afa1580156108c3573d6000803e3d6000fd5b505050506040513d601f19601f820116820180604052508101906108e79190611887565b60ff16825110156109895760405160e560020a62461bcd02815260206004820152604160248201527f4c656e677468206f66207369676e61747572657320617272617920697320736d60448201527f616c6c6572207468616e20746865207265717569726564207468726573686f6c60648201527f6400000000000000000000000000000000000000000000000000000000000000608482015260a4016102a2565b63ffffffff861660009081526001602052604080822090516109ac908790611966565b908152604051908190036020019020805490915060ff16151560011415610a185760405160e560020a62461bcd02815260206004820181905260248201527f5472616e73616374696f6e20494420616c72656164792070726f63657373656460448201526064016102a2565b805460ff191660011781556000610a338989898d8a8a6101f0565b600254909150610a59906401000000009004600160a060020a0316828660018601610f1a565b60025463ffffffff888116911614610b025760405160e560020a62461bcd02815260206004820152604b60248201527f44657374696e6174696f6e20436861696e204964206e6f7420657175616c207460448201527f6f2074686520426c6f636b636861696e20686f7374696e67207468697320667560648201527f6e6374696f6e2063616c6c000000000000000000000000000000000000000000608482015260a4016102a2565b600160a060020a038a16610b4c57604051600160a060020a038a169086156108fc029087906000818181858888f19350505050158015610b46573d6000803e3d6000fd5b50610bda565b6040517fa9059cbb000000000000000000000000000000000000000000000000000000008152600160a060020a038a81166004830152602482018790528b169063a9059cbb906044016020604051808303816000875af1158015610bb4573d6000803e3d6000fd5b505050506040513d601f19601f82011682018060405250810190610bd8919061179d565b505b7f0780d22bf3acfc9b2c674136adf970cd35b7dfdd7d2cd823e8dc068f9d17b5ff8989898d8a8a42604051610c159796959493929190611982565b60405180910390a15060019998505050505050505050565b6000805460ff1615610c545760405160e560020a62461bcd0281526004016102a290611766565b6000610c60888861186f565b341415610c6c57610e87565b8634148015610c7b5750600088115b8015610c8f5750600160a060020a03891615155b15610dff5760025460405160e160020a6360af135d028152600160a060020a038b811660048301526401000000009092049091169063c15e26ba90602401602060405180830381865afa158015610cea573d6000803e3d6000fd5b505050506040513d601f19601f82011682018060405250810190610d0e919061179d565b610d835760405160e560020a62461bcd02815260206004820152602a60248201527f547279696e6720746f20706179206665652077697468206e6f6e20657869737460448201527f656e7420746f6b656e2e0000000000000000000000000000000000000000000060648201526084016102a2565b60405160e060020a6323b872dd028152600160a060020a038a16906323b872dd90610db690339030908d9060040161181c565b6020604051808303816000875af1158015610dd5573d6000803e3d6000fd5b505050506040513d601f19601f82011682018060405250810190610df9919061179d565b50610e87565b8634148015610e0c575087155b15610e1657610e87565b60405160e560020a62461bcd02815260206004820152602d60248201527f54686572652077617320612070726f626c656d20696e2074686520666565206960448201527f667320636f6e646974696f6e730000000000000000000000000000000000000060648201526084016102a2565b7f9b59db97e77dc0b4bcd9539b2cff33bce32248b8de768b80d17ce1d181fe386c8989838a8a8a8a8a33600260009054906101000a900463ffffffff16600260049054906101000a9004600160a060020a0316600160a060020a0316634f2c65a56040518163ffffffff1660e060020a028152600401602060405180830381865afa158015610703573d6000803e3d6000fd5b600084600160a060020a0316634f2c65a56040518163ffffffff1660e060020a028152600401602060405180830381865afa158015610f5d573d6000803e3d6000fd5b505050506040513d601f19601f82011682018060405250810190610f819190611887565b90508060ff1683511015610fda5760405160e560020a62461bcd02815260206004820152601560248201527f4e6f7420656e6f756768207369676e617475726573000000000000000000000060448201526064016102a2565b60005b8160ff1681101561118957600061100d86868481518110611000576110006119d8565b6020026020010151611191565b6040517f0c9c8d9e000000000000000000000000000000000000000000000000000000008152600160a060020a038083166004830152919250600091891690630c9c8d9e90602401602060405180830381865afa158015611072573d6000803e3d6000fd5b505050506040513d601f19601f82011682018060405250810190611096919061179d565b9050806110e85760405160e560020a62461bcd02815260206004820152601160248201527f496e76616c6964207369676e617475726500000000000000000000000000000060448201526064016102a2565b600160a060020a03821660009081526020869052604090205460ff16156111545760405160e560020a62461bcd02815260206004820152601460248201527f4475706c696361746564207369676e617475726500000000000000000000000060448201526064016102a2565b50600160a060020a03166000908152602084905260409020805460ff191660011790558061118181611a07565b915050610fdd565b505050505050565b6000806000806111a085611210565b6040805160008152602081018083528b905260ff8516918101919091526060810183905260808101829052929550909350915060019060a0016020604051602081039080840390855afa1580156111fb573d6000803e3d6000fd5b5050604051601f190151979650505050505050565b6000806000835160411461122357600080fd5b5050506020810151604082015160609092015160001a92909190565b8035600160a060020a038116811461125657600080fd5b919050565b803563ffffffff8116811461125657600080fd5b7f4e487b7100000000000000000000000000000000000000000000000000000000600052604160045260246000fd5b604051601f8201601f1916810167ffffffffffffffff811182821017156112c7576112c761126f565b604052919050565b600067ffffffffffffffff8311156112e9576112e961126f565b6112fc601f8401601f191660200161129e565b905082815283838301111561131057600080fd5b828260208301376000602084830101529392505050565b600082601f83011261133857600080fd5b611347838335602085016112cf565b9392505050565b60008060008060008060c0878903121561136757600080fd5b6113708761123f565b955061137e6020880161125b565b945061138c6040880161125b565b935061139a6060880161123f565b9250608087013567ffffffffffffffff8111156113b657600080fd5b6113c289828a01611327565b92505060a087013590509295509295509295565b600080600080600080600080610100898b0312156113f357600080fd5b6113fc8961123f565b97506020890135965061141160408a0161123f565b955060608901359450608089013567ffffffffffffffff8082111561143557600080fd5b6114418c838d01611327565b955060a08b0135945060c08b013591508082111561145e57600080fd5b5061146b8b828c01611327565b92505061147a60e08a0161125b565b90509295985092959890939650565b6000806040838503121561149c57600080fd5b6114a58361125b565b9150602083013567ffffffffffffffff8111156114c157600080fd5b6114cd85828601611327565b9150509250929050565b600080600080600080600060e0888a0312156114f257600080fd5b6114fb8861123f565b96506115096020890161123f565b95506115176040890161125b565b94506115256060890161125b565b935067ffffffffffffffff8060808a0135111561154157600080fd5b6115518a60808b01358b01611327565b935060a089013592508060c08a0135111561156b57600080fd5b60c089013589018a601f82011261158157600080fd5b81813511156115925761159261126f565b6115a16020808335020161129e565b81358082526020808301929181028401018d8111156115bf57600080fd5b602084015b818110156116105785813511156115da57600080fd5b8e603f8235870101126115ec57600080fd5b6116028f823587016020810135906040016112cf565b8452602093840193016115c4565b50508094505050505092959891949750929550565b600080600080600080600060e0888a03121561164057600080fd5b6116498861123f565b96506020880135955060408801359450606088013567ffffffffffffffff8082111561167457600080fd5b6116808b838c01611327565b955060808a0135945060a08a013591508082111561169d57600080fd5b506116aa8a828b01611327565b9250506116b960c0890161125b565b905092959891949750929550565b60005b838110156116e25781810151838201526020016116ca565b838111156116f1576000848401525b50505050565b6c01000000000000000000000000600160a060020a038881168202835260e060020a63ffffffff898116820260148601528816026018840152851602601c820152825160009061174e8160308501602088016116c7565b60309201918201929092526050019695505050505050565b60208082526010908201527f5061757361626c653a2070617573656400000000000000000000000000000000604082015260600190565b6000602082840312156117af57600080fd5b8151801515811461134757600080fd5b60208082526024908201527f547279696e6720746f20627269646765206e6f6e206578697374656e7420746f60408201527f6b656e2e00000000000000000000000000000000000000000000000000000000606082015260800190565b600160a060020a039384168152919092166020820152604081019190915260600190565b7f4e487b7100000000000000000000000000000000000000000000000000000000600052601160045260246000fd5b6000821982111561188257611882611840565b500190565b60006020828403121561189957600080fd5b815160ff8116811461134757600080fd5b600081518084526118c28160208601602086016116c7565b601f01601f19169290920160200192915050565b6000600160a060020a03808f1683528d6020840152808d1660408401528b6060840152610180608084015261190f61018084018c6118aa565b8a60a085015283810360c0850152611927818b6118aa565b63ffffffff998a1660e08601529790911661010084015250509290941661012083015260ff166101408201526101600191909152979650505050505050565b600082516119788184602087016116c7565b9190910192915050565b600160a060020a03888116825263ffffffff8881166020840152871660408301528516606082015260e0608082018190526000906119c2908301866118aa565b60a08301949094525060c0015295945050505050565b7f4e487b7100000000000000000000000000000000000000000000000000000000600052603260045260246000fd5b6000600019821415611a1b57611a1b611840565b506001019056fea26469706673582212206fecc80d92e3d6cd4f1e1d4d4a0c40e8fbe1e50d3db581b683e02cbf7bedb36064736f6c634300080a0033",
  "immutableReferences": {},
  "source": "// SPDX-License-Identifier: MIT\npragma solidity ^0.8.0;\n\nimport \"@openzeppelin/contracts/security/Pausable.sol\";\nimport \"@openzeppelin/contracts/token/ERC20/IERC20.sol\";\nimport \"./interfaces/IBridgeState.sol\";\nimport \"./SignatureValidator.sol\";\n\ncontract Bridge is Pausable, SignatureValidator {\n    // Mapping of  processed root chain transactions by root chain ID and txn hash. We follow official EVM Chain Id Standards.\n    // e.g:\n    // 1 is Ethereum Mainnet\n    // 4 is Rinkeby\n    mapping(uint32 => mapping(string => Transaction)) public transactions;\n\n    // This variable ensures the bridge contract can check its own ID is equal to destinationChainId inside release tokens logic.\n    uint32 public thisChainId; // Ethereum Mainnet Chain is Id'd 1;\n\n    address public stateContract; // This address is basically of BridgeState which contains all the verifying methods and governance methods of the bridge.\n\n    struct Transaction {\n        bool processed;\n        mapping(address => bool) signers;\n    }\n\n    constructor(uint32 chainId, address _stateAddress) {\n        thisChainId = chainId;\n        stateContract = _stateAddress;\n    }\n\n    // Events to monitor the bridge.\n    // This event is emitted when user wants to lock existing ERC20 token to a foreign chain.\n    // Tokens will be locked into the bridge smart contract.\n    event Lock(\n        address feeTokenAddr,\n        uint256 feeAmount,\n        address rootTokenAddr,\n        uint256 rootAmount,\n        string destinationTokenAddr,\n        uint256 destinationAmount,\n        string destinationAddr,\n        uint32 destinationChainId,\n        address fromAddr,\n        uint32 rootChainId,\n        uint8 signatureThreshold,\n        uint256 timestamp\n    );\n\n    // This event is emitted when a user successfully bridged tokens on this chain.\n    event BridgeSuccess(\n        address toAddr,\n        uint32 rootChainId,\n        uint32 destinationChainId,\n        address tokenAddr,\n        string rootTxnId,\n        uint256 amount,\n        uint256 timestamp\n    );\n\n    /**\n     * @dev This function is called to release tokens that were previously locked in this smart contract. This is the function called in the case of a bridge request with this chain as destination.\n     */\n    function releaseTokens(\n        address tokenAddr,\n        address toAddr,\n        uint32 rootChainId,\n        uint32 destinationChainId,\n        string memory rootTxnId,\n        uint256 amount,\n        bytes[] memory signatures\n    ) public whenNotPaused returns (bool) {\n        require(\n            IBridgeState(stateContract).isTokenValid(tokenAddr),\n            \"Trying to release non existent token.\"\n        );\n        // Require that you have enough signature to run the validation scheme.\n        require(\n            signatures.length >=\n                IBridgeState(stateContract).getSignaturesThreshold(),\n            \"Length of signatures array is smaller than the required threshold\"\n        );\n        // Check that this transaction has never been processed before.\n        Transaction storage transaction = transactions[rootChainId][rootTxnId];\n        require(\n            transaction.processed != true,\n            \"Transaction ID already processed\"\n        );\n        transaction.processed = true;\n\n        // Reconstruct the hash that the soldiers signed using the function parameters.\n        bytes32 reconstructedHash = reconstructMessageHash(\n            toAddr,\n            rootChainId,\n            destinationChainId,\n            tokenAddr,\n            rootTxnId,\n            amount\n        );\n        validateSignatures(\n            stateContract,\n            reconstructedHash,\n            signatures,\n            transaction.signers\n        );\n\n        // Emit success event.\n        require(\n            destinationChainId == thisChainId,\n            \"Destination Chain Id not equal to the Blockchain hosting this function call\"\n        );\n        if (tokenAddr == address(0)) {\n            payable(toAddr).transfer(amount);\n        } else {\n            // Transfer.\n            IERC20(tokenAddr).transfer(toAddr, amount);\n        }\n\n        emit BridgeSuccess(\n            toAddr,\n            rootChainId,\n            destinationChainId,\n            tokenAddr,\n            rootTxnId,\n            amount,\n            block.timestamp\n        );\n        return true;\n    }\n\n    /**\n     * @dev This function lock tokens inside the bridge smart contract. This is used for bridge/swap requests originated on this chain and with destination chain represented by destinationChainId.\n     */\n    function lockTokens(\n        address feeTokenAddr, // token to pay fee\n        uint256 feeAmount, // fee amount to be locked\n        address rootTokenAddr, // token at this network\n        uint256 rootAmount, // amount to be locked at this network\n        string memory destinationTokenAddr, // destination token address .. asa at algo, address at evm networks\n        uint256 destinationAmount, // amount at the destination network .. usually the same for stable coins\n        string memory destinationAddr, // the destination network address - memory = algo has different address than evm networks\n        uint32 destinationChainId // destination chain\n    ) public payable whenNotPaused returns (bool) {\n        require(\n            IBridgeState(stateContract).isTokenValid(rootTokenAddr),\n            \"Trying to bridge non existent token.\"\n        );\n\n        // Four cases:\n        // 1 - Token used to pay fee is different from token to bridge && fee > 0\n        if (\n            rootTokenAddr != feeTokenAddr &&\n            feeAmount > 0 &&\n            feeTokenAddr != address(0)\n        ) {\n            require(\n                IBridgeState(stateContract).isTokenValid(feeTokenAddr),\n                \"Trying to bridge non existent token.\"\n            );\n            IERC20(feeTokenAddr).transferFrom(\n                msg.sender,\n                address(this),\n                feeAmount\n            );\n            IERC20(rootTokenAddr).transferFrom(\n                msg.sender,\n                address(this),\n                rootAmount\n            );\n        } else if (rootTokenAddr == feeTokenAddr && feeAmount > 0) {\n            // 2 - Token used to pay fee is the same as token to bridge && fee > 0\n            IERC20(rootTokenAddr).transferFrom(\n                msg.sender,\n                address(this),\n                rootAmount + feeAmount\n            );\n        } else if (\n            msg.value == feeAmount &&\n            feeTokenAddr == address(0) &&\n            msg.value > 0\n        ) {\n            // 3 - Fee is paid in native currency (e.g. eth or matic)\n            IERC20(rootTokenAddr).transferFrom(\n                msg.sender,\n                address(this),\n                rootAmount\n            );\n        } else if (feeAmount == 0) {\n            // 4 - Fee is 0. Will be paid on destination network or denied by soldier network\n            IERC20(rootTokenAddr).transferFrom(\n                msg.sender,\n                address(this),\n                rootAmount\n            );\n        } else {\n            require(\n                false,\n                \"Problem occurred while trying to select a transfer case\"\n            );\n        }\n\n        // Lock event accounts with rootChainId = thisChainId.\n        emit Lock(\n            feeTokenAddr,\n            feeAmount,\n            rootTokenAddr,\n            rootAmount,\n            destinationTokenAddr,\n            destinationAmount,\n            destinationAddr,\n            destinationChainId,\n            msg.sender,\n            thisChainId,\n            IBridgeState(stateContract).getSignaturesThreshold(),\n            block.timestamp\n        );\n        return true;\n    }\n\n    /**\n     * @dev This function lock native eth (or native chain token) inside the bridge smart contract.\n     */\n    function lockNativeCurrency(\n        address feeTokenAddr, // token to pay fee\n        uint256 feeAmount, // fee amount to be locked\n        uint256 rootAmount, // amount to be locked at this network\n        string memory destinationTokenAddr, // destination token address .. asa at algo, address at evm networks\n        uint256 destinationAmount, // amount at the destination network .. usually the same for stable coins\n        string memory destinationAddr, // the destination network address - memory = algo has different address than evm networks\n        uint32 destinationChainId // destination chain\n    ) public payable whenNotPaused returns (bool) {\n        address fakeTokenAddrForNativeCurrency = address(0);\n        // Three cases:\n        if (msg.value == rootAmount + feeAmount) {\n            // 1 - User pays in native currency the fee.\n        } else if (msg.value == rootAmount && feeAmount > 0 && feeTokenAddr != address(0)) {\n            // 2 - Token used to pay fee is a different token\n            require(\n                IBridgeState(stateContract).isTokenValid(feeTokenAddr),\n                \"Trying to pay fee with non existent token.\"\n            );\n            IERC20(feeTokenAddr).transferFrom(\n                msg.sender,\n                address(this),\n                feeAmount\n            );\n        } else if (msg.value == rootAmount && feeAmount == 0) {\n            // 3 - Fee is 0. Will be paid on destination network or denied by soldier network\n        } else {\n            require(false, \"There was a problem in the fee ifs conditions\");\n        }\n\n        // Lock event accounts with rootChainId = thisChainId.\n        emit Lock(\n            feeTokenAddr,\n            feeAmount,\n            fakeTokenAddrForNativeCurrency,\n            rootAmount,\n            destinationTokenAddr,\n            destinationAmount,\n            destinationAddr,\n            destinationChainId,\n            msg.sender,\n            thisChainId,\n            IBridgeState(stateContract).getSignaturesThreshold(),\n            block.timestamp\n        );\n        return true;\n    }\n\n    /**\n     * @dev Used to deposit money directly inside the bridge.\n     */\n    function deposit() public payable {}\n\n    /**\n     * @dev used to reconstruct a hash digest starting from some parameters.\n     */\n    function reconstructMessageHash(\n        address toAddr,\n        uint32 rootChainId,\n        uint32 destinationChainId,\n        address tokenAddr,\n        string memory rootTxnId,\n        uint256 amount\n    ) public pure returns (bytes32) {\n        return\n            prefixed(\n                keccak256(\n                    abi.encodePacked(\n                        toAddr,\n                        rootChainId,\n                        destinationChainId,\n                        tokenAddr,\n                        rootTxnId,\n                        amount\n                    )\n                )\n            );\n    }\n}\n",
  "sourcePath": "/home/cicd/contract/zerobridge-smart-contracts-beta/contracts/Bridge.sol",
  "compiler": {
    "name": "solc",
    "version": "0.8.10+commit.fc410830.Emscripten.clang"
  },
  "schemaVersion": "3.4.4",
  "updatedAt": "2022-04-08T12:16:31.714Z",
  "networkType": "ethereum",
  "devdoc": {
    "kind": "dev",
    "methods": {
      "deposit()": {
        "details": "Used to deposit money directly inside the bridge."
      },
      "lockNativeCurrency(address,uint256,uint256,string,uint256,string,uint32)": {
        "details": "This function lock native eth (or native chain token) inside the bridge smart contract."
      },
      "lockTokens(address,uint256,address,uint256,string,uint256,string,uint32)": {
        "details": "This function lock tokens inside the bridge smart contract. This is used for bridge/swap requests originated on this chain and with destination chain represented by destinationChainId."
      },
      "paused()": {
        "details": "Returns true if the contract is paused, and false otherwise."
      },
      "reconstructMessageHash(address,uint32,uint32,address,string,uint256)": {
        "details": "used to reconstruct a hash digest starting from some parameters."
      },
      "releaseTokens(address,address,uint32,uint32,string,uint256,bytes[])": {
        "details": "This function is called to release tokens that were previously locked in this smart contract. This is the function called in the case of a bridge request with this chain as destination."
      }
    },
    "version": 1
  },
  "userdoc": {
    "kind": "user",
    "methods": {},
    "version": 1
  }
}