{
  "contractName": "BridgeState",
  "abi": [
    {
      "inputs": [
        {
          "internalType": "address[]",
          "name": "initialSoldiers",
          "type": "address[]"
        },
        {
          "internalType": "address[]",
          "name": "initialTokens",
          "type": "address[]"
        },
        {
          "internalType": "uint8",
          "name": "threshold",
          "type": "uint8"
        }
      ],
      "stateMutability": "nonpayable",
      "type": "constructor"
    },
    {
      "anonymous": false,
      "inputs": [
        {
          "indexed": false,
          "internalType": "address",
          "name": "soldierAddress",
          "type": "address"
        }
      ],
      "name": "LogSoldierAdded",
      "type": "event"
    },
    {
      "anonymous": false,
      "inputs": [
        {
          "indexed": false,
          "internalType": "address",
          "name": "soldierAddress",
          "type": "address"
        }
      ],
      "name": "LogSoldierRemoved",
      "type": "event"
    },
    {
      "anonymous": false,
      "inputs": [
        {
          "indexed": false,
          "internalType": "uint8",
          "name": "threshold",
          "type": "uint8"
        }
      ],
      "name": "LogThresholdChanged",
      "type": "event"
    },
    {
      "anonymous": false,
      "inputs": [
        {
          "indexed": false,
          "internalType": "address",
          "name": "tokenAddress",
          "type": "address"
        }
      ],
      "name": "LogTokenAdded",
      "type": "event"
    },
    {
      "anonymous": false,
      "inputs": [
        {
          "indexed": false,
          "internalType": "address",
          "name": "tokenAddress",
          "type": "address"
        }
      ],
      "name": "LogTokenRemoved",
      "type": "event"
    },
    {
      "inputs": [
        {
          "internalType": "address",
          "name": "",
          "type": "address"
        }
      ],
      "name": "soldiers",
      "outputs": [
        {
          "internalType": "bool",
          "name": "active",
          "type": "bool"
        }
      ],
      "stateMutability": "view",
      "type": "function",
      "constant": true
    },
    {
      "inputs": [
        {
          "internalType": "uint256",
          "name": "",
          "type": "uint256"
        },
        {
          "internalType": "address",
          "name": "",
          "type": "address"
        }
      ],
      "name": "thresholdSigners",
      "outputs": [
        {
          "internalType": "bool",
          "name": "",
          "type": "bool"
        }
      ],
      "stateMutability": "view",
      "type": "function",
      "constant": true
    },
    {
      "inputs": [
        {
          "internalType": "address",
          "name": "",
          "type": "address"
        }
      ],
      "name": "tokens",
      "outputs": [
        {
          "internalType": "bool",
          "name": "active",
          "type": "bool"
        }
      ],
      "stateMutability": "view",
      "type": "function",
      "constant": true
    },
    {
      "inputs": [
        {
          "internalType": "address",
          "name": "tokenAddress",
          "type": "address"
        },
        {
          "internalType": "uint256",
          "name": "nonce",
          "type": "uint256"
        },
        {
          "internalType": "bytes[]",
          "name": "signatures",
          "type": "bytes[]"
        }
      ],
      "name": "addToken",
      "outputs": [],
      "stateMutability": "nonpayable",
      "type": "function"
    },
    {
      "inputs": [
        {
          "internalType": "address",
          "name": "tokenAddress",
          "type": "address"
        },
        {
          "internalType": "uint256",
          "name": "nonce",
          "type": "uint256"
        },
        {
          "internalType": "bytes[]",
          "name": "signatures",
          "type": "bytes[]"
        }
      ],
      "name": "removeToken",
      "outputs": [],
      "stateMutability": "nonpayable",
      "type": "function"
    },
    {
      "inputs": [
        {
          "internalType": "uint8",
          "name": "threshold",
          "type": "uint8"
        },
        {
          "internalType": "uint256",
          "name": "nonce",
          "type": "uint256"
        },
        {
          "internalType": "bytes[]",
          "name": "signatures",
          "type": "bytes[]"
        }
      ],
      "name": "changeSignatureThreshold",
      "outputs": [],
      "stateMutability": "nonpayable",
      "type": "function"
    },
    {
      "inputs": [
        {
          "internalType": "address",
          "name": "soldierAddress",
          "type": "address"
        },
        {
          "internalType": "uint256",
          "name": "nonce",
          "type": "uint256"
        },
        {
          "internalType": "bytes[]",
          "name": "signatures",
          "type": "bytes[]"
        }
      ],
      "name": "addSoldier",
      "outputs": [],
      "stateMutability": "nonpayable",
      "type": "function"
    },
    {
      "inputs": [
        {
          "internalType": "address",
          "name": "soldierAddress",
          "type": "address"
        },
        {
          "internalType": "uint256",
          "name": "nonce",
          "type": "uint256"
        },
        {
          "internalType": "bytes[]",
          "name": "signatures",
          "type": "bytes[]"
        }
      ],
      "name": "removeSoldier",
      "outputs": [],
      "stateMutability": "nonpayable",
      "type": "function"
    },
    {
      "inputs": [
        {
          "internalType": "address",
          "name": "_msgSender",
          "type": "address"
        }
      ],
      "name": "isSoldier",
      "outputs": [
        {
          "internalType": "bool",
          "name": "",
          "type": "bool"
        }
      ],
      "stateMutability": "view",
      "type": "function",
      "constant": true
    },
    {
      "inputs": [
        {
          "internalType": "address",
          "name": "_address",
          "type": "address"
        }
      ],
      "name": "isTokenValid",
      "outputs": [
        {
          "internalType": "bool",
          "name": "",
          "type": "bool"
        }
      ],
      "stateMutability": "view",
      "type": "function",
      "constant": true
    },
    {
      "inputs": [],
      "name": "getSignaturesThreshold",
      "outputs": [
        {
          "internalType": "uint8",
          "name": "",
          "type": "uint8"
        }
      ],
      "stateMutability": "view",
      "type": "function",
      "constant": true
    },
    {
      "inputs": [],
      "name": "getNonce",
      "outputs": [
        {
          "internalType": "uint256",
          "name": "",
          "type": "uint256"
        }
      ],
      "stateMutability": "view",
      "type": "function",
      "constant": true
    }
  ],
  "bytecode": "0x608060405260006001553480156200001657600080fd5b5060405162001581380380620015818339810160408190526200003991620003fc565b600254835160ff9091161115620000b1576040517f08c379a000000000000000000000000000000000000000000000000000000000815260206004820152601360248201527f4e6f7420656e6f75676820736f6c64696572730000000000000000000000000060448201526064015b60405180910390fd5b60005b83518160ff161015620001bd57600060036000868460ff1681518110620000df57620000df62000481565b602090810291909101810151600160a060020a03168252810191909152604001600020805490915060ff161562000173576040517f08c379a000000000000000000000000000000000000000000000000000000000815260206004820152601560248201527f536f6c6469657220616c726561647920616464656400000000000000000000006044820152606401620000a8565b8054600160ff199182168117835580546000908152928101602090815260408085203386529091529092208054909116909117905580620001b481620004df565b915050620000b4565b50825160009081555b82518160ff161015620002cf57600060046000858460ff1681518110620001f157620001f162000481565b602090810291909101810151600160a060020a03168252810191909152604001600020805490915060ff161562000285576040517f08c379a000000000000000000000000000000000000000000000000000000000815260206004820152601360248201527f546f6b656e20616c7265616479206164646564000000000000000000000000006044820152606401620000a8565b8054600160ff199182168117835580546000908152928101602090815260408085203386529091529092208054909116909117905580620002c681620004df565b915050620001c6565b5060018054906000620002e28362000502565b90915550506002805460ff191660ff9290921691909117905550620005209050565b7f4e487b7100000000000000000000000000000000000000000000000000000000600052604160045260246000fd5b8051600160a060020a03811681146200034b57600080fd5b919050565b600082601f8301126200036257600080fd5b815160206001604060020a038083111562000381576200038162000304565b818302604051601f19603f83011681018181108482111715620003a857620003a862000304565b604052938452858101830193838101925087851115620003c757600080fd5b83870191505b84821015620003f157620003e18262000333565b83529183019190830190620003cd565b979650505050505050565b6000806000606084860312156200041257600080fd5b83516001604060020a03808211156200042a57600080fd5b620004388783880162000350565b945060208601519150808211156200044f57600080fd5b506200045e8682870162000350565b925050604084015160ff811681146200047657600080fd5b809150509250925092565b7f4e487b7100000000000000000000000000000000000000000000000000000000600052603260045260246000fd5b7f4e487b7100000000000000000000000000000000000000000000000000000000600052601160045260246000fd5b600060ff821660ff811415620004f957620004f9620004b0565b60010192915050565b6000600019821415620005195762000519620004b0565b5060010190565b61105180620005306000396000f3fe608060405234801561001057600080fd5b50600436106100d1576000357c010000000000000000000000000000000000000000000000000000000090048063a6707acc1161008e578063a6707acc1461018a578063b3aa7620146101b8578063c15e26ba146101cb578063d087d288146101f7578063e02a334314610208578063e48603391461021b57600080fd5b8063071743ed146100d65780630c9c8d9e1461010e57806327546ef81461013a5780634f2c65a51461014f5780636426a18d146101645780638f230ba314610177575b600080fd5b6100f96100e4366004610c94565b60036020526000908152604090205460ff1681565b60405190151581526020015b60405180910390f35b6100f961011c366004610c94565b600160a060020a031660009081526003602052604090205460ff1690565b61014d610148366004610e03565b61023e565b005b60025460405160ff9091168152602001610105565b61014d610172366004610e03565b6103be565b61014d610185366004610e03565b610555565b6100f9610198366004610e5a565b600560209081526000928352604080842090915290825290205460ff1681565b61014d6101c6366004610e98565b610677565b6100f96101d9366004610c94565b600160a060020a031660009081526004602052604090205460ff1690565b600154604051908152602001610105565b61014d610216366004610e03565b610746565b6100f9610229366004610c94565b60046020526000908152604090205460ff1681565b3360009081526003602052604090205460ff166102795760405160e560020a62461bcd02815260040161027090610eb8565b60405180910390fd5b81600154811461029e5760405160e560020a62461bcd02815260040161027090610f15565b600160a060020a0384166000908152600360205260409020805460ff161561030b5760405160e560020a62461bcd02815260206004820152601660248201527f536f6c6469657220616c726561647920616374697665000000000000000000006044820152606401610270565b61033030610319878761085c565b6000878152600185016020526040902086906108f6565b600160a060020a0385166000908152600360205260408120805460ff191660011790558054908061036083610f7b565b9091555050604051600160a060020a03861681527f45df561f3a6211cd36a659f28ca50d2c48d04968cdd47fe32229f9ff2c476bd1906020015b60405180910390a150600180549060006103b383610f7b565b919050555050505050565b3360009081526003602052604090205460ff166103f05760405160e560020a62461bcd02815260040161027090610eb8565b8160015481146104155760405160e560020a62461bcd02815260040161027090610f15565b60025460005460ff909116106104705760405160e560020a62461bcd02815260206004820152601360248201527f4e6f7420656e6f75676820736f6c6469657273000000000000000000000000006044820152606401610270565b600160a060020a0384166000908152600360205260409020805460ff166104dc5760405160e560020a62461bcd02815260206004820152600d60248201527f4e6f74206120736f6c69646572000000000000000000000000000000000000006044820152606401610270565b6104ea30610319878761085c565b600160a060020a0385166000908152600360205260408120805460ff191690558054908061051783610f96565b9091555050604051600160a060020a03861681527fa3b8d9f0a704aed051810dffe58189fcc83f68b00d2c06cd86220c18b5d288c69060200161039a565b3360009081526003602052604090205460ff166105875760405160e560020a62461bcd02815260040161027090610eb8565b8160015481146105ac5760405160e560020a62461bcd02815260040161027090610f15565b600160a060020a0384166000908152600460205260409020805460ff166106185760405160e560020a62461bcd02815260206004820152601860248201527f546f6b656e20616c7265616479206e6f742061637469766500000000000000006044820152606401610270565b61062630610319878761085c565b600160a060020a038516600081815260046020908152604091829020805460ff1916905590519182527f48207b8b88ad0363606ff7f381bc9ee60bb9b614b5dccd985ae4cb02af0f77c3910161039a565b3360009081526003602052604090205460ff166106a95760405160e560020a62461bcd02815260040161027090610eb8565b8160015481146106ce5760405160e560020a62461bcd02815260040161027090610f15565b6106f1306106dc8686610b86565b600086815260056020526040902085906108f6565b6002805460ff191660ff86169081179091556040519081527f1d35c1363b251f7865b1b369641e54ec5729c78010282069b20f2fb0af8621ee9060200160405180910390a1600180549060006103b383610f7b565b3360009081526003602052604090205460ff166107785760405160e560020a62461bcd02815260040161027090610eb8565b81600154811461079d5760405160e560020a62461bcd02815260040161027090610f15565b600160a060020a0384166000908152600460205260409020805460ff161561080a5760405160e560020a62461bcd02815260206004820152601460248201527f546f6b656e20616c7265616479206163746976650000000000000000000000006044820152606401610270565b61081830610319878761085c565b805460ff19166001178155604051600160a060020a03861681527f5a2cd987faef4fe5343b92ff6b73ef7a6e5ffefa48ef8559a9c99fbe55ebca8f9060200161039a565b6040516c01000000000000000000000000600160a060020a038416026020820152603481018290526000906108ef906054015b60408051601f1981840301815282825280516020918201207f19457468657265756d205369676e6564204d6573736167653a0a33320000000084830152603c8085019190915282518085039091018152605c909301909152815191012090565b9392505050565b600084600160a060020a0316634f2c65a56040518163ffffffff167c0100000000000000000000000000000000000000000000000000000000028152600401602060405180830381865afa158015610952573d6000803e3d6000fd5b505050506040513d601f19601f820116820180604052508101906109769190610fad565b90508060ff16835110156109cf5760405160e560020a62461bcd02815260206004820152601560248201527f4e6f7420656e6f756768207369676e61747572657300000000000000000000006044820152606401610270565b60005b8160ff16811015610b7e576000610a02868684815181106109f5576109f5610fca565b6020026020010151610bca565b6040517f0c9c8d9e000000000000000000000000000000000000000000000000000000008152600160a060020a038083166004830152919250600091891690630c9c8d9e90602401602060405180830381865afa158015610a67573d6000803e3d6000fd5b505050506040513d601f19601f82011682018060405250810190610a8b9190610ff9565b905080610add5760405160e560020a62461bcd02815260206004820152601160248201527f496e76616c6964207369676e61747572650000000000000000000000000000006044820152606401610270565b600160a060020a03821660009081526020869052604090205460ff1615610b495760405160e560020a62461bcd02815260206004820152601460248201527f4475706c696361746564207369676e61747572650000000000000000000000006044820152606401610270565b50600160a060020a03166000908152602084905260409020805460ff1916600117905580610b7681610f7b565b9150506109d2565b505050505050565b6040517f010000000000000000000000000000000000000000000000000000000000000060ff8416026020820152602181018290526000906108ef9060410161088f565b600080600080610bd985610c49565b6040805160008152602081018083528b905260ff8516918101919091526060810183905260808101829052929550909350915060019060a0016020604051602081039080840390855afa158015610c34573d6000803e3d6000fd5b5050604051601f190151979650505050505050565b60008060008351604114610c5c57600080fd5b5050506020810151604082015160609092015160001a92909190565b8035600160a060020a0381168114610c8f57600080fd5b919050565b600060208284031215610ca657600080fd5b6108ef82610c78565b7f4e487b7100000000000000000000000000000000000000000000000000000000600052604160045260246000fd5b604051601f8201601f1916810167ffffffffffffffff81118282101715610d0757610d07610caf565b604052919050565b6000601f8381840112610d2157600080fd5b8235602067ffffffffffffffff80831115610d3e57610d3e610caf565b818302610d4c838201610cde565b9384528681018301938381019089861115610d6657600080fd5b84890192505b85831015610df657823584811115610d845760008081fd5b8901603f81018b13610d965760008081fd5b85810135604086821115610dac57610dac610caf565b610dbd828b01601f19168901610cde565b8281528d82848601011115610dd25760008081fd5b828285018a8301376000928101890192909252508352509184019190840190610d6c565b9998505050505050505050565b600080600060608486031215610e1857600080fd5b610e2184610c78565b925060208401359150604084013567ffffffffffffffff811115610e4457600080fd5b610e5086828701610d0f565b9150509250925092565b60008060408385031215610e6d57600080fd5b82359150610e7d60208401610c78565b90509250929050565b60ff81168114610e9557600080fd5b50565b600080600060608486031215610ead57600080fd5b8335610e2181610e86565b60208082526021908201527f63616c6c6572206973206e6f74206f6e65206f662074686520736f6c6469657260408201527f7300000000000000000000000000000000000000000000000000000000000000606082015260800190565b6020808252600d908201527f496e76616c6964206e6f6e636500000000000000000000000000000000000000604082015260600190565b7f4e487b7100000000000000000000000000000000000000000000000000000000600052601160045260246000fd5b6000600019821415610f8f57610f8f610f4c565b5060010190565b600081610fa557610fa5610f4c565b506000190190565b600060208284031215610fbf57600080fd5b81516108ef81610e86565b7f4e487b7100000000000000000000000000000000000000000000000000000000600052603260045260246000fd5b60006020828403121561100b57600080fd5b815180151581146108ef57600080fdfea2646970667358221220a908a1702aaf2fd8cb34dcf3a5a77b11b53c1742d83271405f3396c21e316b7964736f6c634300080a0033",
  "immutableReferences": {},
  "source": "// SPDX-License-Identifier: MIT\npragma solidity ^0.8.0;\n\nimport \"./SignatureValidator.sol\";\n\ncontract BridgeState is SignatureValidator {\n    struct Info {\n        bool active;\n        mapping(uint256 => mapping(address => bool)) signers;\n    }\n\n    uint256 private _soldierCount;\n    uint256 private _nonce = 0;\n    uint8 private _signaturesThreshold;\n\n    mapping(address => Info) public soldiers;\n    mapping(address => Info) public tokens;\n    // This mapping serves the same purpose as Info.signers for changingThreshold.\n    mapping(uint256 => mapping(address => bool)) public thresholdSigners;\n    event LogTokenAdded(address tokenAddress);\n    event LogTokenRemoved(address tokenAddress);\n    event LogSoldierAdded(address soldierAddress);\n    event LogSoldierRemoved(address soldierAddress);\n    event LogThresholdChanged(uint8 threshold);\n\n    constructor(\n        address[] memory initialSoldiers,\n        address[] memory initialTokens,\n        uint8 threshold\n    ) {\n        require(\n            initialSoldiers.length >= _signaturesThreshold,\n            \"Not enough soldiers\"\n        );\n        for (uint8 i = 0; i < initialSoldiers.length; i++) {\n            Info storage soldierInfo = soldiers[initialSoldiers[i]];\n            require(!soldierInfo.active, \"Soldier already added\");\n            soldierInfo.active = true;\n            soldierInfo.signers[_nonce][msg.sender] = true;\n        }\n        _soldierCount = initialSoldiers.length;\n\n        for (uint8 i = 0; i < initialTokens.length; i++) {\n            Info storage tokenInfo = tokens[initialTokens[i]];\n            require(!tokenInfo.active, \"Token already added\");\n            tokenInfo.active = true;\n            tokenInfo.signers[_nonce][msg.sender] = true;\n        }\n        _nonce++;\n\n        _signaturesThreshold = threshold;\n    }\n\n    modifier onlySoldier() {\n        require(\n            soldiers[msg.sender].active,\n            \"caller is not one of the soldiers\"\n        );\n        _;\n    }\n\n    modifier validNonce(uint256 nonce) {\n        require(nonce == _nonce, \"Invalid nonce\");\n        _;\n        _nonce++;\n    }\n\n    function addToken(\n        address tokenAddress,\n        uint256 nonce,\n        bytes[] memory signatures\n    ) public onlySoldier validNonce(nonce) {\n        Info storage tokenInfo = tokens[tokenAddress];\n        require(!tokenInfo.active, \"Token already active\");\n        validateSignatures(\n            address(this),\n            reconstructMessage(tokenAddress, nonce),\n            signatures,\n            tokenInfo.signers[nonce]\n        );\n        tokenInfo.active = true;\n        emit LogTokenAdded(tokenAddress);\n    }\n\n    function removeToken(\n        address tokenAddress,\n        uint256 nonce,\n        bytes[] memory signatures\n    ) public onlySoldier validNonce(nonce) {\n        Info storage tokenInfo = tokens[tokenAddress];\n        require(tokenInfo.active, \"Token already not active\");\n        validateSignatures(\n            address(this),\n            reconstructMessage(tokenAddress, nonce),\n            signatures,\n            tokenInfo.signers[nonce]\n        );\n        delete tokens[tokenAddress];\n        emit LogTokenRemoved(tokenAddress);\n    }\n\n    function changeSignatureThreshold(\n        uint8 threshold,\n        uint256 nonce,\n        bytes[] memory signatures\n    ) public onlySoldier validNonce(nonce) {\n        validateSignatures(\n            address(this),\n            reconstructMessageUint8(threshold, nonce),\n            signatures,\n            thresholdSigners[nonce]\n        );\n        _signaturesThreshold = threshold;\n        emit LogThresholdChanged(threshold);\n    }\n\n    function addSoldier(\n        address soldierAddress,\n        uint256 nonce,\n        bytes[] memory signatures\n    ) public onlySoldier validNonce(nonce) {\n        Info storage soldierInfo = soldiers[soldierAddress];\n        require(!soldierInfo.active, \"Soldier already active\");\n        validateSignatures(\n            address(this),\n            reconstructMessage(soldierAddress, nonce),\n            signatures,\n            soldierInfo.signers[nonce]\n        );\n        soldiers[soldierAddress].active = true;\n        _soldierCount++;\n        emit LogSoldierAdded(soldierAddress);\n    }\n\n    function removeSoldier(\n        address soldierAddress,\n        uint256 nonce,\n        bytes[] memory signatures\n    ) public onlySoldier validNonce(nonce) {\n        require(_soldierCount > _signaturesThreshold, \"Not enough soldiers\");\n        Info storage soldierInfo = soldiers[soldierAddress];\n        require(soldierInfo.active, \"Not a solider\");\n        validateSignatures(\n            address(this),\n            reconstructMessage(soldierAddress, nonce),\n            signatures,\n            soldierInfo.signers[nonce]\n        );\n        delete soldiers[soldierAddress];\n        _soldierCount--;\n        emit LogSoldierRemoved(soldierAddress);\n    }\n\n    function isSoldier(address _msgSender) public view returns (bool) {\n        return soldiers[_msgSender].active;\n    }\n\n    function isTokenValid(address _address) public view returns (bool) {\n        return tokens[_address].active;\n    }\n\n    function getSignaturesThreshold() public view returns (uint8) {\n        return _signaturesThreshold;\n    }\n\n    function getNonce() public view returns (uint256) {\n        return _nonce;\n    }\n\n    function reconstructMessage(address addressToAdd, uint256 nonce)\n        private\n        pure\n        returns (bytes32)\n    {\n        return prefixed(keccak256(abi.encodePacked(addressToAdd, nonce)));\n    }\n\n    function reconstructMessageUint8(uint8 number, uint256 nonce)\n        private\n        pure\n        returns (bytes32)\n    {\n        return prefixed(keccak256(abi.encodePacked(number, nonce)));\n    }\n}\n",
  "sourcePath": "/home/cicd/contract/zerobridge-smart-contracts-beta/contracts/BridgeState.sol",
  "compiler": {
    "name": "solc",
    "version": "0.8.10+commit.fc410830.Emscripten.clang"
  },
  "schemaVersion": "3.4.4",
  "updatedAt": "2022-04-08T12:16:31.734Z",
  "networkType": "ethereum",
  "devdoc": {
    "kind": "dev",
    "methods": {},
    "version": 1
  },
  "userdoc": {
    "kind": "user",
    "methods": {},
    "version": 1
  }
}