{
  "contractName": "Bridge",
  "abi": [
    {
      "anonymous": false,
      "inputs": [
        {
          "indexed": false,
          "internalType": "address",
          "name": "previousAdmin",
          "type": "address"
        },
        {
          "indexed": false,
          "internalType": "address",
          "name": "newAdmin",
          "type": "address"
        }
      ],
      "name": "AdminChanged",
      "type": "event"
    },
    {
      "anonymous": false,
      "inputs": [
        {
          "indexed": true,
          "internalType": "address",
          "name": "beacon",
          "type": "address"
        }
      ],
      "name": "BeaconUpgraded",
      "type": "event"
    },
    {
      "anonymous": false,
      "inputs": [
        {
          "indexed": false,
          "internalType": "string",
          "name": "sourceTransactionId",
          "type": "string"
        },
        {
          "components": [
            {
              "internalType": "uint32",
              "name": "chainId",
              "type": "uint32"
            },
            {
              "internalType": "string",
              "name": "tokenId",
              "type": "string"
            },
            {
              "internalType": "uint256",
              "name": "amount",
              "type": "uint256"
            },
            {
              "internalType": "string",
              "name": "addressId",
              "type": "string"
            }
          ],
          "indexed": false,
          "internalType": "struct Bridge.ExternalChainInfo",
          "name": "sourceChainData",
          "type": "tuple"
        },
        {
          "components": [
            {
              "internalType": "uint32",
              "name": "chainId",
              "type": "uint32"
            },
            {
              "internalType": "address",
              "name": "tokenId",
              "type": "address"
            },
            {
              "internalType": "uint256",
              "name": "amount",
              "type": "uint256"
            },
            {
              "internalType": "address",
              "name": "addressId",
              "type": "address"
            }
          ],
          "indexed": false,
          "internalType": "struct Bridge.EthChainInfo",
          "name": "destinationChainData",
          "type": "tuple"
        },
        {
          "indexed": false,
          "internalType": "string",
          "name": "note",
          "type": "string"
        },
        {
          "indexed": false,
          "internalType": "uint256",
          "name": "timestamp",
          "type": "uint256"
        }
      ],
      "name": "BridgeSuccess",
      "type": "event"
    },
    {
      "anonymous": false,
      "inputs": [
        {
          "indexed": false,
          "internalType": "address",
          "name": "feeTokenAddr",
          "type": "address"
        },
        {
          "indexed": false,
          "internalType": "uint256",
          "name": "feeAmount",
          "type": "uint256"
        },
        {
          "components": [
            {
              "internalType": "uint32",
              "name": "chainId",
              "type": "uint32"
            },
            {
              "internalType": "address",
              "name": "tokenId",
              "type": "address"
            },
            {
              "internalType": "uint256",
              "name": "amount",
              "type": "uint256"
            },
            {
              "internalType": "address",
              "name": "addressId",
              "type": "address"
            }
          ],
          "indexed": false,
          "internalType": "struct Bridge.EthChainInfo",
          "name": "sourceChainData",
          "type": "tuple"
        },
        {
          "components": [
            {
              "internalType": "uint32",
              "name": "chainId",
              "type": "uint32"
            },
            {
              "internalType": "string",
              "name": "tokenId",
              "type": "string"
            },
            {
              "internalType": "uint256",
              "name": "amount",
              "type": "uint256"
            },
            {
              "internalType": "string",
              "name": "addressId",
              "type": "string"
            }
          ],
          "indexed": false,
          "internalType": "struct Bridge.ExternalChainInfo",
          "name": "destinationChainData",
          "type": "tuple"
        },
        {
          "indexed": false,
          "internalType": "string",
          "name": "note",
          "type": "string"
        },
        {
          "indexed": false,
          "internalType": "uint256",
          "name": "timestamp",
          "type": "uint256"
        }
      ],
      "name": "Lock",
      "type": "event"
    },
    {
      "anonymous": false,
      "inputs": [
        {
          "indexed": false,
          "internalType": "address",
          "name": "soldierAddress",
          "type": "address"
        }
      ],
      "name": "LogSoldierAdded",
      "type": "event"
    },
    {
      "anonymous": false,
      "inputs": [
        {
          "indexed": false,
          "internalType": "address",
          "name": "soldierAddress",
          "type": "address"
        }
      ],
      "name": "LogSoldierRemoved",
      "type": "event"
    },
    {
      "anonymous": false,
      "inputs": [
        {
          "indexed": false,
          "internalType": "uint8",
          "name": "threshold",
          "type": "uint8"
        }
      ],
      "name": "LogThresholdChanged",
      "type": "event"
    },
    {
      "anonymous": false,
      "inputs": [
        {
          "indexed": false,
          "internalType": "address",
          "name": "tokenAddress",
          "type": "address"
        }
      ],
      "name": "LogTokenAdded",
      "type": "event"
    },
    {
      "anonymous": false,
      "inputs": [
        {
          "indexed": false,
          "internalType": "address",
          "name": "tokenAddress",
          "type": "address"
        }
      ],
      "name": "LogTokenRemoved",
      "type": "event"
    },
    {
      "anonymous": false,
      "inputs": [
        {
          "indexed": false,
          "internalType": "address",
          "name": "account",
          "type": "address"
        }
      ],
      "name": "Paused",
      "type": "event"
    },
    {
      "anonymous": false,
      "inputs": [
        {
          "indexed": false,
          "internalType": "address",
          "name": "account",
          "type": "address"
        }
      ],
      "name": "Unpaused",
      "type": "event"
    },
    {
      "anonymous": false,
      "inputs": [
        {
          "indexed": true,
          "internalType": "address",
          "name": "implementation",
          "type": "address"
        }
      ],
      "name": "Upgraded",
      "type": "event"
    },
    {
      "inputs": [
        {
          "internalType": "address",
          "name": "soldierAddress",
          "type": "address"
        },
        {
          "internalType": "uint256",
          "name": "requestNonce",
          "type": "uint256"
        },
        {
          "internalType": "bytes[]",
          "name": "signatures",
          "type": "bytes[]"
        }
      ],
      "name": "addSoldier",
      "outputs": [],
      "stateMutability": "nonpayable",
      "type": "function"
    },
    {
      "inputs": [
        {
          "internalType": "address",
          "name": "tokenAddress",
          "type": "address"
        },
        {
          "internalType": "uint256",
          "name": "requestNonce",
          "type": "uint256"
        },
        {
          "internalType": "bytes[]",
          "name": "signatures",
          "type": "bytes[]"
        }
      ],
      "name": "addToken",
      "outputs": [],
      "stateMutability": "nonpayable",
      "type": "function"
    },
    {
      "inputs": [
        {
          "internalType": "uint8",
          "name": "threshold",
          "type": "uint8"
        },
        {
          "internalType": "uint256",
          "name": "requestNonce",
          "type": "uint256"
        },
        {
          "internalType": "bytes[]",
          "name": "signatures",
          "type": "bytes[]"
        }
      ],
      "name": "changeSignatureThreshold",
      "outputs": [],
      "stateMutability": "nonpayable",
      "type": "function"
    },
    {
      "inputs": [],
      "name": "getNonce",
      "outputs": [
        {
          "internalType": "uint256",
          "name": "",
          "type": "uint256"
        }
      ],
      "stateMutability": "view",
      "type": "function",
      "constant": true
    },
    {
      "inputs": [
        {
          "internalType": "address[]",
          "name": "initialSoldiers",
          "type": "address[]"
        },
        {
          "internalType": "address[]",
          "name": "initialTokens",
          "type": "address[]"
        },
        {
          "internalType": "uint8",
          "name": "threshold",
          "type": "uint8"
        },
        {
          "internalType": "uint32",
          "name": "chainId",
          "type": "uint32"
        }
      ],
      "name": "initialize",
      "outputs": [],
      "stateMutability": "nonpayable",
      "type": "function"
    },
    {
      "inputs": [],
      "name": "paused",
      "outputs": [
        {
          "internalType": "bool",
          "name": "",
          "type": "bool"
        }
      ],
      "stateMutability": "view",
      "type": "function",
      "constant": true
    },
    {
      "inputs": [
        {
          "internalType": "address",
          "name": "soldierAddress",
          "type": "address"
        },
        {
          "internalType": "uint256",
          "name": "requestNonce",
          "type": "uint256"
        },
        {
          "internalType": "bytes[]",
          "name": "signatures",
          "type": "bytes[]"
        }
      ],
      "name": "removeSoldier",
      "outputs": [],
      "stateMutability": "nonpayable",
      "type": "function"
    },
    {
      "inputs": [
        {
          "internalType": "address",
          "name": "tokenAddress",
          "type": "address"
        },
        {
          "internalType": "uint256",
          "name": "requestNonce",
          "type": "uint256"
        },
        {
          "internalType": "bytes[]",
          "name": "signatures",
          "type": "bytes[]"
        }
      ],
      "name": "removeToken",
      "outputs": [],
      "stateMutability": "nonpayable",
      "type": "function"
    },
    {
      "inputs": [
        {
          "internalType": "address",
          "name": "",
          "type": "address"
        }
      ],
      "name": "soldiers",
      "outputs": [
        {
          "internalType": "bool",
          "name": "",
          "type": "bool"
        }
      ],
      "stateMutability": "view",
      "type": "function",
      "constant": true
    },
    {
      "inputs": [],
      "name": "thisChainId",
      "outputs": [
        {
          "internalType": "uint32",
          "name": "",
          "type": "uint32"
        }
      ],
      "stateMutability": "view",
      "type": "function",
      "constant": true
    },
    {
      "inputs": [
        {
          "internalType": "address",
          "name": "",
          "type": "address"
        }
      ],
      "name": "tokens",
      "outputs": [
        {
          "internalType": "bool",
          "name": "",
          "type": "bool"
        }
      ],
      "stateMutability": "view",
      "type": "function",
      "constant": true
    },
    {
      "inputs": [
        {
          "internalType": "uint32",
          "name": "",
          "type": "uint32"
        },
        {
          "internalType": "string",
          "name": "",
          "type": "string"
        }
      ],
      "name": "transactions",
      "outputs": [
        {
          "internalType": "bool",
          "name": "processed",
          "type": "bool"
        }
      ],
      "stateMutability": "view",
      "type": "function",
      "constant": true
    },
    {
      "inputs": [
        {
          "internalType": "address",
          "name": "newImplementation",
          "type": "address"
        },
        {
          "internalType": "uint256",
          "name": "requestNonce",
          "type": "uint256"
        },
        {
          "internalType": "bytes[]",
          "name": "signatures",
          "type": "bytes[]"
        }
      ],
      "name": "upgrade",
      "outputs": [],
      "stateMutability": "nonpayable",
      "type": "function"
    },
    {
      "inputs": [
        {
          "internalType": "uint64",
          "name": "maxReleaseRound",
          "type": "uint64"
        },
        {
          "internalType": "string",
          "name": "sourceTransactionId",
          "type": "string"
        },
        {
          "components": [
            {
              "internalType": "uint32",
              "name": "chainId",
              "type": "uint32"
            },
            {
              "internalType": "string",
              "name": "tokenId",
              "type": "string"
            },
            {
              "internalType": "uint256",
              "name": "amount",
              "type": "uint256"
            },
            {
              "internalType": "string",
              "name": "addressId",
              "type": "string"
            }
          ],
          "internalType": "struct Bridge.ExternalChainInfo",
          "name": "sourceChainData",
          "type": "tuple"
        },
        {
          "components": [
            {
              "internalType": "uint32",
              "name": "chainId",
              "type": "uint32"
            },
            {
              "internalType": "address",
              "name": "tokenId",
              "type": "address"
            },
            {
              "internalType": "uint256",
              "name": "amount",
              "type": "uint256"
            },
            {
              "internalType": "address",
              "name": "addressId",
              "type": "address"
            }
          ],
          "internalType": "struct Bridge.EthChainInfo",
          "name": "destinationChainData",
          "type": "tuple"
        },
        {
          "internalType": "string",
          "name": "note",
          "type": "string"
        },
        {
          "internalType": "bytes[]",
          "name": "signatures",
          "type": "bytes[]"
        }
      ],
      "name": "releaseTokens",
      "outputs": [
        {
          "internalType": "bool",
          "name": "",
          "type": "bool"
        }
      ],
      "stateMutability": "nonpayable",
      "type": "function"
    },
    {
      "inputs": [
        {
          "internalType": "address",
          "name": "feeTokenAddr",
          "type": "address"
        },
        {
          "internalType": "uint256",
          "name": "feeAmount",
          "type": "uint256"
        },
        {
          "internalType": "address",
          "name": "rootTokenAddr",
          "type": "address"
        },
        {
          "internalType": "uint256",
          "name": "rootAmount",
          "type": "uint256"
        },
        {
          "components": [
            {
              "internalType": "uint32",
              "name": "chainId",
              "type": "uint32"
            },
            {
              "internalType": "string",
              "name": "tokenId",
              "type": "string"
            },
            {
              "internalType": "uint256",
              "name": "amount",
              "type": "uint256"
            },
            {
              "internalType": "string",
              "name": "addressId",
              "type": "string"
            }
          ],
          "internalType": "struct Bridge.ExternalChainInfo",
          "name": "destinationChainData",
          "type": "tuple"
        },
        {
          "internalType": "string",
          "name": "note",
          "type": "string"
        }
      ],
      "name": "lockTokens",
      "outputs": [
        {
          "internalType": "bool",
          "name": "",
          "type": "bool"
        }
      ],
      "stateMutability": "payable",
      "type": "function",
      "payable": true
    },
    {
      "inputs": [
        {
          "internalType": "address",
          "name": "feeTokenAddr",
          "type": "address"
        },
        {
          "internalType": "uint256",
          "name": "feeAmount",
          "type": "uint256"
        },
        {
          "internalType": "uint256",
          "name": "rootAmount",
          "type": "uint256"
        },
        {
          "components": [
            {
              "internalType": "uint32",
              "name": "chainId",
              "type": "uint32"
            },
            {
              "internalType": "string",
              "name": "tokenId",
              "type": "string"
            },
            {
              "internalType": "uint256",
              "name": "amount",
              "type": "uint256"
            },
            {
              "internalType": "string",
              "name": "addressId",
              "type": "string"
            }
          ],
          "internalType": "struct Bridge.ExternalChainInfo",
          "name": "destinationChainData",
          "type": "tuple"
        },
        {
          "internalType": "string",
          "name": "note",
          "type": "string"
        }
      ],
      "name": "lockNativeCurrency",
      "outputs": [
        {
          "internalType": "bool",
          "name": "",
          "type": "bool"
        }
      ],
      "stateMutability": "payable",
      "type": "function",
      "payable": true
    },
    {
      "inputs": [],
      "name": "deposit",
      "outputs": [],
      "stateMutability": "payable",
      "type": "function",
      "payable": true
    },
    {
      "inputs": [
        {
          "internalType": "uint64",
          "name": "maxReleaseRound",
          "type": "uint64"
        },
        {
          "internalType": "string",
          "name": "sourceTransactionId",
          "type": "string"
        },
        {
          "components": [
            {
              "internalType": "uint32",
              "name": "chainId",
              "type": "uint32"
            },
            {
              "internalType": "string",
              "name": "tokenId",
              "type": "string"
            },
            {
              "internalType": "uint256",
              "name": "amount",
              "type": "uint256"
            },
            {
              "internalType": "string",
              "name": "addressId",
              "type": "string"
            }
          ],
          "internalType": "struct Bridge.ExternalChainInfo",
          "name": "sourceChainData",
          "type": "tuple"
        },
        {
          "components": [
            {
              "internalType": "uint32",
              "name": "chainId",
              "type": "uint32"
            },
            {
              "internalType": "address",
              "name": "tokenId",
              "type": "address"
            },
            {
              "internalType": "uint256",
              "name": "amount",
              "type": "uint256"
            },
            {
              "internalType": "address",
              "name": "addressId",
              "type": "address"
            }
          ],
          "internalType": "struct Bridge.EthChainInfo",
          "name": "destinationChainData",
          "type": "tuple"
        },
        {
          "internalType": "string",
          "name": "note",
          "type": "string"
        }
      ],
      "name": "reconstructMessageHash",
      "outputs": [
        {
          "internalType": "bytes32",
          "name": "",
          "type": "bytes32"
        }
      ],
      "stateMutability": "pure",
      "type": "function",
      "constant": true
    }
  ],
  "bytecode": "0x6080604052600060025534801561001557600080fd5b506000805460ff191690556129978061002f6000396000f3fe60806040526004361061010d5760003560e060020a90048063b0324d6411610099578063d12fed8611610068578063d12fed86146102d3578063e02a3343146102e6578063e3d29c5d14610306578063e486033914610338578063ef78a1b61461036857600080fd5b8063b0324d6414610270578063b3aa76201461029e578063d087d288146102be578063d0e30db01461018a57600080fd5b80635c975abb116100e05780635c975abb146101ac5780636426a18d146101c45780637a8a0067146101e45780638f230ba31461023057806394c4395b1461025057600080fd5b8063071743ed1461011257806307622459146101575780631e93cb9e1461016a57806327546ef81461018c575b600080fd5b34801561011e57600080fd5b5061014261012d366004611d39565b60046020526000908152604090205460ff1681565b60405190151581526020015b60405180910390f35b610142610165366004611ef3565b610388565b34801561017657600080fd5b5061018a61018536600461202e565b610762565b005b34801561019857600080fd5b5061018a6101a7366004612145565b610b24565b3480156101b857600080fd5b5060005460ff16610142565b3480156101d057600080fd5b5061018a6101df366004612145565b610c98565b3480156101f057600080fd5b506101426101ff36600461219c565b6007602090815260009283526040909220815180830184018051928152908401929093019190912091525460ff1681565b34801561023c57600080fd5b5061018a61024b366004612145565b610e2e565b34801561025c57600080fd5b5061018a61026b366004612145565b610f4e565b34801561027c57600080fd5b5061029061028b36600461225b565b610fcb565b60405190815260200161014e565b3480156102aa57600080fd5b5061018a6102b9366004612307565b611109565b3480156102ca57600080fd5b50600254610290565b6101426102e1366004612325565b6111af565b3480156102f257600080fd5b5061018a610301366004612145565b611437565b34801561031257600080fd5b506008546103239063ffffffff1681565b60405163ffffffff909116815260200161014e565b34801561034457600080fd5b50610142610353366004611d39565b60056020526000908152604090205460ff1681565b34801561037457600080fd5b50610142610383366004612393565b61155b565b6000805460ff16156103b85760405160e560020a62461bcd0281526004016103af90612456565b60405180910390fd5b6032825111156103dd5760405160e560020a62461bcd0281526004016103af9061248d565b600160a060020a03851660009081526005602052604090205460ff166104185760405160e560020a62461bcd0281526004016103af906124ea565b86600160a060020a031685600160a060020a03161415801561043a5750600086115b801561044e5750600160a060020a03871615155b1561058157600160a060020a03871660009081526005602052604090205460ff1661048e5760405160e560020a62461bcd0281526004016103af906124ea565b60405160e060020a6323b872dd028152600160a060020a038816906323b872dd906104c190339030908b90600401612547565b6020604051808303816000875af11580156104e0573d6000803e3d6000fd5b505050506040513d601f19601f82011682018060405250810190610504919061256b565b5060405160e060020a6323b872dd028152600160a060020a038616906323b872dd9061053890339030908990600401612547565b6020604051808303816000875af1158015610557573d6000803e3d6000fd5b505050506040513d601f19601f8201168201806040525081019061057b919061256b565b506106e6565b86600160a060020a031685600160a060020a03161480156105a25750600086115b156105e357600160a060020a0385166323b872dd33306105c28a896125bc565b6040518463ffffffff1660e060020a02815260040161053893929190612547565b85341480156105f95750600160a060020a038716155b80156106055750600034115b1561063d5760405160e060020a6323b872dd028152600160a060020a038616906323b872dd9061053890339030908990600401612547565b856106755760405160e060020a6323b872dd028152600160a060020a038616906323b872dd9061053890339030908990600401612547565b60405160e560020a62461bcd02815260206004820152603760248201527f50726f626c656d206f63637572726564207768696c6520747279696e6720746f60448201527f2073656c6563742061207472616e73666572206361736500000000000000000060648201526084016103af565b6040805160808101825260085463ffffffff168152600160a060020a038716602082015280820186905233606082015290517f9ee6a3a299d72fe4453ced2f6d176851e8650224eb8247a26e96a655e940edb79161074d918a918a918890889042906126b8565b60405180910390a15060019695505050505050565b60085465010000000000900460ff1661078957600854640100000000900460ff161561078d565b303b155b6108025760405160e560020a62461bcd02815260206004820152602e60248201527f496e697469616c697a61626c653a20636f6e747261637420697320616c72656160448201527f647920696e697469616c697a656400000000000000000000000000000000000060648201526084016103af565b60085465010000000000900460ff16158015610830576008805465ffff000000001916650101000000001790555b8260ff16855110156108875760405160e560020a62461bcd02815260206004820152601360248201527f4e6f7420656e6f75676820736f6c64696572730000000000000000000000000060448201526064016103af565b60005b85518160ff1610156109a75760046000878360ff16815181106108af576108af612717565b602090810291909101810151600160a060020a031682528101919091526040016000205460ff16156109265760405160e560020a62461bcd02815260206004820152601560248201527f536f6c6469657220616c7265616479206164646564000000000000000000000060448201526064016103af565b600160046000888460ff168151811061094157610941612717565b602090810291909101810151600160a060020a031682528181019290925260409081016000908120805494151560ff199586161790556002548152600683528181203382529092529020805490911660011790558061099f81612746565b91505061088a565b50845160015560005b84518160ff161015610acd5760056000868360ff16815181106109d5576109d5612717565b602090810291909101810151600160a060020a031682528101919091526040016000205460ff1615610a4c5760405160e560020a62461bcd02815260206004820152601360248201527f546f6b656e20616c72656164792061646465640000000000000000000000000060448201526064016103af565b600160056000878460ff1681518110610a6757610a67612717565b602090810291909101810151600160a060020a031682528181019290925260409081016000908120805494151560ff1995861617905560025481526006835281812033825290925290208054909116600117905580610ac581612746565b9150506109b0565b5060028054906000610ade83612766565b90915550506003805460ff191660ff85161790556008805463ffffffff191663ffffffff84161790558015610b1d576008805465ff0000000000191690555b5050505050565b3360009081526004602052604090205460ff16610b565760405160e560020a62461bcd0281526004016103af90612781565b816002548114610b7b5760405160e560020a62461bcd0281526004016103af906127de565b600160a060020a03841660009081526004602052604090205460ff1615610be75760405160e560020a62461bcd02815260206004820152601660248201527f536f6c6469657220616c7265616479206163746976650000000000000000000060448201526064016103af565b610c09610bf48585611944565b60008581526006602052604090208490611982565b600160a060020a0384166000908152600460205260408120805460ff19166001908117909155805491610c3b83612766565b9091555050604051600160a060020a03851681527f45df561f3a6211cd36a659f28ca50d2c48d04968cdd47fe32229f9ff2c476bd1906020015b60405180910390a160028054906000610c8d83612766565b919050555050505050565b3360009081526004602052604090205460ff16610cca5760405160e560020a62461bcd0281526004016103af90612781565b816002548114610cef5760405160e560020a62461bcd0281526004016103af906127de565b60035460015460ff90911610610d4a5760405160e560020a62461bcd02815260206004820152601360248201527f4e6f7420656e6f75676820736f6c64696572730000000000000000000000000060448201526064016103af565b600160a060020a03841660009081526004602052604090205460ff16610db55760405160e560020a62461bcd02815260206004820152600d60248201527f4e6f74206120736f6c696465720000000000000000000000000000000000000060448201526064016103af565b610dc2610bf48585611944565b600160a060020a0384166000908152600460205260408120805460ff191690556001805491610df083612815565b9091555050604051600160a060020a03851681527fa3b8d9f0a704aed051810dffe58189fcc83f68b00d2c06cd86220c18b5d288c690602001610c75565b3360009081526004602052604090205460ff16610e605760405160e560020a62461bcd0281526004016103af90612781565b816002548114610e855760405160e560020a62461bcd0281526004016103af906127de565b600160a060020a03841660009081526005602052604090205460ff16610ef05760405160e560020a62461bcd02815260206004820152601860248201527f546f6b656e20616c7265616479206e6f7420616374697665000000000000000060448201526064016103af565b610efd610bf48585611944565b600160a060020a038416600081815260056020908152604091829020805460ff1916905590519182527f48207b8b88ad0363606ff7f381bc9ee60bb9b614b5dccd985ae4cb02af0f77c39101610c75565b3360009081526004602052604090205460ff16610f805760405160e560020a62461bcd0281526004016103af90612781565b816002548114610fa55760405160e560020a62461bcd0281526004016103af906127de565b610fb2610bf48585611944565b610fbb84611b26565b60028054906000610c8d83612766565b6000808460600151856040015186600001518760200151604051602001610ff5949392919061282c565b60408051601f198184030181528282528051602091820120606088015192880151885189840151600160a060020a039586166c0100000000000000000000000090810295880195909552603487019290925263ffffffff1660e060020a026054860152929092160260588301529150600090606c0160408051601f1981840301815290829052805160209182012092506110fd9161109d918b918b91879187918b9101612879565b60408051601f1981840301815282825280516020918201207f19457468657265756d205369676e6564204d6573736167653a0a33320000000084830152603c8085019190915282518085039091018152605c909301909152815191012090565b98975050505050505050565b3360009081526004602052604090205460ff1661113b5760405160e560020a62461bcd0281526004016103af90612781565b8160025481146111605760405160e560020a62461bcd0281526004016103af906127de565b61116d610bf48585611b66565b6003805460ff191660ff86169081179091556040519081527f1d35c1363b251f7865b1b369641e54ec5729c78010282069b20f2fb0af8621ee90602001610c75565b6000805460ff16156111d65760405160e560020a62461bcd0281526004016103af90612456565b6032825111156111fb5760405160e560020a62461bcd0281526004016103af9061248d565b600061120786866125bc565b341415611213576113d0565b84341480156112225750600086115b80156112365750600160a060020a03871615155b1561134857600160a060020a03871660009081526005602052604090205460ff166112cc5760405160e560020a62461bcd02815260206004820152602a60248201527f547279696e6720746f20706179206665652077697468206e6f6e20657869737460448201527f656e7420746f6b656e2e0000000000000000000000000000000000000000000060648201526084016103af565b60405160e060020a6323b872dd028152600160a060020a038816906323b872dd906112ff90339030908b90600401612547565b6020604051808303816000875af115801561131e573d6000803e3d6000fd5b505050506040513d601f19601f82011682018060405250810190611342919061256b565b506113d0565b8434148015611355575085155b1561135f576113d0565b60405160e560020a62461bcd02815260206004820152602d60248201527f54686572652077617320612070726f626c656d20696e2074686520666565206960448201527f667320636f6e646974696f6e730000000000000000000000000000000000000060648201526084016103af565b6040805160808101825260085463ffffffff168152600160a060020a038316602082015280820187905233606082015290517f9ee6a3a299d72fe4453ced2f6d176851e8650224eb8247a26e96a655e940edb79161074d918a918a918990899042906126b8565b3360009081526004602052604090205460ff166114695760405160e560020a62461bcd0281526004016103af90612781565b81600254811461148e5760405160e560020a62461bcd0281526004016103af906127de565b600160a060020a03841660009081526005602052604090205460ff16156114fa5760405160e560020a62461bcd02815260206004820152601460248201527f546f6b656e20616c72656164792061637469766500000000000000000000000060448201526064016103af565b611507610bf48585611944565b600160a060020a038416600081815260056020908152604091829020805460ff1916600117905590519182527f5a2cd987faef4fe5343b92ff6b73ef7a6e5ffefa48ef8559a9c99fbe55ebca8f9101610c75565b6000805460ff16156115825760405160e560020a62461bcd0281526004016103af90612456565b602080850151600160a060020a031660009081526005909152604090205460ff166116185760405160e560020a62461bcd02815260206004820152602560248201527f547279696e6720746f2072656c65617365206e6f6e206578697374656e74207460448201527f6f6b656e2e00000000000000000000000000000000000000000000000000000060648201526084016103af565b8667ffffffffffffffff16431061169a5760405160e560020a62461bcd02815260206004820152603260248201527f5472616e73616374696f6e206d7573742062652072656c65617365642077697460448201527f68696e20646566696e656420706572696f64000000000000000000000000000060648201526084016103af565b600854845163ffffffff9081169116146117455760405160e560020a62461bcd02815260206004820152604b60248201527f44657374696e6174696f6e20436861696e204964206e6f7420657175616c207460448201527f6f2074686520426c6f636b636861696e20686f7374696e67207468697320667560648201527f6e6374696f6e2063616c6c000000000000000000000000000000000000000000608482015260a4016103af565b845163ffffffff1660009081526007602052604080822090516117699089906128e9565b908152604051908190036020019020805490915060ff161515600114156117d55760405160e560020a62461bcd02815260206004820181905260248201527f5472616e73616374696f6e20494420616c72656164792070726f63657373656460448201526064016103af565b805460ff1916600117815560006117ef8989898989610fcb565b90506117ff818584600101611982565b6020860151600160a060020a0316611858578560600151600160a060020a03166108fc87604001519081150290604051600060405180830381858888f19350505050158015611852573d6000803e3d6000fd5b506118f6565b6020860151606087015160408089015190517fa9059cbb000000000000000000000000000000000000000000000000000000008152600160a060020a039283166004820152602481019190915291169063a9059cbb906044016020604051808303816000875af11580156118d0573d6000803e3d6000fd5b505050506040513d601f19601f820116820180604052508101906118f4919061256b565b505b7f458f68139cfa07bb172a72eae8c1877b3b805bd88454b8dffaca7614387e1841888888884260405161192d959493929190612905565b60405180910390a150600198975050505050505050565b6040516c01000000000000000000000000600160a060020a0384160260208201526034810182905260009061197b9060540161109d565b9392505050565b600354825160ff90911611156119dd5760405160e560020a62461bcd02815260206004820152601560248201527f4e6f7420656e6f756768207369676e617475726573000000000000000000000060448201526064016103af565b60005b60035460ff16811015611b20576000611a1285858481518110611a0557611a05612717565b6020026020010151611baa565b600160a060020a03811660009081526004602052604090205490915060ff16611a805760405160e560020a62461bcd02815260206004820152601160248201527f496e76616c6964207369676e617475726500000000000000000000000000000060448201526064016103af565b600160a060020a03811660009081526020849052604090205460ff1615611aec5760405160e560020a62461bcd02815260206004820152601460248201527f4475706c696361746564207369676e617475726500000000000000000000000060448201526064016103af565b600160a060020a03166000908152602083905260409020805460ff1916600117905580611b1881612766565b9150506119e0565b50505050565b611b2f81611c29565b604051600160a060020a038216907fbc7cd75a20ee27fd9adebab32041f755214dbc6bffa90cc0225b39da2e5c2d3b90600090a250565b6040517f010000000000000000000000000000000000000000000000000000000000000060ff84160260208201526021810182905260009061197b9060410161109d565b600080600080611bb985611cee565b6040805160008152602081018083528b905260ff8516918101919091526060810183905260808101829052929550909350915060019060a0016020604051602081039080840390855afa158015611c14573d6000803e3d6000fd5b5050604051601f190151979650505050505050565b803b611ca05760405160e560020a62461bcd02815260206004820152602d60248201527f455243313936373a206e657720696d706c656d656e746174696f6e206973206e60448201527f6f74206120636f6e74726163740000000000000000000000000000000000000060648201526084016103af565b7f360894a13ba1a3210667c828492db98dca3e2076cc3735a920a3ca505d382bbc805473ffffffffffffffffffffffffffffffffffffffff1916600160a060020a0392909216919091179055565b60008060008351604114611d0157600080fd5b5050506020810151604082015160609092015160001a92909190565b8035600160a060020a0381168114611d3457600080fd5b919050565b600060208284031215611d4b57600080fd5b61197b82611d1d565b7f4e487b7100000000000000000000000000000000000000000000000000000000600052604160045260246000fd5b6040516080810167ffffffffffffffff81118282101715611da657611da6611d54565b60405290565b604051601f8201601f1916810167ffffffffffffffff81118282101715611dd557611dd5611d54565b604052919050565b803563ffffffff81168114611d3457600080fd5b600067ffffffffffffffff831115611e0b57611e0b611d54565b611e1e601f8401601f1916602001611dac565b9050828152838383011115611e3257600080fd5b828260208301376000602084830101529392505050565b600082601f830112611e5a57600080fd5b61197b83833560208501611df1565b600060808284031215611e7b57600080fd5b611e83611d83565b9050611e8e82611ddd565b8152602082013567ffffffffffffffff80821115611eab57600080fd5b611eb785838601611e49565b6020840152604084013560408401526060840135915080821115611eda57600080fd5b50611ee784828501611e49565b60608301525092915050565b60008060008060008060c08789031215611f0c57600080fd5b611f1587611d1d565b955060208701359450611f2a60408801611d1d565b935060608701359250608087013567ffffffffffffffff80821115611f4e57600080fd5b611f5a8a838b01611e69565b935060a0890135915080821115611f7057600080fd5b50611f7d89828a01611e49565b9150509295509295509295565b600067ffffffffffffffff821115611fa457611fa4611d54565b5060209081020190565b600082601f830112611fbf57600080fd5b81356020611fd4611fcf83611f8a565b611dac565b82815291810284018101918181019086841115611ff057600080fd5b8286015b848110156120125761200581611d1d565b8352918301918301611ff4565b509695505050505050565b803560ff81168114611d3457600080fd5b6000806000806080858703121561204457600080fd5b843567ffffffffffffffff8082111561205c57600080fd5b61206888838901611fae565b9550602087013591508082111561207e57600080fd5b5061208b87828801611fae565b93505061209a6040860161201d565b91506120a860608601611ddd565b905092959194509250565b600082601f8301126120c457600080fd5b813560206120d4611fcf83611f8a565b828152918102840181019181810190868411156120f057600080fd5b8286015b8481101561201257803567ffffffffffffffff8111156121145760008081fd5b8701603f810189136121265760008081fd5b612137898683013560408401611df1565b8452509183019183016120f4565b60008060006060848603121561215a57600080fd5b61216384611d1d565b925060208401359150604084013567ffffffffffffffff81111561218657600080fd5b612192868287016120b3565b9150509250925092565b600080604083850312156121af57600080fd5b6121b883611ddd565b9150602083013567ffffffffffffffff8111156121d457600080fd5b6121e085828601611e49565b9150509250929050565b803567ffffffffffffffff81168114611d3457600080fd5b60006080828403121561221457600080fd5b61221c611d83565b905061222782611ddd565b815261223560208301611d1d565b60208201526040820135604082015261225060608301611d1d565b606082015292915050565b6000806000806000610100868803121561227457600080fd5b61227d866121ea565b9450602086013567ffffffffffffffff8082111561229a57600080fd5b6122a689838a01611e49565b955060408801359150808211156122bc57600080fd5b6122c889838a01611e69565b94506122d78960608a01612202565b935060e08801359150808211156122ed57600080fd5b506122fa88828901611e49565b9150509295509295909350565b60008060006060848603121561231c57600080fd5b6121638461201d565b600080600080600060a0868803121561233d57600080fd5b61234686611d1d565b94506020860135935060408601359250606086013567ffffffffffffffff8082111561237157600080fd5b61237d89838a01611e69565b935060808801359150808211156122ed57600080fd5b60008060008060008061012087890312156123ad57600080fd5b6123b6876121ea565b9550602087013567ffffffffffffffff808211156123d357600080fd5b6123df8a838b01611e49565b965060408901359150808211156123f557600080fd5b6124018a838b01611e69565b95506124108a60608b01612202565b945060e089013591508082111561242657600080fd5b6124328a838b01611e49565b935061010089013591508082111561244957600080fd5b50611f7d89828a016120b3565b60208082526010908201527f5061757361626c653a2070617573656400000000000000000000000000000000604082015260600190565b60208082526022908201527f4e6f7465206d7573742062652073686f72746572207468616e2035302062797460408201527f6573000000000000000000000000000000000000000000000000000000000000606082015260800190565b60208082526024908201527f547279696e6720746f20627269646765206e6f6e206578697374656e7420746f60408201527f6b656e2e00000000000000000000000000000000000000000000000000000000606082015260800190565b600160a060020a039384168152919092166020820152604081019190915260600190565b60006020828403121561257d57600080fd5b8151801515811461197b57600080fd5b7f4e487b7100000000000000000000000000000000000000000000000000000000600052601160045260246000fd5b600082198211156125cf576125cf61258d565b500190565b63ffffffff81511682526020810151600160a060020a0380821660208501526040830151604085015280606084015116606085015250505050565b60005b8381101561262a578181015183820152602001612612565b83811115611b205750506000910152565b6000815180845261265381602086016020860161260f565b601f01601f19169290920160200192915050565b63ffffffff8151168252600060208201516080602085015261268c608085018261263b565b905060408301516040850152606083015184820360608601526126af828261263b565b95945050505050565b6000610120600160a060020a03891683528760208401526126dc60408401886125d4565b8060c08401526126ee81840187612667565b905082810360e0840152612702818661263b565b91505082610100830152979650505050505050565b7f4e487b7100000000000000000000000000000000000000000000000000000000600052603260045260246000fd5b600060ff821660ff81141561275d5761275d61258d565b60010192915050565b600060001982141561277a5761277a61258d565b5060010190565b60208082526021908201527f63616c6c6572206973206e6f74206f6e65206f662074686520736f6c6469657260408201527f7300000000000000000000000000000000000000000000000000000000000000606082015260800190565b6020808252600d908201527f496e76616c6964206e6f6e636500000000000000000000000000000000000000604082015260600190565b6000816128245761282461258d565b506000190190565b6000855161283e818460208a0161260f565b808301905085815260e060020a63ffffffff8616026020820152835161286b81602484016020880161260f565b016024019695505050505050565b780100000000000000000000000000000000000000000000000067ffffffffffffffff8716028152600085516128b6816008850160208a0161260f565b808301905085600882015284602882015283516128da81604884016020880161260f565b01604801979650505050505050565b600082516128fb81846020870161260f565b9190910192915050565b60006101008083526129198184018961263b565b9050828103602084015261292d8188612667565b905061293c60408401876125d4565b82810360c084015261294e818661263b565b9150508260e0830152969550505050505056fea26469706673582212209d0a8a0a20eedfe9307b7c6c23ef99a0f3d5fc4e10ef8b22828655b36d89e8a264736f6c634300080a0033",
  "immutableReferences": {},
  "source": "// SPDX-License-Identifier: MIT\npragma solidity ^0.8.0;\n\nimport \"@openzeppelin/contracts/security/Pausable.sol\";\nimport \"@openzeppelin/contracts/token/ERC20/IERC20.sol\";\nimport \"./BridgeGovernance.sol\";\n\ncontract Bridge is Pausable, BridgeGovernance {\n    // solves too many arguments error\n    struct EthChainInfo {\n        uint32 chainId;\n        address tokenId;\n        uint256 amount;\n        address addressId;\n    }\n\n    struct ExternalChainInfo {\n        uint32 chainId;\n        string tokenId;\n        uint256 amount;\n        string addressId;\n    }\n    // Events to monitor the bridge.\n    // This event is emitted when user wants to lock existing ERC20 token to a foreign chain.\n    // Tokens will be locked into the bridge smart contract.\n    event Lock(\n        address feeTokenAddr,\n        uint256 feeAmount,\n        EthChainInfo sourceChainData,\n        ExternalChainInfo destinationChainData,\n        string note,\n        uint256 timestamp\n    );\n    // This event is emitted when a user successfully bridged tokens on this chain.\n    event BridgeSuccess(\n        string sourceTransactionId,\n        ExternalChainInfo sourceChainData,\n        EthChainInfo destinationChainData,\n        string note,\n        uint256 timestamp\n    );\n\n    /**\n     * @dev This function is called to release tokens that were previously locked in this smart contract.\n     * This is the function called in the case of a bridge request with this chain as destination.\n     */\n    function releaseTokens(\n        uint64 maxReleaseRound,\n        string memory sourceTransactionId,\n        ExternalChainInfo memory sourceChainData,\n        EthChainInfo memory destinationChainData,\n        string memory note,\n        bytes[] memory signatures\n    ) public whenNotPaused returns (bool) {\n        require(\n            tokens[destinationChainData.tokenId],\n            \"Trying to release non existent token.\"\n        );\n        require(\n            block.number < maxReleaseRound,\n            \"Transaction must be released within defined period\"\n        );\n        require(\n            destinationChainData.chainId == thisChainId,\n            \"Destination Chain Id not equal to the Blockchain hosting this function call\"\n        );\n        // Check that this transaction has never been processed before.\n        Transaction storage transaction = transactions[sourceChainData.chainId][\n            sourceTransactionId\n        ];\n        require(\n            transaction.processed != true,\n            \"Transaction ID already processed\"\n        );\n        transaction.processed = true;\n\n        // Reconstruct the hash that the soldiers signed using the function parameters.\n        bytes32 reconstructedHash = reconstructMessageHash(\n            maxReleaseRound,\n            sourceTransactionId,\n            sourceChainData,\n            destinationChainData,\n            note\n        );\n        validateSignatures(reconstructedHash, signatures, transaction.signers);\n\n        if (destinationChainData.tokenId == address(0)) {\n            payable(destinationChainData.addressId).transfer(\n                destinationChainData.amount\n            );\n        } else {\n            IERC20(destinationChainData.tokenId).transfer(\n                destinationChainData.addressId,\n                destinationChainData.amount\n            );\n        }\n\n        emit BridgeSuccess(\n            sourceTransactionId,\n            sourceChainData,\n            destinationChainData,\n            note,\n            block.timestamp\n        );\n        return true;\n    }\n\n    /**\n     * @dev This function lock tokens inside the bridge smart contract. This is used for bridge/swap requests originated on this chain and with destination chain represented by destinationChain.\n     */\n    function lockTokens(\n        address feeTokenAddr, // token to pay fee\n        uint256 feeAmount, // fee amount to be locked\n        address rootTokenAddr, // token at this network\n        uint256 rootAmount, // amount to be locked at this network\n        ExternalChainInfo memory destinationChainData,\n        string memory note\n    ) public payable whenNotPaused returns (bool) {\n        require(bytes(note).length <= 50, \"Note must be shorter than 50 bytes\");\n        require(tokens[rootTokenAddr], \"Trying to bridge non existent token.\");\n\n        // Four cases:\n        // 1 - Token used to pay fee is different from token to bridge && fee > 0\n        if (\n            rootTokenAddr != feeTokenAddr &&\n            feeAmount > 0 &&\n            feeTokenAddr != address(0)\n        ) {\n            require(\n                tokens[feeTokenAddr],\n                \"Trying to bridge non existent token.\"\n            );\n            IERC20(feeTokenAddr).transferFrom(\n                msg.sender,\n                address(this),\n                feeAmount\n            );\n            IERC20(rootTokenAddr).transferFrom(\n                msg.sender,\n                address(this),\n                rootAmount\n            );\n        } else if (rootTokenAddr == feeTokenAddr && feeAmount > 0) {\n            // 2 - Token used to pay fee is the same as token to bridge && fee > 0\n            IERC20(rootTokenAddr).transferFrom(\n                msg.sender,\n                address(this),\n                rootAmount + feeAmount\n            );\n        } else if (\n            msg.value == feeAmount &&\n            feeTokenAddr == address(0) &&\n            msg.value > 0\n        ) {\n            // 3 - Fee is paid in native currency (e.g. eth or matic)\n            IERC20(rootTokenAddr).transferFrom(\n                msg.sender,\n                address(this),\n                rootAmount\n            );\n        } else if (feeAmount == 0) {\n            // 4 - Fee is 0. Will be paid on destination network or denied by soldier network\n            IERC20(rootTokenAddr).transferFrom(\n                msg.sender,\n                address(this),\n                rootAmount\n            );\n        } else {\n            require(\n                false,\n                \"Problem occurred while trying to select a transfer case\"\n            );\n        }\n\n        // Lock event accounts with rootChainId = thisChainId.\n        emit Lock(\n            feeTokenAddr,\n            feeAmount,\n            EthChainInfo(thisChainId, rootTokenAddr, rootAmount, msg.sender),\n            destinationChainData,\n            note,\n            block.timestamp\n        );\n        return true;\n    }\n\n    /**\n     * @dev This function lock native eth (or native chain token) inside the bridge smart contract.\n     */\n    function lockNativeCurrency(\n        address feeTokenAddr, // token to pay fee\n        uint256 feeAmount, // fee amount to be locked\n        uint256 rootAmount, // amount to be locked at this network\n        ExternalChainInfo memory destinationChainData,\n        string memory note\n    ) public payable whenNotPaused returns (bool) {\n        require(bytes(note).length <= 50, \"Note must be shorter than 50 bytes\");\n        address fakeTokenAddrForNativeCurrency = address(0);\n        // Three cases:\n        if (msg.value == rootAmount + feeAmount) {\n            // 1 - User pays in native currency the fee.\n        } else if (\n            msg.value == rootAmount &&\n            feeAmount > 0 &&\n            feeTokenAddr != address(0)\n        ) {\n            // 2 - Token used to pay fee is a different token\n            require(\n                tokens[feeTokenAddr],\n                \"Trying to pay fee with non existent token.\"\n            );\n            IERC20(feeTokenAddr).transferFrom(\n                msg.sender,\n                address(this),\n                feeAmount\n            );\n        } else if (msg.value == rootAmount && feeAmount == 0) {\n            // 3 - Fee is 0. Will be paid on destination network or denied by soldier network\n        } else {\n            require(false, \"There was a problem in the fee ifs conditions\");\n        }\n\n        // Lock event accounts with rootChainId = thisChainId.\n        emit Lock(\n            feeTokenAddr,\n            feeAmount,\n            EthChainInfo(\n                thisChainId,\n                fakeTokenAddrForNativeCurrency,\n                rootAmount,\n                msg.sender\n            ),\n            destinationChainData,\n            note,\n            block.timestamp\n        );\n        return true;\n    }\n\n    /**\n     * @dev Used to deposit money directly inside the bridge.\n     */\n    function deposit() public payable {}\n\n    /**\n     * @dev used to reconstruct a hash digest starting from some parameters.\n     */\n    function reconstructMessageHash(\n        uint64 maxReleaseRound,\n        string memory sourceTransactionId,\n        ExternalChainInfo memory sourceChainData,\n        EthChainInfo memory destinationChainData,\n        string memory note\n    ) public pure returns (bytes32) {\n        uint256 sourceHash = uint256(\n            keccak256(\n                abi.encodePacked(\n                    sourceChainData.addressId,\n                    sourceChainData.amount,\n                    sourceChainData.chainId,\n                    sourceChainData.tokenId\n                )\n            )\n        );\n        uint256 destinationHash = uint256(\n            keccak256(\n                abi.encodePacked(\n                    destinationChainData.addressId,\n                    destinationChainData.amount,\n                    destinationChainData.chainId,\n                    destinationChainData.tokenId\n                )\n            )\n        );\n        return\n            prefixed(\n                keccak256(\n                    abi.encodePacked(\n                        maxReleaseRound,\n                        sourceTransactionId,\n                        sourceHash,\n                        destinationHash,\n                        note\n                    )\n                )\n            );\n    }\n}\n",
  "sourcePath": "/home/cicd/contract/bridge-ethereum-assets-beta/contracts/Bridge.sol",
  "compiler": {
    "name": "solc",
    "version": "0.8.10+commit.fc410830.Emscripten.clang"
  },
  "schemaVersion": "3.4.4",
  "updatedAt": "2022-06-05T05:19:10.752Z",
  "networkType": "ethereum",
  "devdoc": {
    "kind": "dev",
    "methods": {
      "deposit()": {
        "details": "Used to deposit money directly inside the bridge."
      },
      "lockNativeCurrency(address,uint256,uint256,(uint32,string,uint256,string),string)": {
        "details": "This function lock native eth (or native chain token) inside the bridge smart contract."
      },
      "lockTokens(address,uint256,address,uint256,(uint32,string,uint256,string),string)": {
        "details": "This function lock tokens inside the bridge smart contract. This is used for bridge/swap requests originated on this chain and with destination chain represented by destinationChain."
      },
      "paused()": {
        "details": "Returns true if the contract is paused, and false otherwise."
      },
      "reconstructMessageHash(uint64,string,(uint32,string,uint256,string),(uint32,address,uint256,address),string)": {
        "details": "used to reconstruct a hash digest starting from some parameters."
      },
      "releaseTokens(uint64,string,(uint32,string,uint256,string),(uint32,address,uint256,address),string,bytes[])": {
        "details": "This function is called to release tokens that were previously locked in this smart contract. This is the function called in the case of a bridge request with this chain as destination."
      }
    },
    "version": 1
  },
  "userdoc": {
    "kind": "user",
    "methods": {},
    "version": 1
  }
}