{
  "contractName": "BridgeState",
  "abi": [
    {
      "inputs": [
        {
          "internalType": "address",
          "name": "",
          "type": "address"
        }
      ],
      "name": "soldiers",
      "outputs": [
        {
          "internalType": "bool",
          "name": "",
          "type": "bool"
        }
      ],
      "stateMutability": "view",
      "type": "function"
    },
    {
      "inputs": [],
      "name": "thisChainId",
      "outputs": [
        {
          "internalType": "uint32",
          "name": "",
          "type": "uint32"
        }
      ],
      "stateMutability": "view",
      "type": "function"
    },
    {
      "inputs": [
        {
          "internalType": "address",
          "name": "",
          "type": "address"
        }
      ],
      "name": "tokens",
      "outputs": [
        {
          "internalType": "bool",
          "name": "",
          "type": "bool"
        }
      ],
      "stateMutability": "view",
      "type": "function"
    },
    {
      "inputs": [
        {
          "internalType": "uint32",
          "name": "",
          "type": "uint32"
        },
        {
          "internalType": "string",
          "name": "",
          "type": "string"
        }
      ],
      "name": "transactions",
      "outputs": [
        {
          "internalType": "bool",
          "name": "processed",
          "type": "bool"
        }
      ],
      "stateMutability": "view",
      "type": "function"
    }
  ],
  "bytecode": "0x6080604052600060015534801561001557600080fd5b5061029b806100256000396000f3fe608060405234801561001057600080fd5b5060043610610068577c01000000000000000000000000000000000000000000000000000000006000350463071743ed811461006d5780637a8a0067146100a5578063e3d29c5d146100e4578063e486033914610109575b600080fd5b61009061007b36600461012c565b60036020526000908152604090205460ff1681565b60405190151581526020015b60405180910390f35b6100906100b3366004610198565b6006602090815260009283526040909220815180830184018051928152908401929093019190912091525460ff1681565b6007546100f49063ffffffff1681565b60405163ffffffff909116815260200161009c565b61009061011736600461012c565b60046020526000908152604090205460ff1681565b60006020828403121561013e57600080fd5b813573ffffffffffffffffffffffffffffffffffffffff8116811461016257600080fd5b9392505050565b7f4e487b7100000000000000000000000000000000000000000000000000000000600052604160045260246000fd5b600080604083850312156101ab57600080fd5b823563ffffffff811681146101bf57600080fd5b9150602083013567ffffffffffffffff808211156101dc57600080fd5b818501915085601f8301126101f057600080fd5b81358181111561020257610202610169565b604051601f8201601f19908116603f0116810190838211818310171561022a5761022a610169565b8160405282815288602084870101111561024357600080fd5b826020860160208301376000602084830101528095505050505050925092905056fea2646970667358221220bc54338ee67db6c9b302e62777f21b7bf5a249eb34db2aa461fa9d1e1db99b8664736f6c634300080a0033",
  "immutableReferences": {},
  "source": "// SPDX-License-Identifier: MIT\npragma solidity ^0.8.0;\n\ncontract BridgeState {\n    struct Transaction {\n        bool processed;\n        mapping(address => bool) signers;\n    }\n\n    uint256 internal soldierCount;\n    uint256 internal nonce = 0;\n    uint8 internal signaturesThreshold;\n\n    mapping(address => bool) public soldiers;\n    mapping(address => bool) public tokens;\n    // this mapping is used for signature deduplication per nonce\n    mapping(uint256 => mapping(address => bool)) internal signers;\n\n    // mapping of processed root chain transactions by root chain ID and txn hash.\n    // follows official EVM Chain Id Standards\n    mapping(uint32 => mapping(string => Transaction)) public transactions;\n    uint32 public thisChainId;\n}\n",
  "sourcePath": "/home/cicd/contract/bridge-ethereum-assets-beta/contracts/BridgeState.sol",
  "compiler": {
    "name": "solc",
    "version": "0.8.10+commit.fc410830.Emscripten.clang"
  },
  "schemaVersion": "3.4.4",
  "updatedAt": "2022-06-04T19:46:53.563Z",
  "devdoc": {
    "kind": "dev",
    "methods": {},
    "version": 1
  },
  "userdoc": {
    "kind": "user",
    "methods": {},
    "version": 1
  }
}