{
  "contractName": "WrappedAssetToken",
  "abi": [
    {
      "inputs": [
        {
          "internalType": "string",
          "name": "name",
          "type": "string"
        },
        {
          "internalType": "string",
          "name": "symbol",
          "type": "string"
        },
        {
          "internalType": "address",
          "name": "_bridgeContract",
          "type": "address"
        },
        {
          "internalType": "uint8",
          "name": "_chosenDecimals",
          "type": "uint8"
        }
      ],
      "stateMutability": "nonpayable",
      "type": "constructor"
    },
    {
      "anonymous": false,
      "inputs": [
        {
          "indexed": true,
          "internalType": "address",
          "name": "owner",
          "type": "address"
        },
        {
          "indexed": true,
          "internalType": "address",
          "name": "spender",
          "type": "address"
        },
        {
          "indexed": false,
          "internalType": "uint256",
          "name": "value",
          "type": "uint256"
        }
      ],
      "name": "Approval",
      "type": "event"
    },
    {
      "anonymous": false,
      "inputs": [
        {
          "indexed": true,
          "internalType": "address",
          "name": "from",
          "type": "address"
        },
        {
          "indexed": true,
          "internalType": "address",
          "name": "to",
          "type": "address"
        },
        {
          "indexed": false,
          "internalType": "uint256",
          "name": "value",
          "type": "uint256"
        }
      ],
      "name": "Transfer",
      "type": "event"
    },
    {
      "inputs": [
        {
          "internalType": "address",
          "name": "owner",
          "type": "address"
        },
        {
          "internalType": "address",
          "name": "spender",
          "type": "address"
        }
      ],
      "name": "allowance",
      "outputs": [
        {
          "internalType": "uint256",
          "name": "",
          "type": "uint256"
        }
      ],
      "stateMutability": "view",
      "type": "function",
      "constant": true
    },
    {
      "inputs": [
        {
          "internalType": "address",
          "name": "spender",
          "type": "address"
        },
        {
          "internalType": "uint256",
          "name": "amount",
          "type": "uint256"
        }
      ],
      "name": "approve",
      "outputs": [
        {
          "internalType": "bool",
          "name": "",
          "type": "bool"
        }
      ],
      "stateMutability": "nonpayable",
      "type": "function"
    },
    {
      "inputs": [
        {
          "internalType": "address",
          "name": "account",
          "type": "address"
        }
      ],
      "name": "balanceOf",
      "outputs": [
        {
          "internalType": "uint256",
          "name": "",
          "type": "uint256"
        }
      ],
      "stateMutability": "view",
      "type": "function",
      "constant": true
    },
    {
      "inputs": [],
      "name": "bridgeContract",
      "outputs": [
        {
          "internalType": "address",
          "name": "",
          "type": "address"
        }
      ],
      "stateMutability": "view",
      "type": "function",
      "constant": true
    },
    {
      "inputs": [
        {
          "internalType": "address",
          "name": "spender",
          "type": "address"
        },
        {
          "internalType": "uint256",
          "name": "subtractedValue",
          "type": "uint256"
        }
      ],
      "name": "decreaseAllowance",
      "outputs": [
        {
          "internalType": "bool",
          "name": "",
          "type": "bool"
        }
      ],
      "stateMutability": "nonpayable",
      "type": "function"
    },
    {
      "inputs": [
        {
          "internalType": "address",
          "name": "spender",
          "type": "address"
        },
        {
          "internalType": "uint256",
          "name": "addedValue",
          "type": "uint256"
        }
      ],
      "name": "increaseAllowance",
      "outputs": [
        {
          "internalType": "bool",
          "name": "",
          "type": "bool"
        }
      ],
      "stateMutability": "nonpayable",
      "type": "function"
    },
    {
      "inputs": [],
      "name": "name",
      "outputs": [
        {
          "internalType": "string",
          "name": "",
          "type": "string"
        }
      ],
      "stateMutability": "view",
      "type": "function",
      "constant": true
    },
    {
      "inputs": [],
      "name": "symbol",
      "outputs": [
        {
          "internalType": "string",
          "name": "",
          "type": "string"
        }
      ],
      "stateMutability": "view",
      "type": "function",
      "constant": true
    },
    {
      "inputs": [],
      "name": "totalSupply",
      "outputs": [
        {
          "internalType": "uint256",
          "name": "",
          "type": "uint256"
        }
      ],
      "stateMutability": "view",
      "type": "function",
      "constant": true
    },
    {
      "inputs": [
        {
          "internalType": "address",
          "name": "recipient",
          "type": "address"
        },
        {
          "internalType": "uint256",
          "name": "amount",
          "type": "uint256"
        }
      ],
      "name": "transfer",
      "outputs": [
        {
          "internalType": "bool",
          "name": "",
          "type": "bool"
        }
      ],
      "stateMutability": "nonpayable",
      "type": "function"
    },
    {
      "inputs": [
        {
          "internalType": "address",
          "name": "sender",
          "type": "address"
        },
        {
          "internalType": "address",
          "name": "recipient",
          "type": "address"
        },
        {
          "internalType": "uint256",
          "name": "amount",
          "type": "uint256"
        }
      ],
      "name": "transferFrom",
      "outputs": [
        {
          "internalType": "bool",
          "name": "",
          "type": "bool"
        }
      ],
      "stateMutability": "nonpayable",
      "type": "function"
    },
    {
      "inputs": [],
      "name": "decimals",
      "outputs": [
        {
          "internalType": "uint8",
          "name": "",
          "type": "uint8"
        }
      ],
      "stateMutability": "view",
      "type": "function",
      "constant": true
    }
  ],
  "bytecode": "0x60806040523480156200001157600080fd5b5060405162000ed938038062000ed983398101604081905262000034916200037a565b8351849084906200004d906003906020850190620001ee565b50805162000063906004906020840190620001ee565b50506005805460ff8416600160a860020a031990911617610100600160a060020a03868116820292909217928390556000199350620000ae92041682640100000000620000b9810204565b5050505050620004b6565b600160a060020a0382166200012e576040517f08c379a000000000000000000000000000000000000000000000000000000000815260206004820152601f60248201527f45524332303a206d696e7420746f20746865207a65726f206164647265737300604482015260640160405180910390fd5b6200014560008383640100000000620001e9810204565b806002600082825462000159919062000420565b9091555050600160a060020a038216600090815260208190526040812080548392906200018890849062000420565b9091555050604051818152600160a060020a038316906000907fddf252ad1be2c89b69c2b068fc378daa952ba7f163c4a11628f55a4df523b3ef9060200160405180910390a3620001e560008383640100000000620001e9810204565b5050565b505050565b828054620001fc9062000460565b90600052602060002090601f0160209004810192826200022057600085556200026b565b82601f106200023b57805160ff19168380011785556200026b565b828001600101855582156200026b579182015b828111156200026b5782518255916020019190600101906200024e565b50620002799291506200027d565b5090565b5b808211156200027957600081556001016200027e565b7f4e487b7100000000000000000000000000000000000000000000000000000000600052604160045260246000fd5b600082601f830112620002d557600080fd5b81516001604060020a0380821115620002f257620002f262000294565b604051601f8301601f19908116603f011681019082821181831017156200031d576200031d62000294565b816040528381526020925086838588010111156200033a57600080fd5b600091505b838210156200035e57858201830151818301840152908201906200033f565b83821115620003705760008385830101525b9695505050505050565b600080600080608085870312156200039157600080fd5b84516001604060020a0380821115620003a957600080fd5b620003b788838901620002c3565b95506020870151915080821115620003ce57600080fd5b50620003dd87828801620002c3565b60408701519094509050600160a060020a0381168114620003fd57600080fd5b606086015190925060ff811681146200041557600080fd5b939692955090935050565b600082198211156200045b577f4e487b7100000000000000000000000000000000000000000000000000000000600052601160045260246000fd5b500190565b6002810460018216806200047557607f821691505b60208210811415620004b0577f4e487b7100000000000000000000000000000000000000000000000000000000600052602260045260246000fd5b50919050565b610a1380620004c66000396000f3fe608060405234801561001057600080fd5b50600436106100d1576000357c01000000000000000000000000000000000000000000000000000000009004806370a082311161008e57806370a082311461016457806395d89b411461018d578063a457c2d714610195578063a9059cbb146101a8578063cd596583146101bb578063dd62ed3e146101eb57600080fd5b806306fdde03146100d6578063095ea7b3146100f457806318160ddd1461011757806323b872dd14610129578063313ce5671461013c5780633950935114610151575b600080fd5b6100de610224565b6040516100eb919061081e565b60405180910390f35b61010761010236600461088f565b6102b6565b60405190151581526020016100eb565b6002545b6040519081526020016100eb565b6101076101373660046108b9565b6102cc565b60055460405160ff90911681526020016100eb565b61010761015f36600461088f565b610393565b61011b6101723660046108f5565b600160a060020a031660009081526020819052604090205490565b6100de6103cf565b6101076101a336600461088f565b6103de565b6101076101b636600461088f565b610492565b6005546101d3906101009004600160a060020a031681565b604051600160a060020a0390911681526020016100eb565b61011b6101f9366004610917565b600160a060020a03918216600090815260016020908152604080832093909416825291909152205490565b6060600380546102339061094a565b80601f016020809104026020016040519081016040528092919081815260200182805461025f9061094a565b80156102ac5780601f10610281576101008083540402835291602001916102ac565b820191906000526020600020905b81548152906001019060200180831161028f57829003601f168201915b5050505050905090565b60006102c333848461049f565b50600192915050565b60006102d98484846105fd565b600160a060020a03841660009081526001602090815260408083203384529091529020548281101561037b5760405160e560020a62461bcd02815260206004820152602860248201527f45524332303a207472616e7366657220616d6f756e742065786365656473206160448201527f6c6c6f77616e636500000000000000000000000000000000000000000000000060648201526084015b60405180910390fd5b610388853385840361049f565b506001949350505050565b336000818152600160209081526040808320600160a060020a038716845290915281205490916102c39185906103ca90869061099e565b61049f565b6060600480546102339061094a565b336000908152600160209081526040808320600160a060020a03861684529091528120548281101561047b5760405160e560020a62461bcd02815260206004820152602560248201527f45524332303a2064656372656173656420616c6c6f77616e63652062656c6f7760448201527f207a65726f0000000000000000000000000000000000000000000000000000006064820152608401610372565b610488338585840361049f565b5060019392505050565b60006102c33384846105fd565b600160a060020a03831661051d5760405160e560020a62461bcd028152602060048201526024808201527f45524332303a20617070726f76652066726f6d20746865207a65726f2061646460448201527f72657373000000000000000000000000000000000000000000000000000000006064820152608401610372565b600160a060020a03821661059c5760405160e560020a62461bcd02815260206004820152602260248201527f45524332303a20617070726f766520746f20746865207a65726f20616464726560448201527f73730000000000000000000000000000000000000000000000000000000000006064820152608401610372565b600160a060020a0383811660008181526001602090815260408083209487168084529482529182902085905590518481527f8c5be1e5ebec7d5bd14f71427d1e84f3dd0314c0f7b2291e5b200ac8c7c3b925910160405180910390a3505050565b600160a060020a03831661067c5760405160e560020a62461bcd02815260206004820152602560248201527f45524332303a207472616e736665722066726f6d20746865207a65726f20616460448201527f64726573730000000000000000000000000000000000000000000000000000006064820152608401610372565b600160a060020a0382166106fb5760405160e560020a62461bcd02815260206004820152602360248201527f45524332303a207472616e7366657220746f20746865207a65726f206164647260448201527f65737300000000000000000000000000000000000000000000000000000000006064820152608401610372565b600160a060020a0383166000908152602081905260409020548181101561078d5760405160e560020a62461bcd02815260206004820152602660248201527f45524332303a207472616e7366657220616d6f756e742065786365656473206260448201527f616c616e636500000000000000000000000000000000000000000000000000006064820152608401610372565b600160a060020a038085166000908152602081905260408082208585039055918516815290812080548492906107c490849061099e565b9250508190555082600160a060020a031684600160a060020a03167fddf252ad1be2c89b69c2b068fc378daa952ba7f163c4a11628f55a4df523b3ef8460405161081091815260200190565b60405180910390a350505050565b600060208083528351808285015260005b8181101561084b5785810183015185820160400152820161082f565b8181111561085d576000604083870101525b50601f01601f1916929092016040019392505050565b8035600160a060020a038116811461088a57600080fd5b919050565b600080604083850312156108a257600080fd5b6108ab83610873565b946020939093013593505050565b6000806000606084860312156108ce57600080fd5b6108d784610873565b92506108e560208501610873565b9150604084013590509250925092565b60006020828403121561090757600080fd5b61091082610873565b9392505050565b6000806040838503121561092a57600080fd5b61093383610873565b915061094160208401610873565b90509250929050565b60028104600182168061095e57607f821691505b60208210811415610998577f4e487b7100000000000000000000000000000000000000000000000000000000600052602260045260246000fd5b50919050565b600082198211156109d8577f4e487b7100000000000000000000000000000000000000000000000000000000600052601160045260246000fd5b50019056fea26469706673582212206985c45545dcdcd73126af55a8f0f3d0c19411ba359e3455ca9ba97d82b1a2b364736f6c634300080a0033",
  "immutableReferences": {},
  "source": "// SPDX-License-Identifier: MIT\npragma solidity ^0.8.0;\nimport \"@openzeppelin/contracts/token/ERC20/ERC20.sol\";\n\n/**\n * @title WrappedAssetToken\n * @dev An ERC20 Contract that is Ownable.\n */\ncontract WrappedAssetToken is ERC20 {\n    uint8 private _decimals;\n    address public bridgeContract;\n\n    constructor(\n        string memory name,\n        string memory symbol,\n        address _bridgeContract,\n        uint8 _chosenDecimals\n    ) ERC20(name, symbol) {\n        _decimals = _chosenDecimals;\n        bridgeContract = _bridgeContract;\n        uint256 supply = 2**256 - 1;\n        _mint(bridgeContract, supply);\n    }\n\n    /**\n     * @dev Returns the number of decimals used to get its user representation.\n     * For example, if `decimals` equals `2`, a balance of `505` tokens should\n     * be displayed to a user as `5.05` (`505 / 10 ** 2`).\n     *\n     * NOTE: This information is only used for _display_ purposes: it in\n     * no way affects any of the arithmetic of the contract, including\n     * {IERC20-balanceOf} and {IERC20-transfer}.\n     */\n    function decimals() public view virtual override returns (uint8) {\n        return _decimals;\n    }\n}\n",
  "sourcePath": "/home/cicd/contract/bridge-ethereum-assets-beta/contracts/WrappedAssetToken.sol",
  "compiler": {
    "name": "solc",
    "version": "0.8.10+commit.fc410830.Emscripten.clang"
  },
  "schemaVersion": "3.4.4",
  "updatedAt": "2022-06-05T05:26:16.580Z",
  "networkType": "ethereum",
  "devdoc": {
    "details": "An ERC20 Contract that is Ownable.",
    "kind": "dev",
    "methods": {
      "allowance(address,address)": {
        "details": "See {IERC20-allowance}."
      },
      "approve(address,uint256)": {
        "details": "See {IERC20-approve}. Requirements: - `spender` cannot be the zero address."
      },
      "balanceOf(address)": {
        "details": "See {IERC20-balanceOf}."
      },
      "decimals()": {
        "details": "Returns the number of decimals used to get its user representation. For example, if `decimals` equals `2`, a balance of `505` tokens should be displayed to a user as `5.05` (`505 / 10 ** 2`). NOTE: This information is only used for _display_ purposes: it in no way affects any of the arithmetic of the contract, including {IERC20-balanceOf} and {IERC20-transfer}."
      },
      "decreaseAllowance(address,uint256)": {
        "details": "Atomically decreases the allowance granted to `spender` by the caller. This is an alternative to {approve} that can be used as a mitigation for problems described in {IERC20-approve}. Emits an {Approval} event indicating the updated allowance. Requirements: - `spender` cannot be the zero address. - `spender` must have allowance for the caller of at least `subtractedValue`."
      },
      "increaseAllowance(address,uint256)": {
        "details": "Atomically increases the allowance granted to `spender` by the caller. This is an alternative to {approve} that can be used as a mitigation for problems described in {IERC20-approve}. Emits an {Approval} event indicating the updated allowance. Requirements: - `spender` cannot be the zero address."
      },
      "name()": {
        "details": "Returns the name of the token."
      },
      "symbol()": {
        "details": "Returns the symbol of the token, usually a shorter version of the name."
      },
      "totalSupply()": {
        "details": "See {IERC20-totalSupply}."
      },
      "transfer(address,uint256)": {
        "details": "See {IERC20-transfer}. Requirements: - `recipient` cannot be the zero address. - the caller must have a balance of at least `amount`."
      },
      "transferFrom(address,address,uint256)": {
        "details": "See {IERC20-transferFrom}. Emits an {Approval} event indicating the updated allowance. This is not required by the EIP. See the note at the beginning of {ERC20}. Requirements: - `sender` and `recipient` cannot be the zero address. - `sender` must have a balance of at least `amount`. - the caller must have allowance for ``sender``'s tokens of at least `amount`."
      }
    },
    "title": "WrappedAssetToken",
    "version": 1
  },
  "userdoc": {
    "kind": "user",
    "methods": {},
    "version": 1
  }
}