{
  "contractName": "BridgeGovernance",
  "abi": [
    {
      "anonymous": false,
      "inputs": [
        {
          "indexed": false,
          "internalType": "address",
          "name": "previousAdmin",
          "type": "address"
        },
        {
          "indexed": false,
          "internalType": "address",
          "name": "newAdmin",
          "type": "address"
        }
      ],
      "name": "AdminChanged",
      "type": "event"
    },
    {
      "anonymous": false,
      "inputs": [
        {
          "indexed": true,
          "internalType": "address",
          "name": "beacon",
          "type": "address"
        }
      ],
      "name": "BeaconUpgraded",
      "type": "event"
    },
    {
      "anonymous": false,
      "inputs": [
        {
          "indexed": false,
          "internalType": "uint8",
          "name": "version",
          "type": "uint8"
        }
      ],
      "name": "Initialized",
      "type": "event"
    },
    {
      "anonymous": false,
      "inputs": [
        {
          "indexed": false,
          "internalType": "address",
          "name": "soldierAddress",
          "type": "address"
        }
      ],
      "name": "LogSoldierAdded",
      "type": "event"
    },
    {
      "anonymous": false,
      "inputs": [
        {
          "indexed": false,
          "internalType": "address",
          "name": "soldierAddress",
          "type": "address"
        }
      ],
      "name": "LogSoldierRemoved",
      "type": "event"
    },
    {
      "anonymous": false,
      "inputs": [
        {
          "indexed": false,
          "internalType": "uint8",
          "name": "threshold",
          "type": "uint8"
        }
      ],
      "name": "LogThresholdChanged",
      "type": "event"
    },
    {
      "anonymous": false,
      "inputs": [
        {
          "indexed": false,
          "internalType": "address",
          "name": "tokenAddress",
          "type": "address"
        }
      ],
      "name": "LogTokenAdded",
      "type": "event"
    },
    {
      "anonymous": false,
      "inputs": [
        {
          "indexed": false,
          "internalType": "address",
          "name": "tokenAddress",
          "type": "address"
        }
      ],
      "name": "LogTokenRemoved",
      "type": "event"
    },
    {
      "anonymous": false,
      "inputs": [
        {
          "indexed": true,
          "internalType": "address",
          "name": "implementation",
          "type": "address"
        }
      ],
      "name": "Upgraded",
      "type": "event"
    },
    {
      "inputs": [
        {
          "internalType": "address",
          "name": "",
          "type": "address"
        }
      ],
      "name": "soldiers",
      "outputs": [
        {
          "internalType": "bool",
          "name": "",
          "type": "bool"
        }
      ],
      "stateMutability": "view",
      "type": "function"
    },
    {
      "inputs": [],
      "name": "thisChainId",
      "outputs": [
        {
          "internalType": "uint32",
          "name": "",
          "type": "uint32"
        }
      ],
      "stateMutability": "view",
      "type": "function"
    },
    {
      "inputs": [
        {
          "internalType": "address",
          "name": "",
          "type": "address"
        }
      ],
      "name": "tokens",
      "outputs": [
        {
          "internalType": "bool",
          "name": "",
          "type": "bool"
        }
      ],
      "stateMutability": "view",
      "type": "function"
    },
    {
      "inputs": [
        {
          "internalType": "uint32",
          "name": "",
          "type": "uint32"
        },
        {
          "internalType": "string",
          "name": "",
          "type": "string"
        }
      ],
      "name": "transactions",
      "outputs": [
        {
          "internalType": "bool",
          "name": "processed",
          "type": "bool"
        }
      ],
      "stateMutability": "view",
      "type": "function"
    },
    {
      "inputs": [
        {
          "internalType": "address[]",
          "name": "initialSoldiers",
          "type": "address[]"
        },
        {
          "internalType": "address[]",
          "name": "initialTokens",
          "type": "address[]"
        },
        {
          "internalType": "uint8",
          "name": "threshold",
          "type": "uint8"
        },
        {
          "internalType": "uint32",
          "name": "chainId",
          "type": "uint32"
        }
      ],
      "name": "initialize",
      "outputs": [],
      "stateMutability": "nonpayable",
      "type": "function"
    },
    {
      "inputs": [
        {
          "internalType": "address",
          "name": "tokenAddress",
          "type": "address"
        },
        {
          "internalType": "uint256",
          "name": "requestNonce",
          "type": "uint256"
        },
        {
          "internalType": "bytes[]",
          "name": "signatures",
          "type": "bytes[]"
        }
      ],
      "name": "addToken",
      "outputs": [],
      "stateMutability": "nonpayable",
      "type": "function"
    },
    {
      "inputs": [
        {
          "internalType": "address",
          "name": "tokenAddress",
          "type": "address"
        },
        {
          "internalType": "uint256",
          "name": "requestNonce",
          "type": "uint256"
        },
        {
          "internalType": "bytes[]",
          "name": "signatures",
          "type": "bytes[]"
        }
      ],
      "name": "removeToken",
      "outputs": [],
      "stateMutability": "nonpayable",
      "type": "function"
    },
    {
      "inputs": [
        {
          "internalType": "uint8",
          "name": "threshold",
          "type": "uint8"
        },
        {
          "internalType": "uint256",
          "name": "requestNonce",
          "type": "uint256"
        },
        {
          "internalType": "bytes[]",
          "name": "signatures",
          "type": "bytes[]"
        }
      ],
      "name": "changeSignatureThreshold",
      "outputs": [],
      "stateMutability": "nonpayable",
      "type": "function"
    },
    {
      "inputs": [
        {
          "internalType": "address",
          "name": "soldierAddress",
          "type": "address"
        },
        {
          "internalType": "uint256",
          "name": "requestNonce",
          "type": "uint256"
        },
        {
          "internalType": "bytes[]",
          "name": "signatures",
          "type": "bytes[]"
        }
      ],
      "name": "addSoldier",
      "outputs": [],
      "stateMutability": "nonpayable",
      "type": "function"
    },
    {
      "inputs": [
        {
          "internalType": "address",
          "name": "soldierAddress",
          "type": "address"
        },
        {
          "internalType": "uint256",
          "name": "requestNonce",
          "type": "uint256"
        },
        {
          "internalType": "bytes[]",
          "name": "signatures",
          "type": "bytes[]"
        }
      ],
      "name": "removeSoldier",
      "outputs": [],
      "stateMutability": "nonpayable",
      "type": "function"
    },
    {
      "inputs": [
        {
          "internalType": "address",
          "name": "newImplementation",
          "type": "address"
        },
        {
          "internalType": "uint256",
          "name": "requestNonce",
          "type": "uint256"
        },
        {
          "internalType": "bytes[]",
          "name": "signatures",
          "type": "bytes[]"
        }
      ],
      "name": "upgrade",
      "outputs": [],
      "stateMutability": "nonpayable",
      "type": "function"
    },
    {
      "inputs": [],
      "name": "getNonce",
      "outputs": [
        {
          "internalType": "uint256",
          "name": "",
          "type": "uint256"
        }
      ],
      "stateMutability": "view",
      "type": "function"
    }
  ],
  "bytecode": "0x6080604052600060015534801561001557600080fd5b50611642806100256000396000f3fe608060405234801561001057600080fd5b50600436106100d1576000357c01000000000000000000000000000000000000000000000000000000009004806394c4395b1161008e57806394c4395b1461019b578063b3aa7620146101ae578063d087d288146101c1578063e02a3343146101d2578063e3d29c5d146101e5578063e48603391461020a57600080fd5b8063071743ed146100d65780631e93cb9e1461010e57806327546ef8146101235780636426a18d146101365780637a8a0067146101495780638f230ba314610188575b600080fd5b6100f96100e43660046110f2565b60036020526000908152604090205460ff1681565b60405190151581526020015b60405180910390f35b61012161011c366004611225565b61022d565b005b610121610131366004611394565b610582565b610121610144366004611394565b6106f4565b6100f96101573660046113eb565b6006602090815260009283526040909220815180830184018051928152908401929093019190912091525460ff1681565b610121610196366004611394565b610889565b6101216101a9366004611394565b6109a9565b6101216101bc36600461144d565b610a26565b600154604051908152602001610105565b6101216101e0366004611394565b610acc565b6007546101f59063ffffffff1681565b60405163ffffffff9091168152602001610105565b6100f96102183660046110f2565b60046020526000908152604090205460ff1681565b60006102396001610bf0565b90508015610259576007805465ff00000000001916650100000000001790555b8260ff16855110156102b55760405160e560020a62461bcd02815260206004820152601360248201527f4e6f7420656e6f75676820736f6c64696572730000000000000000000000000060448201526064015b60405180910390fd5b60005b85518160ff1610156103d35760036000878360ff16815181106102dd576102dd61146b565b602090810291909101810151600160a060020a031682528101919091526040016000205460ff16156103545760405160e560020a62461bcd02815260206004820152601560248201527f536f6c6469657220616c7265616479206164646564000000000000000000000060448201526064016102ac565b600160036000888460ff168151811061036f5761036f61146b565b602090810291909101810151600160a060020a031682528181019290925260409081016000908120805494151560ff1995861617905560018054825260058452828220338352909352208054909216179055806103cb816114c9565b9150506102b8565b50845160009081555b84518160ff1610156104f75760046000868360ff16815181106104015761040161146b565b602090810291909101810151600160a060020a031682528101919091526040016000205460ff16156104785760405160e560020a62461bcd02815260206004820152601360248201527f546f6b656e20616c72656164792061646465640000000000000000000000000060448201526064016102ac565b600160046000878460ff16815181106104935761049361146b565b602090810291909101810151600160a060020a031682528181019290925260409081016000908120805494151560ff1995861617905560018054825260058452828220338352909352208054909216179055806104ef816114c9565b9150506103dc565b5060018054906000610508836114e9565b90915550506002805460ff191660ff85161790556007805463ffffffff191663ffffffff8416179055801561057b576007805465ff000000000019169055604051600181527f7f26b83ff96e1f2b6a682f133852f6798a09c465da95921460cefb38474024989060200160405180910390a15b5050505050565b3360009081526003602052604090205460ff166105b45760405160e560020a62461bcd0281526004016102ac90611504565b8160015481146105d95760405160e560020a62461bcd0281526004016102ac90611561565b600160a060020a03841660009081526003602052604090205460ff16156106455760405160e560020a62461bcd02815260206004820152601660248201527f536f6c6469657220616c7265616479206163746976650000000000000000000060448201526064016102ac565b6106676106528585610c9d565b60008581526005602052604090208490610d37565b600160a060020a0384166000908152600360205260408120805460ff1916600117905580549080610697836114e9565b9091555050604051600160a060020a03851681527f45df561f3a6211cd36a659f28ca50d2c48d04968cdd47fe32229f9ff2c476bd1906020015b60405180910390a1600180549060006106e9836114e9565b919050555050505050565b3360009081526003602052604090205460ff166107265760405160e560020a62461bcd0281526004016102ac90611504565b81600154811461074b5760405160e560020a62461bcd0281526004016102ac90611561565b60025460005460ff909116106107a65760405160e560020a62461bcd02815260206004820152601360248201527f4e6f7420656e6f75676820736f6c64696572730000000000000000000000000060448201526064016102ac565b600160a060020a03841660009081526003602052604090205460ff166108115760405160e560020a62461bcd02815260206004820152600d60248201527f4e6f74206120736f6c696465720000000000000000000000000000000000000060448201526064016102ac565b61081e6106528585610c9d565b600160a060020a0384166000908152600360205260408120805460ff191690558054908061084b83611598565b9091555050604051600160a060020a03851681527fa3b8d9f0a704aed051810dffe58189fcc83f68b00d2c06cd86220c18b5d288c6906020016106d1565b3360009081526003602052604090205460ff166108bb5760405160e560020a62461bcd0281526004016102ac90611504565b8160015481146108e05760405160e560020a62461bcd0281526004016102ac90611561565b600160a060020a03841660009081526004602052604090205460ff1661094b5760405160e560020a62461bcd02815260206004820152601860248201527f546f6b656e20616c7265616479206e6f7420616374697665000000000000000060448201526064016102ac565b6109586106528585610c9d565b600160a060020a038416600081815260046020908152604091829020805460ff1916905590519182527f48207b8b88ad0363606ff7f381bc9ee60bb9b614b5dccd985ae4cb02af0f77c391016106d1565b3360009081526003602052604090205460ff166109db5760405160e560020a62461bcd0281526004016102ac90611504565b816001548114610a005760405160e560020a62461bcd0281526004016102ac90611561565b610a0d6106528585610c9d565b610a1684610edb565b600180549060006106e9836114e9565b3360009081526003602052604090205460ff16610a585760405160e560020a62461bcd0281526004016102ac90611504565b816001548114610a7d5760405160e560020a62461bcd0281526004016102ac90611561565b610a8a6106528585610f1b565b6002805460ff191660ff86169081179091556040519081527f1d35c1363b251f7865b1b369641e54ec5729c78010282069b20f2fb0af8621ee906020016106d1565b3360009081526003602052604090205460ff16610afe5760405160e560020a62461bcd0281526004016102ac90611504565b816001548114610b235760405160e560020a62461bcd0281526004016102ac90611561565b600160a060020a03841660009081526004602052604090205460ff1615610b8f5760405160e560020a62461bcd02815260206004820152601460248201527f546f6b656e20616c72656164792061637469766500000000000000000000000060448201526064016102ac565b610b9c6106528585610c9d565b600160a060020a038416600081815260046020908152604091829020805460ff1916600117905590519182527f5a2cd987faef4fe5343b92ff6b73ef7a6e5ffefa48ef8559a9c99fbe55ebca8f91016106d1565b60075460009065010000000000900460ff1615610c40578160ff166001148015610c195750303b155b610c385760405160e560020a62461bcd0281526004016102ac906115af565b506000919050565b60075460ff8084166401000000009092041610610c725760405160e560020a62461bcd0281526004016102ac906115af565b506007805460ff9092166401000000000264ff0000000019909216919091179055600190565b919050565b6040516c01000000000000000000000000600160a060020a03841602602082015260348101829052600090610d30906054015b60408051601f1981840301815282825280516020918201207f19457468657265756d205369676e6564204d6573736167653a0a33320000000084830152603c8085019190915282518085039091018152605c909301909152815191012090565b9392505050565b600254825160ff9091161115610d925760405160e560020a62461bcd02815260206004820152601560248201527f4e6f7420656e6f756768207369676e617475726573000000000000000000000060448201526064016102ac565b60005b60025460ff16811015610ed5576000610dc785858481518110610dba57610dba61146b565b6020026020010151610f5f565b600160a060020a03811660009081526003602052604090205490915060ff16610e355760405160e560020a62461bcd02815260206004820152601160248201527f496e76616c6964207369676e617475726500000000000000000000000000000060448201526064016102ac565b600160a060020a03811660009081526020849052604090205460ff1615610ea15760405160e560020a62461bcd02815260206004820152601460248201527f4475706c696361746564207369676e617475726500000000000000000000000060448201526064016102ac565b600160a060020a03166000908152602083905260409020805460ff1916600117905580610ecd816114e9565b915050610d95565b50505050565b610ee481610fde565b604051600160a060020a038216907fbc7cd75a20ee27fd9adebab32041f755214dbc6bffa90cc0225b39da2e5c2d3b90600090a250565b6040517f010000000000000000000000000000000000000000000000000000000000000060ff841602602082015260218101829052600090610d3090604101610cd0565b600080600080610f6e856110ac565b6040805160008152602081018083528b905260ff8516918101919091526060810183905260808101829052929550909350915060019060a0016020604051602081039080840390855afa158015610fc9573d6000803e3d6000fd5b5050604051601f190151979650505050505050565b600160a060020a0381163b61105e5760405160e560020a62461bcd02815260206004820152602d60248201527f455243313936373a206e657720696d706c656d656e746174696f6e206973206e60448201527f6f74206120636f6e74726163740000000000000000000000000000000000000060648201526084016102ac565b7f360894a13ba1a3210667c828492db98dca3e2076cc3735a920a3ca505d382bbc805473ffffffffffffffffffffffffffffffffffffffff1916600160a060020a0392909216919091179055565b600080600083516041146110bf57600080fd5b5050506020810151604082015160609092015160001a92909190565b8035600160a060020a0381168114610c9857600080fd5b60006020828403121561110457600080fd5b610d30826110db565b7f4e487b7100000000000000000000000000000000000000000000000000000000600052604160045260246000fd5b604051601f8201601f1916810167ffffffffffffffff811182821017156111655761116561110d565b604052919050565b600067ffffffffffffffff8211156111875761118761110d565b5060209081020190565b600082601f8301126111a257600080fd5b813560206111b76111b28361116d565b61113c565b828152918102840181019181810190868411156111d357600080fd5b8286015b848110156111f5576111e8816110db565b83529183019183016111d7565b509695505050505050565b803560ff81168114610c9857600080fd5b803563ffffffff81168114610c9857600080fd5b6000806000806080858703121561123b57600080fd5b843567ffffffffffffffff8082111561125357600080fd5b61125f88838901611191565b9550602087013591508082111561127557600080fd5b5061128287828801611191565b93505061129160408601611200565b915061129f60608601611211565b905092959194509250565b600067ffffffffffffffff8311156112c4576112c461110d565b6112d7601f8401601f191660200161113c565b90508281528383830111156112eb57600080fd5b828260208301376000602084830101529392505050565b600082601f83011261131357600080fd5b813560206113236111b28361116d565b8281529181028401810191818101908684111561133f57600080fd5b8286015b848110156111f557803567ffffffffffffffff8111156113635760008081fd5b8701603f810189136113755760008081fd5b6113868986830135604084016112aa565b845250918301918301611343565b6000806000606084860312156113a957600080fd5b6113b2846110db565b925060208401359150604084013567ffffffffffffffff8111156113d557600080fd5b6113e186828701611302565b9150509250925092565b600080604083850312156113fe57600080fd5b61140783611211565b9150602083013567ffffffffffffffff81111561142357600080fd5b8301601f8101851361143457600080fd5b611443858235602084016112aa565b9150509250929050565b60008060006060848603121561146257600080fd5b6113b284611200565b7f4e487b7100000000000000000000000000000000000000000000000000000000600052603260045260246000fd5b7f4e487b7100000000000000000000000000000000000000000000000000000000600052601160045260246000fd5b600060ff821660ff8114156114e0576114e061149a565b60010192915050565b60006000198214156114fd576114fd61149a565b5060010190565b60208082526021908201527f63616c6c6572206973206e6f74206f6e65206f662074686520736f6c6469657260408201527f7300000000000000000000000000000000000000000000000000000000000000606082015260800190565b6020808252600d908201527f496e76616c6964206e6f6e636500000000000000000000000000000000000000604082015260600190565b6000816115a7576115a761149a565b506000190190565b6020808252602e908201527f496e697469616c697a61626c653a20636f6e747261637420697320616c72656160408201527f647920696e697469616c697a656400000000000000000000000000000000000060608201526080019056fea2646970667358221220752b9eb889f72c0141175e19482a34a77ad2fd4ac0d254c1ce1d7647b3131ea364736f6c634300080a0033",
  "immutableReferences": {},
  "source": "// SPDX-License-Identifier: MIT\npragma solidity ^0.8.0;\n\nimport \"@openzeppelin/contracts/proxy/ERC1967/ERC1967Upgrade.sol\";\nimport \"@openzeppelin/contracts/proxy/utils/Initializable.sol\";\nimport \"./BridgeSignatureValidator.sol\";\n\ncontract BridgeGovernance is\n    BridgeSignatureValidator,\n    ERC1967Upgrade,\n    Initializable\n{\n    event LogTokenAdded(address tokenAddress);\n    event LogTokenRemoved(address tokenAddress);\n    event LogSoldierAdded(address soldierAddress);\n    event LogSoldierRemoved(address soldierAddress);\n    event LogThresholdChanged(uint8 threshold);\n\n    function initialize(\n        address[] memory initialSoldiers,\n        address[] memory initialTokens,\n        uint8 threshold,\n        uint32 chainId\n    ) public initializer {\n        require(initialSoldiers.length >= threshold, \"Not enough soldiers\");\n        for (uint8 i = 0; i < initialSoldiers.length; i++) {\n            require(!soldiers[initialSoldiers[i]], \"Soldier already added\");\n            soldiers[initialSoldiers[i]] = true;\n            signers[nonce][msg.sender] = true;\n        }\n        soldierCount = initialSoldiers.length;\n\n        for (uint8 i = 0; i < initialTokens.length; i++) {\n            require(!tokens[initialTokens[i]], \"Token already added\");\n            tokens[initialTokens[i]] = true;\n            signers[nonce][msg.sender] = true;\n        }\n        nonce++;\n\n        signaturesThreshold = threshold;\n        thisChainId = chainId;\n    }\n\n    modifier onlySoldier() {\n        require(soldiers[msg.sender], \"caller is not one of the soldiers\");\n        _;\n    }\n\n    modifier validNonce(uint256 requestNonce) {\n        require(requestNonce == nonce, \"Invalid nonce\");\n        _;\n        nonce++;\n    }\n\n    function addToken(\n        address tokenAddress,\n        uint256 requestNonce,\n        bytes[] memory signatures\n    ) public onlySoldier validNonce(requestNonce) {\n        require(!tokens[tokenAddress], \"Token already active\");\n        validateSignatures(\n            reconstructMessage(tokenAddress, requestNonce),\n            signatures,\n            signers[requestNonce]\n        );\n        tokens[tokenAddress] = true;\n        emit LogTokenAdded(tokenAddress);\n    }\n\n    function removeToken(\n        address tokenAddress,\n        uint256 requestNonce,\n        bytes[] memory signatures\n    ) public onlySoldier validNonce(requestNonce) {\n        require(tokens[tokenAddress], \"Token already not active\");\n        validateSignatures(\n            reconstructMessage(tokenAddress, requestNonce),\n            signatures,\n            signers[requestNonce]\n        );\n        delete tokens[tokenAddress];\n        emit LogTokenRemoved(tokenAddress);\n    }\n\n    function changeSignatureThreshold(\n        uint8 threshold,\n        uint256 requestNonce,\n        bytes[] memory signatures\n    ) public onlySoldier validNonce(requestNonce) {\n        validateSignatures(\n            reconstructMessageUint8(threshold, requestNonce),\n            signatures,\n            signers[requestNonce]\n        );\n        signaturesThreshold = threshold;\n        emit LogThresholdChanged(threshold);\n    }\n\n    function addSoldier(\n        address soldierAddress,\n        uint256 requestNonce,\n        bytes[] memory signatures\n    ) public onlySoldier validNonce(requestNonce) {\n        require(!soldiers[soldierAddress], \"Soldier already active\");\n        validateSignatures(\n            reconstructMessage(soldierAddress, requestNonce),\n            signatures,\n            signers[requestNonce]\n        );\n        soldiers[soldierAddress] = true;\n        soldierCount++;\n        emit LogSoldierAdded(soldierAddress);\n    }\n\n    function removeSoldier(\n        address soldierAddress,\n        uint256 requestNonce,\n        bytes[] memory signatures\n    ) public onlySoldier validNonce(requestNonce) {\n        require(soldierCount > signaturesThreshold, \"Not enough soldiers\");\n        require(soldiers[soldierAddress], \"Not a solider\");\n        validateSignatures(\n            reconstructMessage(soldierAddress, requestNonce),\n            signatures,\n            signers[requestNonce]\n        );\n        delete soldiers[soldierAddress];\n        soldierCount--;\n        emit LogSoldierRemoved(soldierAddress);\n    }\n\n    function upgrade(\n        address newImplementation,\n        uint256 requestNonce,\n        bytes[] memory signatures\n    ) public onlySoldier validNonce(requestNonce) {\n        validateSignatures(\n            reconstructMessage(newImplementation, requestNonce),\n            signatures,\n            signers[requestNonce]\n        );\n        _upgradeTo(newImplementation);\n    }\n\n    function getNonce() public view returns (uint256) {\n        return nonce;\n    }\n\n    function reconstructMessage(address addressToAdd, uint256 requestNonce)\n        private\n        pure\n        returns (bytes32)\n    {\n        return\n            prefixed(keccak256(abi.encodePacked(addressToAdd, requestNonce)));\n    }\n\n    function reconstructMessageUint8(uint8 number, uint256 requestNonce)\n        private\n        pure\n        returns (bytes32)\n    {\n        return prefixed(keccak256(abi.encodePacked(number, requestNonce)));\n    }\n}\n",
  "sourcePath": "/home/cicd/contract/bridge-ethereum-assets-beta/contracts/BridgeGovernance.sol",
  "compiler": {
    "name": "solc",
    "version": "0.8.10+commit.fc410830.Emscripten.clang"
  },
  "schemaVersion": "3.4.4",
  "updatedAt": "2022-06-06T16:58:45.642Z",
  "devdoc": {
    "kind": "dev",
    "methods": {},
    "version": 1
  },
  "userdoc": {
    "kind": "user",
    "methods": {},
    "version": 1
  }
}