{
  "contractName": "WrappedAssetTokenMintable",
  "abi": [
    {
      "inputs": [
        {
          "internalType": "string",
          "name": "name",
          "type": "string"
        },
        {
          "internalType": "string",
          "name": "symbol",
          "type": "string"
        },
        {
          "internalType": "address",
          "name": "_bridgeContract",
          "type": "address"
        },
        {
          "internalType": "uint8",
          "name": "_chosenDecimals",
          "type": "uint8"
        }
      ],
      "stateMutability": "nonpayable",
      "type": "constructor"
    },
    {
      "anonymous": false,
      "inputs": [
        {
          "indexed": true,
          "internalType": "address",
          "name": "owner",
          "type": "address"
        },
        {
          "indexed": true,
          "internalType": "address",
          "name": "spender",
          "type": "address"
        },
        {
          "indexed": false,
          "internalType": "uint256",
          "name": "value",
          "type": "uint256"
        }
      ],
      "name": "Approval",
      "type": "event"
    },
    {
      "anonymous": false,
      "inputs": [
        {
          "indexed": true,
          "internalType": "address",
          "name": "from",
          "type": "address"
        },
        {
          "indexed": true,
          "internalType": "address",
          "name": "to",
          "type": "address"
        },
        {
          "indexed": false,
          "internalType": "uint256",
          "name": "value",
          "type": "uint256"
        }
      ],
      "name": "Transfer",
      "type": "event"
    },
    {
      "inputs": [
        {
          "internalType": "address",
          "name": "owner",
          "type": "address"
        },
        {
          "internalType": "address",
          "name": "spender",
          "type": "address"
        }
      ],
      "name": "allowance",
      "outputs": [
        {
          "internalType": "uint256",
          "name": "",
          "type": "uint256"
        }
      ],
      "stateMutability": "view",
      "type": "function"
    },
    {
      "inputs": [
        {
          "internalType": "address",
          "name": "spender",
          "type": "address"
        },
        {
          "internalType": "uint256",
          "name": "amount",
          "type": "uint256"
        }
      ],
      "name": "approve",
      "outputs": [
        {
          "internalType": "bool",
          "name": "",
          "type": "bool"
        }
      ],
      "stateMutability": "nonpayable",
      "type": "function"
    },
    {
      "inputs": [
        {
          "internalType": "address",
          "name": "account",
          "type": "address"
        }
      ],
      "name": "balanceOf",
      "outputs": [
        {
          "internalType": "uint256",
          "name": "",
          "type": "uint256"
        }
      ],
      "stateMutability": "view",
      "type": "function"
    },
    {
      "inputs": [],
      "name": "bridgeContract",
      "outputs": [
        {
          "internalType": "address",
          "name": "",
          "type": "address"
        }
      ],
      "stateMutability": "view",
      "type": "function"
    },
    {
      "inputs": [
        {
          "internalType": "address",
          "name": "spender",
          "type": "address"
        },
        {
          "internalType": "uint256",
          "name": "subtractedValue",
          "type": "uint256"
        }
      ],
      "name": "decreaseAllowance",
      "outputs": [
        {
          "internalType": "bool",
          "name": "",
          "type": "bool"
        }
      ],
      "stateMutability": "nonpayable",
      "type": "function"
    },
    {
      "inputs": [
        {
          "internalType": "address",
          "name": "spender",
          "type": "address"
        },
        {
          "internalType": "uint256",
          "name": "addedValue",
          "type": "uint256"
        }
      ],
      "name": "increaseAllowance",
      "outputs": [
        {
          "internalType": "bool",
          "name": "",
          "type": "bool"
        }
      ],
      "stateMutability": "nonpayable",
      "type": "function"
    },
    {
      "inputs": [],
      "name": "name",
      "outputs": [
        {
          "internalType": "string",
          "name": "",
          "type": "string"
        }
      ],
      "stateMutability": "view",
      "type": "function"
    },
    {
      "inputs": [],
      "name": "symbol",
      "outputs": [
        {
          "internalType": "string",
          "name": "",
          "type": "string"
        }
      ],
      "stateMutability": "view",
      "type": "function"
    },
    {
      "inputs": [],
      "name": "totalSupply",
      "outputs": [
        {
          "internalType": "uint256",
          "name": "",
          "type": "uint256"
        }
      ],
      "stateMutability": "view",
      "type": "function"
    },
    {
      "inputs": [
        {
          "internalType": "address",
          "name": "to",
          "type": "address"
        },
        {
          "internalType": "uint256",
          "name": "amount",
          "type": "uint256"
        }
      ],
      "name": "transfer",
      "outputs": [
        {
          "internalType": "bool",
          "name": "",
          "type": "bool"
        }
      ],
      "stateMutability": "nonpayable",
      "type": "function"
    },
    {
      "inputs": [
        {
          "internalType": "address",
          "name": "from",
          "type": "address"
        },
        {
          "internalType": "address",
          "name": "to",
          "type": "address"
        },
        {
          "internalType": "uint256",
          "name": "amount",
          "type": "uint256"
        }
      ],
      "name": "transferFrom",
      "outputs": [
        {
          "internalType": "bool",
          "name": "",
          "type": "bool"
        }
      ],
      "stateMutability": "nonpayable",
      "type": "function"
    },
    {
      "inputs": [],
      "name": "decimals",
      "outputs": [
        {
          "internalType": "uint8",
          "name": "",
          "type": "uint8"
        }
      ],
      "stateMutability": "view",
      "type": "function"
    },
    {
      "inputs": [],
      "name": "mintNew",
      "outputs": [],
      "stateMutability": "nonpayable",
      "type": "function"
    }
  ],
  "bytecode": "0x60806040523480156200001157600080fd5b5060405162001243380380620012438339810160408190526200003491620003a1565b8351849084906200004d90600390602085019062000215565b5080516200006390600490602084019062000215565b505060058054600160a060020a03851661010002600160a860020a031990911660ff8516171790555060006200009b82600a62000578565b620000ac906402540be40062000590565b600554909150620000d5906101009004600160a060020a031682640100000000620000e0810204565b505050505062000623565b600160a060020a03821662000155576040517f08c379a000000000000000000000000000000000000000000000000000000000815260206004820152601f60248201527f45524332303a206d696e7420746f20746865207a65726f206164647265737300604482015260640160405180910390fd5b6200016c6000838364010000000062000210810204565b8060026000828254620001809190620005b2565b9091555050600160a060020a03821660009081526020819052604081208054839290620001af908490620005b2565b9091555050604051818152600160a060020a038316906000907fddf252ad1be2c89b69c2b068fc378daa952ba7f163c4a11628f55a4df523b3ef9060200160405180910390a36200020c6000838364010000000062000210810204565b5050565b505050565b8280546200022390620005cd565b90600052602060002090601f01602090048101928262000247576000855562000292565b82601f106200026257805160ff191683800117855562000292565b8280016001018555821562000292579182015b828111156200029257825182559160200191906001019062000275565b50620002a0929150620002a4565b5090565b5b80821115620002a05760008155600101620002a5565b7f4e487b7100000000000000000000000000000000000000000000000000000000600052604160045260246000fd5b600082601f830112620002fc57600080fd5b81516001604060020a0380821115620003195762000319620002bb565b604051601f8301601f19908116603f01168101908282118183101715620003445762000344620002bb565b816040528381526020925086838588010111156200036157600080fd5b600091505b8382101562000385578582018301518183018401529082019062000366565b83821115620003975760008385830101525b9695505050505050565b60008060008060808587031215620003b857600080fd5b84516001604060020a0380821115620003d057600080fd5b620003de88838901620002ea565b95506020870151915080821115620003f557600080fd5b506200040487828801620002ea565b60408701519094509050600160a060020a03811681146200042457600080fd5b606086015190925060ff811681146200043c57600080fd5b939692955090935050565b7f4e487b7100000000000000000000000000000000000000000000000000000000600052601160045260246000fd5b600181815b80851115620004b95781600019048211156200049b576200049b62000447565b80851615620004a957918102915b600290940493908002906200047b565b509250929050565b600082620004d25750600162000572565b81620004e15750600062000572565b8160018114620004fa5760028114620005055762000526565b600191505062000572565b60ff84111562000519576200051962000447565b8360020a91505062000572565b5060208310610133831016604e8410600b84101617156200054b575081810a62000572565b62000557838362000476565b80600019048211156200056e576200056e62000447565b0290505b92915050565b60006200058960ff841683620004c1565b9392505050565b6000816000190483118215151615620005ad57620005ad62000447565b500290565b60008219821115620005c857620005c862000447565b500190565b600281046001821680620005e257607f821691505b602082108114156200061d577f4e487b7100000000000000000000000000000000000000000000000000000000600052602260045260246000fd5b50919050565b610c1080620006336000396000f3fe608060405234801561001057600080fd5b50600436106100ec576000357c01000000000000000000000000000000000000000000000000000000009004806370a08231116100a9578063a457c2d711610083578063a457c2d7146101ba578063a9059cbb146101cd578063cd596583146101e0578063dd62ed3e1461021057600080fd5b806370a082311461017f57806395d89b41146101a85780639d5f01f8146101b057600080fd5b806306fdde03146100f1578063095ea7b31461010f57806318160ddd1461013257806323b872dd14610144578063313ce56714610157578063395093511461016c575b600080fd5b6100f9610223565b60405161010691906108fe565b60405180910390f35b61012261011d36600461096f565b6102b5565b6040519015158152602001610106565b6002545b604051908152602001610106565b610122610152366004610999565b6102cf565b60055460405160ff9091168152602001610106565b61012261017a36600461096f565b6102f3565b61013661018d3660046109d5565b600160a060020a031660009081526020819052604090205490565b6100f9610315565b6101b8610324565b005b6101226101c836600461096f565b61034d565b6101226101db36600461096f565b6103e8565b6005546101f8906101009004600160a060020a031681565b604051600160a060020a039091168152602001610106565b61013661021e3660046109f7565b6103f6565b60606003805461023290610a2a565b80601f016020809104026020016040519081016040528092919081815260200182805461025e90610a2a565b80156102ab5780601f10610280576101008083540402835291602001916102ab565b820191906000526020600020905b81548152906001019060200180831161028e57829003601f168201915b5050505050905090565b6000336102c3818585610421565b60019150505b92915050565b6000336102dd85828561057f565b6102e88585856105fc565b506001949350505050565b6000336102c381858561030683836103f6565b6103109190610aad565b610421565b60606004805461023290610a2a565b60055461034b90339061033b9060ff16600a610bac565b610346906064610bbb565b61081c565b565b6000338161035b82866103f6565b9050838110156103db5760405160e560020a62461bcd02815260206004820152602560248201527f45524332303a2064656372656173656420616c6c6f77616e63652062656c6f7760448201527f207a65726f00000000000000000000000000000000000000000000000000000060648201526084015b60405180910390fd5b6102e88286868403610421565b6000336102c38185856105fc565b600160a060020a03918216600090815260016020908152604080832093909416825291909152205490565b600160a060020a03831661049f5760405160e560020a62461bcd028152602060048201526024808201527f45524332303a20617070726f76652066726f6d20746865207a65726f2061646460448201527f726573730000000000000000000000000000000000000000000000000000000060648201526084016103d2565b600160a060020a03821661051e5760405160e560020a62461bcd02815260206004820152602260248201527f45524332303a20617070726f766520746f20746865207a65726f20616464726560448201527f737300000000000000000000000000000000000000000000000000000000000060648201526084016103d2565b600160a060020a0383811660008181526001602090815260408083209487168084529482529182902085905590518481527f8c5be1e5ebec7d5bd14f71427d1e84f3dd0314c0f7b2291e5b200ac8c7c3b925910160405180910390a3505050565b600061058b84846103f6565b905060001981146105f657818110156105e95760405160e560020a62461bcd02815260206004820152601d60248201527f45524332303a20696e73756666696369656e7420616c6c6f77616e636500000060448201526064016103d2565b6105f68484848403610421565b50505050565b600160a060020a03831661067b5760405160e560020a62461bcd02815260206004820152602560248201527f45524332303a207472616e736665722066726f6d20746865207a65726f20616460448201527f647265737300000000000000000000000000000000000000000000000000000060648201526084016103d2565b600160a060020a0382166106fa5760405160e560020a62461bcd02815260206004820152602360248201527f45524332303a207472616e7366657220746f20746865207a65726f206164647260448201527f657373000000000000000000000000000000000000000000000000000000000060648201526084016103d2565b600160a060020a0383166000908152602081905260409020548181101561078c5760405160e560020a62461bcd02815260206004820152602660248201527f45524332303a207472616e7366657220616d6f756e742065786365656473206260448201527f616c616e6365000000000000000000000000000000000000000000000000000060648201526084016103d2565b600160a060020a038085166000908152602081905260408082208585039055918516815290812080548492906107c3908490610aad565b9250508190555082600160a060020a031684600160a060020a03167fddf252ad1be2c89b69c2b068fc378daa952ba7f163c4a11628f55a4df523b3ef8460405161080f91815260200190565b60405180910390a36105f6565b600160a060020a0382166108755760405160e560020a62461bcd02815260206004820152601f60248201527f45524332303a206d696e7420746f20746865207a65726f20616464726573730060448201526064016103d2565b80600260008282546108879190610aad565b9091555050600160a060020a038216600090815260208190526040812080548392906108b4908490610aad565b9091555050604051818152600160a060020a038316906000907fddf252ad1be2c89b69c2b068fc378daa952ba7f163c4a11628f55a4df523b3ef9060200160405180910390a35050565b600060208083528351808285015260005b8181101561092b5785810183015185820160400152820161090f565b8181111561093d576000604083870101525b50601f01601f1916929092016040019392505050565b8035600160a060020a038116811461096a57600080fd5b919050565b6000806040838503121561098257600080fd5b61098b83610953565b946020939093013593505050565b6000806000606084860312156109ae57600080fd5b6109b784610953565b92506109c560208501610953565b9150604084013590509250925092565b6000602082840312156109e757600080fd5b6109f082610953565b9392505050565b60008060408385031215610a0a57600080fd5b610a1383610953565b9150610a2160208401610953565b90509250929050565b600281046001821680610a3e57607f821691505b60208210811415610a78577f4e487b7100000000000000000000000000000000000000000000000000000000600052602260045260246000fd5b50919050565b7f4e487b7100000000000000000000000000000000000000000000000000000000600052601160045260246000fd5b60008219821115610ac057610ac0610a7e565b500190565b600181815b80851115610b02578160001904821115610ae657610ae6610a7e565b80851615610af357918102915b60029094049390800290610aca565b509250929050565b600082610b19575060016102c9565b81610b26575060006102c9565b8160018114610b3c5760028114610b4657610b63565b60019150506102c9565b60ff841115610b5757610b57610a7e565b8360020a9150506102c9565b5060208310610133831016604e8410600b8410161715610b86575081810a6102c9565b610b908383610ac5565b8060001904821115610ba457610ba4610a7e565b029392505050565b60006109f060ff841683610b0a565b6000816000190483118215151615610bd557610bd5610a7e565b50029056fea264697066735822122030d8f0e7d8f391fc9381fb65e9536e2547bf957531c514557fb319770c73a37f64736f6c634300080a0033",
  "immutableReferences": {},
  "source": "// SPDX-License-Identifier: MIT\npragma solidity ^0.8.0;\nimport \"@openzeppelin/contracts/token/ERC20/ERC20.sol\";\n\n/**\n * @title Mintable WrappedAssetToken for testnet usage\n */\ncontract WrappedAssetTokenMintable is ERC20 {\n    uint8 private _decimals;\n    address public bridgeContract;\n\n    constructor(\n        string memory name,\n        string memory symbol,\n        address _bridgeContract,\n        uint8 _chosenDecimals\n    ) ERC20(name, symbol) {\n        _decimals = _chosenDecimals;\n        bridgeContract = _bridgeContract;\n        uint256 supply = 10**10 * 10**_chosenDecimals;\n        _mint(bridgeContract, supply);\n    }\n\n    /**\n     * @dev Returns the number of decimals used to get its user representation.\n     * For example, if `decimals` equals `2`, a balance of `505` tokens should\n     * be displayed to a user as `5.05` (`505 / 10 ** 2`).\n     *\n     * NOTE: This information is only used for _display_ purposes: it in\n     * no way affects any of the arithmetic of the contract, including\n     * {IERC20-balanceOf} and {IERC20-transfer}.\n     */\n    function decimals() public view virtual override returns (uint8) {\n        return _decimals;\n    }\n\n    /**\n     * Allow anybody to mint new 100 tokens - testnet token\n     */\n    function mintNew() public {\n        _mint(msg.sender, 10**2 * 10**_decimals);\n    }\n}\n",
  "sourcePath": "/home/cicd/contract/bridge-ethereum-assets-beta/contracts/WrappedAssetTokenMintable.sol",
  "compiler": {
    "name": "solc",
    "version": "0.8.10+commit.fc410830.Emscripten.clang"
  },
  "schemaVersion": "3.4.4",
  "updatedAt": "2022-06-06T16:58:45.651Z",
  "devdoc": {
    "kind": "dev",
    "methods": {
      "allowance(address,address)": {
        "details": "See {IERC20-allowance}."
      },
      "approve(address,uint256)": {
        "details": "See {IERC20-approve}. NOTE: If `amount` is the maximum `uint256`, the allowance is not updated on `transferFrom`. This is semantically equivalent to an infinite approval. Requirements: - `spender` cannot be the zero address."
      },
      "balanceOf(address)": {
        "details": "See {IERC20-balanceOf}."
      },
      "decimals()": {
        "details": "Returns the number of decimals used to get its user representation. For example, if `decimals` equals `2`, a balance of `505` tokens should be displayed to a user as `5.05` (`505 / 10 ** 2`). NOTE: This information is only used for _display_ purposes: it in no way affects any of the arithmetic of the contract, including {IERC20-balanceOf} and {IERC20-transfer}."
      },
      "decreaseAllowance(address,uint256)": {
        "details": "Atomically decreases the allowance granted to `spender` by the caller. This is an alternative to {approve} that can be used as a mitigation for problems described in {IERC20-approve}. Emits an {Approval} event indicating the updated allowance. Requirements: - `spender` cannot be the zero address. - `spender` must have allowance for the caller of at least `subtractedValue`."
      },
      "increaseAllowance(address,uint256)": {
        "details": "Atomically increases the allowance granted to `spender` by the caller. This is an alternative to {approve} that can be used as a mitigation for problems described in {IERC20-approve}. Emits an {Approval} event indicating the updated allowance. Requirements: - `spender` cannot be the zero address."
      },
      "name()": {
        "details": "Returns the name of the token."
      },
      "symbol()": {
        "details": "Returns the symbol of the token, usually a shorter version of the name."
      },
      "totalSupply()": {
        "details": "See {IERC20-totalSupply}."
      },
      "transfer(address,uint256)": {
        "details": "See {IERC20-transfer}. Requirements: - `to` cannot be the zero address. - the caller must have a balance of at least `amount`."
      },
      "transferFrom(address,address,uint256)": {
        "details": "See {IERC20-transferFrom}. Emits an {Approval} event indicating the updated allowance. This is not required by the EIP. See the note at the beginning of {ERC20}. NOTE: Does not update the allowance if the current allowance is the maximum `uint256`. Requirements: - `from` and `to` cannot be the zero address. - `from` must have a balance of at least `amount`. - the caller must have allowance for ``from``'s tokens of at least `amount`."
      }
    },
    "title": "Mintable WrappedAssetToken for testnet usage",
    "version": 1
  },
  "userdoc": {
    "kind": "user",
    "methods": {
      "mintNew()": {
        "notice": "Allow anybody to mint new 100 tokens - testnet token"
      }
    },
    "version": 1
  }
}