{
  "contractName": "AddressProvider",
  "abi": [
    {
      "inputs": [],
      "name": "bridgeState",
      "outputs": [
        {
          "internalType": "address",
          "name": "",
          "type": "address"
        }
      ],
      "stateMutability": "view",
      "type": "function"
    },
    {
      "inputs": [],
      "name": "owner",
      "outputs": [
        {
          "internalType": "address",
          "name": "",
          "type": "address"
        }
      ],
      "stateMutability": "view",
      "type": "function"
    },
    {
      "inputs": [],
      "name": "poaContract",
      "outputs": [
        {
          "internalType": "address",
          "name": "",
          "type": "address"
        }
      ],
      "stateMutability": "view",
      "type": "function"
    },
    {
      "inputs": [
        {
          "internalType": "address",
          "name": "_bridgeState",
          "type": "address"
        }
      ],
      "name": "setBridgeStateAddress",
      "outputs": [],
      "stateMutability": "nonpayable",
      "type": "function"
    },
    {
      "inputs": [
        {
          "internalType": "address",
          "name": "_poaAddress",
          "type": "address"
        }
      ],
      "name": "setPoaContractAddress",
      "outputs": [],
      "stateMutability": "nonpayable",
      "type": "function"
    }
  ],
  "bytecode": "0x608060405234801561001057600080fd5b506102ad806100206000396000f3fe608060405234801561001057600080fd5b5060043610610073577c010000000000000000000000000000000000000000000000000000000060003504631ea09b8781146100785780634466ec2c1461008d5780636e654010146100bc5780638da5cb5b146100cf57806397c4163f146100e2575b600080fd5b61008b6100863660046101ea565b6100f5565b005b6001546100a090600160a060020a031681565b604051600160a060020a03909116815260200160405180910390f35b6000546100a090600160a060020a031681565b6002546100a090600160a060020a031681565b61008b6100f03660046101ea565b610174565b6002543390600160a060020a03168114610144576040517f08c379a000000000000000000000000000000000000000000000000000000000815260040161013b9061021a565b60405180910390fd5b506001805473ffffffffffffffffffffffffffffffffffffffff1916600160a060020a0392909216919091179055565b6002543390600160a060020a031681146101ba576040517f08c379a000000000000000000000000000000000000000000000000000000000815260040161013b9061021a565b506000805473ffffffffffffffffffffffffffffffffffffffff1916600160a060020a0392909216919091179055565b6000602082840312156101fc57600080fd5b8135600160a060020a038116811461021357600080fd5b9392505050565b60208082526035908201527f4f6e6c7920746865206f776e6572206f662074686520636f6e7472616374206360408201527f616e2063616c6c20746869732066756e6374696f6e000000000000000000000060608201526080019056fea264697066735822122016f7f364421a813dcd2f97e5b5f8ffffd95452834f7a6cf564372fd2d5e280d764736f6c634300080a0033",
  "immutableReferences": {},
  "source": "// SPDX-License-Identifier: MIT\npragma solidity ^0.8.0;\n\ncontract AddressProvider {\n    address public poaContract;\n    address public bridgeState;\n    address public owner;\n\n    modifier onlyOwner(address sender) {\n        require(\n            owner == sender,\n            \"Only the owner of the contract can call this function\"\n        );\n        _;\n    }\n\n    function setBridgeStateAddress(address _bridgeState)\n        public\n        onlyOwner(msg.sender)\n    {\n        bridgeState = _bridgeState;\n    }\n\n    function setPoaContractAddress(address _poaAddress)\n        public\n        onlyOwner(msg.sender)\n    {\n        poaContract = _poaAddress;\n    }\n}\n",
  "sourcePath": "/home/alienflip/eth-algo-gossip/ethereum/contracts/AddressProvider.sol",
  "compiler": {
    "name": "solc",
    "version": "0.8.10+commit.fc410830.Emscripten.clang"
  },
  "schemaVersion": "3.4.4",
  "updatedAt": "2022-01-11T14:58:19.384Z",
  "devdoc": {
    "kind": "dev",
    "methods": {},
    "version": 1
  },
  "userdoc": {
    "kind": "user",
    "methods": {},
    "version": 1
  }
}