{
  "contractName": "POA",
  "abi": [
    {
      "inputs": [
        {
          "internalType": "address",
          "name": "_stateAddress",
          "type": "address"
        }
      ],
      "stateMutability": "nonpayable",
      "type": "constructor"
    },
    {
      "inputs": [],
      "name": "_bridgeState",
      "outputs": [
        {
          "internalType": "address",
          "name": "",
          "type": "address"
        }
      ],
      "stateMutability": "view",
      "type": "function",
      "constant": true
    },
    {
      "inputs": [
        {
          "internalType": "bytes",
          "name": "encodedPoa",
          "type": "bytes"
        }
      ],
      "name": "parseAndVerifyVM",
      "outputs": [
        {
          "components": [
            {
              "internalType": "bytes",
              "name": "payload",
              "type": "bytes"
            },
            {
              "components": [
                {
                  "internalType": "uint8",
                  "name": "soldierNumber",
                  "type": "uint8"
                },
                {
                  "internalType": "bytes32",
                  "name": "r",
                  "type": "bytes32"
                },
                {
                  "internalType": "bytes32",
                  "name": "s",
                  "type": "bytes32"
                },
                {
                  "internalType": "uint8",
                  "name": "v",
                  "type": "uint8"
                }
              ],
              "internalType": "struct Struct.Signature[]",
              "name": "signatures",
              "type": "tuple[]"
            },
            {
              "internalType": "bytes32",
              "name": "hash",
              "type": "bytes32"
            }
          ],
          "internalType": "struct Struct.POAMessage",
          "name": "poa",
          "type": "tuple"
        },
        {
          "internalType": "bool",
          "name": "valid",
          "type": "bool"
        },
        {
          "internalType": "string",
          "name": "reason",
          "type": "string"
        }
      ],
      "stateMutability": "view",
      "type": "function",
      "constant": true
    },
    {
      "inputs": [
        {
          "components": [
            {
              "internalType": "bytes",
              "name": "payload",
              "type": "bytes"
            },
            {
              "components": [
                {
                  "internalType": "uint8",
                  "name": "soldierNumber",
                  "type": "uint8"
                },
                {
                  "internalType": "bytes32",
                  "name": "r",
                  "type": "bytes32"
                },
                {
                  "internalType": "bytes32",
                  "name": "s",
                  "type": "bytes32"
                },
                {
                  "internalType": "uint8",
                  "name": "v",
                  "type": "uint8"
                }
              ],
              "internalType": "struct Struct.Signature[]",
              "name": "signatures",
              "type": "tuple[]"
            },
            {
              "internalType": "bytes32",
              "name": "hash",
              "type": "bytes32"
            }
          ],
          "internalType": "struct Struct.POAMessage",
          "name": "poa",
          "type": "tuple"
        }
      ],
      "name": "verifyPOA",
      "outputs": [
        {
          "internalType": "bool",
          "name": "valid",
          "type": "bool"
        },
        {
          "internalType": "string",
          "name": "reason",
          "type": "string"
        }
      ],
      "stateMutability": "view",
      "type": "function",
      "constant": true
    },
    {
      "inputs": [
        {
          "internalType": "bytes32",
          "name": "hash",
          "type": "bytes32"
        },
        {
          "components": [
            {
              "internalType": "uint8",
              "name": "soldierNumber",
              "type": "uint8"
            },
            {
              "internalType": "bytes32",
              "name": "r",
              "type": "bytes32"
            },
            {
              "internalType": "bytes32",
              "name": "s",
              "type": "bytes32"
            },
            {
              "internalType": "uint8",
              "name": "v",
              "type": "uint8"
            }
          ],
          "internalType": "struct Struct.Signature[]",
          "name": "signatures",
          "type": "tuple[]"
        }
      ],
      "name": "verifySignatures",
      "outputs": [
        {
          "internalType": "bool",
          "name": "valid",
          "type": "bool"
        },
        {
          "internalType": "string",
          "name": "reason",
          "type": "string"
        }
      ],
      "stateMutability": "view",
      "type": "function",
      "constant": true
    },
    {
      "inputs": [
        {
          "internalType": "bytes",
          "name": "encodedPoa",
          "type": "bytes"
        }
      ],
      "name": "parsePOA",
      "outputs": [
        {
          "components": [
            {
              "internalType": "bytes",
              "name": "payload",
              "type": "bytes"
            },
            {
              "components": [
                {
                  "internalType": "uint8",
                  "name": "soldierNumber",
                  "type": "uint8"
                },
                {
                  "internalType": "bytes32",
                  "name": "r",
                  "type": "bytes32"
                },
                {
                  "internalType": "bytes32",
                  "name": "s",
                  "type": "bytes32"
                },
                {
                  "internalType": "uint8",
                  "name": "v",
                  "type": "uint8"
                }
              ],
              "internalType": "struct Struct.Signature[]",
              "name": "signatures",
              "type": "tuple[]"
            },
            {
              "internalType": "bytes32",
              "name": "hash",
              "type": "bytes32"
            }
          ],
          "internalType": "struct Struct.POAMessage",
          "name": "poa",
          "type": "tuple"
        }
      ],
      "stateMutability": "pure",
      "type": "function",
      "constant": true
    },
    {
      "inputs": [
        {
          "internalType": "bytes",
          "name": "encoded",
          "type": "bytes"
        }
      ],
      "name": "parseTransfer",
      "outputs": [
        {
          "components": [
            {
              "internalType": "uint256",
              "name": "amount",
              "type": "uint256"
            },
            {
              "internalType": "bytes32",
              "name": "tokenAddress",
              "type": "bytes32"
            },
            {
              "internalType": "bytes32",
              "name": "recipientAddress",
              "type": "bytes32"
            }
          ],
          "internalType": "struct Struct.Transfer",
          "name": "transfer",
          "type": "tuple"
        }
      ],
      "stateMutability": "pure",
      "type": "function",
      "constant": true
    }
  ],
  "bytecode": "0x608060405234801561001057600080fd5b5060405161108d38038061108d83398101604081905261002f91610054565b60008054600160a060020a031916600160a060020a0392909216919091179055610084565b60006020828403121561006657600080fd5b8151600160a060020a038116811461007d57600080fd5b9392505050565b610ffa806100936000396000f3fe608060405234801561001057600080fd5b506004361061007e577c010000000000000000000000000000000000000000000000000000000060003504631b1042fe81146100835780632b511375146100cd5780633ab58eba146101025780636c778a85146101235780637a7e0c9c14610143578063c0fd8bde14610156575b600080fd5b6000546100a39073ffffffffffffffffffffffffffffffffffffffff1681565b60405173ffffffffffffffffffffffffffffffffffffffff90911681526020015b60405180910390f35b6100e06100db366004610acd565b610178565b60408051825181526020808401519082015291810151908201526060016100c4565b610115610110366004610be5565b610247565b6040516100c4929190610ce6565b610136610131366004610acd565b6102c4565b6040516100c49190610d94565b610115610151366004610dae565b610513565b610169610164366004610df5565b6106fe565b6040516100c493929190610e67565b604080516060810182526000808252602082018190529181018290529061019f8382610774565b82526101ac602082610ecd565b90506101b883826107dd565b6020808401919091526101cb9082610ecd565b90506101d783826107dd565b60408301526101e7602082610ecd565b9050808351146102415760405160e560020a62461bcd02815260206004820152601060248201527f696e76616c6964205472616e736665720000000000000000000000000000000060448201526064015b60405180910390fd5b50919050565b60006060826020015151600a111561027d576000604051806060016040528060238152602001610fa26023913991509150915091565b60008061029285604001518660200151610513565b91509150816102a75760009590945092505050565b600160405180602001604052806000815250935093505050915091565b6040805160608082018352808252602082015260009181019190915260006102fb818285516102f39190610ee5565b85919061083d565b82526000610309848361096b565b60ff169050610319600183610ecd565b91508067ffffffffffffffff811115610334576103346109d4565b60405190808252806020026020018201604052801561038657816020015b6040805160808101825260008082526020808301829052928201819052606082015282526000199092019101816103525790505b50602084015260005b818110156104b4576103a1858461096b565b846020015182815181106103b7576103b7610efc565b602090810291909101015160ff90911690526103d4600184610ecd565b92506103e085846107dd565b846020015182815181106103f6576103f6610efc565b602002602001015160200181815250506020836104139190610ecd565b925061041f85846107dd565b8460200151828151811061043557610435610efc565b602002602001015160400181815250506020836104529190610ecd565b925061045e858461096b565b61046990601b610f2b565b8460200151828151811061047f5761047f610efc565b602090810291909101015160ff9091166060909101526104a0600184610ecd565b9250806104ac81610f50565b91505061038f565b5060006104d0838487516104c89190610ee5565b87919061083d565b905080805190602001206040516020016104ec91815260200190565b60405160208183030381529060405280519060200120846040018181525050505050919050565b6000606060005b83518110156106e157600084828151811061053757610537610efc565b60209081029190910101516000805482516040517f5fc84f7200000000000000000000000000000000000000000000000000000000815260ff9091166004820152929350909173ffffffffffffffffffffffffffffffffffffffff90911690635fc84f7290602401602060405180830381865afa1580156105bc573d6000803e3d6000fd5b505050506040513d601f19601f820116820180604052508101906105e09190610f6b565b90508073ffffffffffffffffffffffffffffffffffffffff1660018884606001518560200151866040015160405160008152602001604052604051610641949392919093845260ff9290921660208401526040830152606082015260800190565b6020604051602081039080840390855afa158015610663573d6000803e3d6000fd5b5050506020604051035173ffffffffffffffffffffffffffffffffffffffff16146106cc5760006040518060400160405280601481526020017f564d207369676e617475726520696e76616c6964000000000000000000000000815250945094505050506106f7565b505080806106d990610f50565b91505061051a565b5050604080516020810190915260008152600191505b9250929050565b604080516060808201835280825260208201526000918101919091526000606061075d85858080601f0160208091040260200160405190810160405280939291908181526020018383808284376000920191909152506102c492505050565b925061076883610247565b93969095509293505050565b6000610781826020610ecd565b835110156107d45760405160e560020a62461bcd02815260206004820152601560248201527f746f55696e743235365f6f75744f66426f756e647300000000000000000000006044820152606401610238565b50016020015190565b60006107ea826020610ecd565b835110156107d45760405160e560020a62461bcd02815260206004820152601560248201527f746f427974657333325f6f75744f66426f756e647300000000000000000000006044820152606401610238565b60608161084b81601f610ecd565b101561089c5760405160e560020a62461bcd02815260206004820152600e60248201527f736c6963655f6f766572666c6f770000000000000000000000000000000000006044820152606401610238565b6108a68284610ecd565b845110156108f95760405160e560020a62461bcd02815260206004820152601160248201527f736c6963655f6f75744f66426f756e64730000000000000000000000000000006044820152606401610238565b6060821580156109185760405191506000825260208201604052610962565b6040519150601f8416801560200281840101858101878315602002848b0101015b81831015610951578051835260209283019201610939565b5050858452601f01601f1916604052505b50949350505050565b6000610978826001610ecd565b835110156109cb5760405160e560020a62461bcd02815260206004820152601360248201527f746f55696e74385f6f75744f66426f756e6473000000000000000000000000006044820152606401610238565b50016001015190565b7f4e487b7100000000000000000000000000000000000000000000000000000000600052604160045260246000fd5b6040516080810167ffffffffffffffff81118282101715610a2657610a266109d4565b60405290565b604051601f8201601f1916810167ffffffffffffffff81118282101715610a5557610a556109d4565b604052919050565b600082601f830112610a6e57600080fd5b813567ffffffffffffffff811115610a8857610a886109d4565b610a9b601f8201601f1916602001610a2c565b818152846020838601011115610ab057600080fd5b816020850160208301376000918101602001919091529392505050565b600060208284031215610adf57600080fd5b813567ffffffffffffffff811115610af657600080fd5b610b0284828501610a5d565b949350505050565b803560ff81168114610b1b57600080fd5b919050565b600082601f830112610b3157600080fd5b8135602067ffffffffffffffff821115610b4d57610b4d6109d4565b610b5a8182840201610a2c565b82815260809283028501820192828201919087851115610b7957600080fd5b8387015b85811015610bd85781818a031215610b955760008081fd5b610b9d610a03565b610ba682610b0a565b81528186013586820152604080830135908201526060610bc7818401610b0a565b908201528452928401928101610b7d565b5090979650505050505050565b600060208284031215610bf757600080fd5b813567ffffffffffffffff80821115610c0f57600080fd5b9083019060608286031215610c2357600080fd5b604051606081018181108382111715610c3e57610c3e6109d4565b604052823582811115610c5057600080fd5b610c5c87828601610a5d565b825250602083013582811115610c7157600080fd5b610c7d87828601610b20565b6020830152506040830135604082015280935050505092915050565b6000815180845260005b81811015610cbf57602081850181015186830182015201610ca3565b81811115610cd1576000602083870101525b50601f01601f19169290920160200192915050565b8215158152604060208201526000610b026040830184610c99565b600060608251818552610d1682860182610c99565b60208581015187830388830152805180845290820193509091600091908301905b80831015610d7b578451805160ff90811684528582015186850152604080830151908501529087015116868301529383019360019290920191608090910190610d37565b5060408701516040890152809550505050505092915050565b602081526000610da76020830184610d01565b9392505050565b60008060408385031215610dc157600080fd5b82359150602083013567ffffffffffffffff811115610ddf57600080fd5b610deb85828601610b20565b9150509250929050565b60008060208385031215610e0857600080fd5b823567ffffffffffffffff80821115610e2057600080fd5b818501915085601f830112610e3457600080fd5b813581811115610e4357600080fd5b866020828501011115610e5557600080fd5b60209290920196919550909350505050565b606081526000610e7a6060830186610d01565b84151560208401528281036040840152610e948185610c99565b9695505050505050565b7f4e487b7100000000000000000000000000000000000000000000000000000000600052601160045260246000fd5b60008219821115610ee057610ee0610e9e565b500190565b600082821015610ef757610ef7610e9e565b500390565b7f4e487b7100000000000000000000000000000000000000000000000000000000600052603260045260246000fd5b600060ff821660ff84168060ff03821115610f4857610f48610e9e565b019392505050565b6000600019821415610f6457610f64610e9e565b5060010190565b600060208284031215610f7d57600080fd5b815173ffffffffffffffffffffffffffffffffffffffff81168114610da757600080fdfe446f6e277420656e676167652c206e6f7420656e6f75676820636f6e73656e7375732ea2646970667358221220e4481972e5c7e7b62a09bb26b7adf39fdf7cbf9d9c3ee040cbc8d4c2c3f8940d64736f6c634300080a0033",
  "immutableReferences": {},
  "source": "// SPDX-License-Identifier: MIT\npragma solidity ^0.8.0;\n\nimport \"./libraries/BytesLib.sol\";\nimport \"./Struct.sol\";\nimport \"./interfaces/IBridgeState.sol\";\n\ncontract POA {\n    using BytesLib for bytes;\n\n    address public _bridgeState;\n\n    constructor(address _stateAddress) {\n        _bridgeState = _stateAddress;\n    }\n\n    function parseAndVerifyVM(bytes calldata encodedPoa)\n        public\n        view\n        returns (\n            Struct.POAMessage memory poa,\n            bool valid,\n            string memory reason\n        )\n    {\n        poa = parsePOA(encodedPoa);\n        (valid, reason) = verifyPOA(poa);\n    }\n\n    function verifyPOA(Struct.POAMessage memory poa)\n        public\n        view\n        returns (bool valid, string memory reason)\n    {\n        if (10 > poa.signatures.length) {\n            return (false, \"Don't engage, not enough consensus.\");\n        }\n\n        // Verify signatures\n        (bool signaturesValid, string memory invalidReason) = verifySignatures(\n            poa.hash,\n            poa.signatures\n        );\n        if (!signaturesValid) {\n            return (false, invalidReason);\n        }\n\n        return (true, \"\");\n    }\n\n    function verifySignatures(\n        bytes32 hash,\n        Struct.Signature[] memory signatures\n    ) public view returns (bool valid, string memory reason) {\n        for (uint256 i = 0; i < signatures.length; i++) {\n            Struct.Signature memory sig = signatures[i];\n            address soldierAddress = IBridgeState(_bridgeState).getSoldier(\n                sig.soldierNumber\n            );\n            if (ecrecover(hash, sig.v, sig.r, sig.s) != soldierAddress) {\n                return (false, \"VM signature invalid\");\n            }\n        }\n        return (true, \"\");\n    }\n\n    function parsePOA(bytes memory encodedPoa)\n        public\n        pure\n        virtual\n        returns (Struct.POAMessage memory poa)\n    {\n        uint256 index = 0;\n\n        poa.payload = encodedPoa.slice(index, encodedPoa.length - index);\n\n        // Parse Signatures\n        uint256 signersLen = encodedPoa.toUint8(index);\n        index += 1;\n        poa.signatures = new Struct.Signature[](signersLen);\n        for (uint256 i = 0; i < signersLen; i++) {\n            poa.signatures[i].soldierNumber = encodedPoa.toUint8(index);\n            index += 1;\n\n            poa.signatures[i].r = encodedPoa.toBytes32(index);\n            index += 32;\n            poa.signatures[i].s = encodedPoa.toBytes32(index);\n            index += 32;\n            poa.signatures[i].v = encodedPoa.toUint8(index) + 27;\n            index += 1;\n        }\n\n        // Hash the body\n        bytes memory body = encodedPoa.slice(index, encodedPoa.length - index);\n        poa.hash = keccak256(abi.encodePacked(keccak256(body)));\n    }\n\n    function parseTransfer(bytes memory encoded)\n        public\n        pure\n        returns (Struct.Transfer memory transfer)\n    {\n        uint256 index = 0;\n\n        transfer.amount = encoded.toUint256(index);\n        index += 32;\n\n        transfer.tokenAddress = encoded.toBytes32(index);\n        index += 32;\n\n        transfer.recipientAddress = encoded.toBytes32(index);\n        index += 32;\n\n        require(encoded.length == index, \"invalid Transfer\");\n    }\n}\n",
  "sourcePath": "/home/alienflip/eth-algo-gossip/ethereum/contracts/POA.sol",
  "compiler": {
    "name": "solc",
    "version": "0.8.10+commit.fc410830.Emscripten.clang"
  },
  "schemaVersion": "3.4.4",
  "updatedAt": "2022-01-11T15:00:54.917Z",
  "networkType": "ethereum",
  "devdoc": {
    "kind": "dev",
    "methods": {},
    "version": 1
  },
  "userdoc": {
    "kind": "user",
    "methods": {},
    "version": 1
  }
}