{
  "contractName": "Bridge",
  "abi": [
    {
      "inputs": [
        {
          "internalType": "uint32",
          "name": "chainId",
          "type": "uint32"
        },
        {
          "internalType": "address",
          "name": "_stateAddress",
          "type": "address"
        }
      ],
      "stateMutability": "nonpayable",
      "type": "constructor"
    },
    {
      "anonymous": false,
      "inputs": [
        {
          "indexed": false,
          "internalType": "address",
          "name": "toAddr",
          "type": "address"
        },
        {
          "indexed": false,
          "internalType": "uint32",
          "name": "rootChainId",
          "type": "uint32"
        },
        {
          "indexed": false,
          "internalType": "uint32",
          "name": "destinationChainId",
          "type": "uint32"
        },
        {
          "indexed": false,
          "internalType": "address",
          "name": "tokenAddr",
          "type": "address"
        },
        {
          "indexed": false,
          "internalType": "string",
          "name": "rootTxnId",
          "type": "string"
        },
        {
          "indexed": false,
          "internalType": "uint256",
          "name": "amount",
          "type": "uint256"
        },
        {
          "indexed": false,
          "internalType": "uint256",
          "name": "timestamp",
          "type": "uint256"
        }
      ],
      "name": "BridgeSuccess",
      "type": "event"
    },
    {
      "anonymous": false,
      "inputs": [
        {
          "indexed": false,
          "internalType": "address",
          "name": "fromAddr",
          "type": "address"
        },
        {
          "indexed": false,
          "internalType": "string",
          "name": "toAddr",
          "type": "string"
        },
        {
          "indexed": false,
          "internalType": "uint32",
          "name": "rootChainId",
          "type": "uint32"
        },
        {
          "indexed": false,
          "internalType": "uint32",
          "name": "destinationChainId",
          "type": "uint32"
        },
        {
          "indexed": false,
          "internalType": "address",
          "name": "tokenAddr",
          "type": "address"
        },
        {
          "indexed": false,
          "internalType": "uint256",
          "name": "amount",
          "type": "uint256"
        },
        {
          "indexed": false,
          "internalType": "uint8",
          "name": "signatureThreshold",
          "type": "uint8"
        },
        {
          "indexed": false,
          "internalType": "uint256",
          "name": "timestamp",
          "type": "uint256"
        }
      ],
      "name": "Lock",
      "type": "event"
    },
    {
      "anonymous": false,
      "inputs": [
        {
          "indexed": true,
          "internalType": "address",
          "name": "previousOwner",
          "type": "address"
        },
        {
          "indexed": true,
          "internalType": "address",
          "name": "newOwner",
          "type": "address"
        }
      ],
      "name": "OwnershipTransferred",
      "type": "event"
    },
    {
      "anonymous": false,
      "inputs": [
        {
          "indexed": false,
          "internalType": "address",
          "name": "account",
          "type": "address"
        }
      ],
      "name": "Paused",
      "type": "event"
    },
    {
      "anonymous": false,
      "inputs": [
        {
          "indexed": false,
          "internalType": "address",
          "name": "account",
          "type": "address"
        }
      ],
      "name": "Unpaused",
      "type": "event"
    },
    {
      "inputs": [],
      "name": "owner",
      "outputs": [
        {
          "internalType": "address",
          "name": "",
          "type": "address"
        }
      ],
      "stateMutability": "view",
      "type": "function",
      "constant": true
    },
    {
      "inputs": [],
      "name": "paused",
      "outputs": [
        {
          "internalType": "bool",
          "name": "",
          "type": "bool"
        }
      ],
      "stateMutability": "view",
      "type": "function",
      "constant": true
    },
    {
      "inputs": [
        {
          "internalType": "uint32",
          "name": "",
          "type": "uint32"
        },
        {
          "internalType": "string",
          "name": "",
          "type": "string"
        }
      ],
      "name": "processedTxnIds",
      "outputs": [
        {
          "internalType": "bool",
          "name": "",
          "type": "bool"
        }
      ],
      "stateMutability": "view",
      "type": "function",
      "constant": true
    },
    {
      "inputs": [],
      "name": "renounceOwnership",
      "outputs": [],
      "stateMutability": "nonpayable",
      "type": "function"
    },
    {
      "inputs": [],
      "name": "signatureThreshold",
      "outputs": [
        {
          "internalType": "uint8",
          "name": "",
          "type": "uint8"
        }
      ],
      "stateMutability": "view",
      "type": "function",
      "constant": true
    },
    {
      "inputs": [],
      "name": "stateContract",
      "outputs": [
        {
          "internalType": "address",
          "name": "",
          "type": "address"
        }
      ],
      "stateMutability": "view",
      "type": "function",
      "constant": true
    },
    {
      "inputs": [],
      "name": "thisChainId",
      "outputs": [
        {
          "internalType": "uint32",
          "name": "",
          "type": "uint32"
        }
      ],
      "stateMutability": "view",
      "type": "function",
      "constant": true
    },
    {
      "inputs": [
        {
          "internalType": "address",
          "name": "newOwner",
          "type": "address"
        }
      ],
      "name": "transferOwnership",
      "outputs": [],
      "stateMutability": "nonpayable",
      "type": "function"
    },
    {
      "inputs": [
        {
          "internalType": "uint8",
          "name": "newThreshold",
          "type": "uint8"
        }
      ],
      "name": "changeSignatureThreshold",
      "outputs": [],
      "stateMutability": "nonpayable",
      "type": "function"
    },
    {
      "inputs": [
        {
          "internalType": "address",
          "name": "tokenAddr",
          "type": "address"
        },
        {
          "internalType": "address",
          "name": "toAddr",
          "type": "address"
        },
        {
          "internalType": "uint32",
          "name": "rootChainId",
          "type": "uint32"
        },
        {
          "internalType": "uint32",
          "name": "destinationChainId",
          "type": "uint32"
        },
        {
          "internalType": "string",
          "name": "rootTxnId",
          "type": "string"
        },
        {
          "internalType": "uint256",
          "name": "amount",
          "type": "uint256"
        },
        {
          "internalType": "bytes[]",
          "name": "signatures",
          "type": "bytes[]"
        }
      ],
      "name": "releaseTokens",
      "outputs": [
        {
          "internalType": "bool",
          "name": "",
          "type": "bool"
        }
      ],
      "stateMutability": "nonpayable",
      "type": "function"
    },
    {
      "inputs": [
        {
          "internalType": "string",
          "name": "toAddr",
          "type": "string"
        },
        {
          "internalType": "uint32",
          "name": "destinationChainId",
          "type": "uint32"
        },
        {
          "internalType": "address",
          "name": "tokenAddr",
          "type": "address"
        },
        {
          "internalType": "uint256",
          "name": "amount",
          "type": "uint256"
        }
      ],
      "name": "lockTokens",
      "outputs": [
        {
          "internalType": "bool",
          "name": "",
          "type": "bool"
        }
      ],
      "stateMutability": "nonpayable",
      "type": "function"
    },
    {
      "inputs": [
        {
          "internalType": "bytes32",
          "name": "message",
          "type": "bytes32"
        }
      ],
      "name": "prefixed",
      "outputs": [
        {
          "internalType": "bytes32",
          "name": "",
          "type": "bytes32"
        }
      ],
      "stateMutability": "pure",
      "type": "function",
      "constant": true
    },
    {
      "inputs": [
        {
          "internalType": "bytes32",
          "name": "message",
          "type": "bytes32"
        },
        {
          "internalType": "bytes",
          "name": "sig",
          "type": "bytes"
        }
      ],
      "name": "recoverSigner",
      "outputs": [
        {
          "internalType": "address",
          "name": "",
          "type": "address"
        }
      ],
      "stateMutability": "pure",
      "type": "function",
      "constant": true
    },
    {
      "inputs": [
        {
          "internalType": "bytes",
          "name": "sig",
          "type": "bytes"
        }
      ],
      "name": "splitSignature",
      "outputs": [
        {
          "internalType": "uint8",
          "name": "",
          "type": "uint8"
        },
        {
          "internalType": "bytes32",
          "name": "",
          "type": "bytes32"
        },
        {
          "internalType": "bytes32",
          "name": "",
          "type": "bytes32"
        }
      ],
      "stateMutability": "pure",
      "type": "function",
      "constant": true
    },
    {
      "inputs": [
        {
          "internalType": "address",
          "name": "toAddr",
          "type": "address"
        },
        {
          "internalType": "uint32",
          "name": "rootChainId",
          "type": "uint32"
        },
        {
          "internalType": "uint32",
          "name": "destinationChainId",
          "type": "uint32"
        },
        {
          "internalType": "address",
          "name": "tokenAddr",
          "type": "address"
        },
        {
          "internalType": "string",
          "name": "rootTxnId",
          "type": "string"
        },
        {
          "internalType": "uint256",
          "name": "amount",
          "type": "uint256"
        }
      ],
      "name": "reconstructMessageHash",
      "outputs": [
        {
          "internalType": "bytes32",
          "name": "",
          "type": "bytes32"
        }
      ],
      "stateMutability": "pure",
      "type": "function",
      "constant": true
    }
  ],
  "bytecode": "0x60806040526002805460ff19168117905534801561001c57600080fd5b506040516200165e3803806200165e83398101604081905261003d91610141565b6000805460ff1916905561006961005b6401000000006100e4810204565b6401000000006100e8810204565b60028054600160a060020a0390921665010000000000027fffffffffffffff0000000000000000000000000000000000000000ffffffffff63ffffffff90941661010002939093167fffffffffffffff000000000000000000000000000000000000000000000000ff90921691909117919091179055610190565b3390565b60008054600160a060020a0383811661010081810261010060a860020a0319851617855560405193049190911692909183917f8be0079c531659141344cd1fd0a4f28419497f9722a3daafe3b4186f6b6457e091a35050565b6000806040838503121561015457600080fd5b825163ffffffff8116811461016857600080fd5b6020840151909250600160a060020a038116811461018557600080fd5b809150509250929050565b6114be80620001a06000396000f3fe608060405234801561001057600080fd5b5060043610610112576000357c01000000000000000000000000000000000000000000000000000000009004806397aba7f9116100b4578063c3fc83f011610083578063c3fc83f014610264578063db5f30e114610277578063e3d29c5d14610293578063f2fde38b146102bd57600080fd5b806397aba7f9146101ed578063a7bb580314610200578063a82f2e2614610232578063af5710441461025157600080fd5b8063715018a6116100f0578063715018a6146101675780637f1d896b1461017157806383f6f0f1146101b05780638da5cb5b146101c357600080fd5b80630c6414aa146101175780631f2757131461013d5780635c975abb14610150575b600080fd5b61012a610125366004610ecd565b6102d0565b6040519081526020015b60405180910390f35b61012a61014b366004610f55565b610316565b60005460ff165b6040519015158152602001610134565b61016f610369565b005b61015761017f366004610f6e565b6001602090815260009283526040909220815180830184018051928152908401929093019190912091525460ff1681565b6101576101be366004610fbc565b6103b1565b6000546101009004600160a060020a03165b604051600160a060020a039091168152602001610134565b6101d56101fb3660046110ef565b610962565b61021361020e366004611120565b6109e1565b6040805160ff9094168452602084019290925290820152606001610134565b60025461023f9060ff1681565b60405160ff9091168152602001610134565b61015761025f36600461115d565b610a10565b61016f6102723660046111c3565b610c5f565b6002546101d590650100000000009004600160a060020a031681565b6002546102a890610100900463ffffffff1681565b60405163ffffffff9091168152602001610134565b61016f6102cb3660046111ed565b610cb0565b600061030b8787878787876040516020016102f096959493929190611238565b60405160208183030381529060405280519060200120610316565b979650505050505050565b6040517f19457468657265756d205369676e6564204d6573736167653a0a3332000000006020820152603c8101829052600090605c01604051602081830303815290604052805190602001209050919050565b600054600160a060020a036101009091041633146103a55760405160e560020a62461bcd02815260040161039c906112c0565b60405180910390fd5b6103af6000610d67565b565b6000805460ff16156104085760405160e560020a62461bcd02815260206004820152601060248201527f5061757361626c653a2070617573656400000000000000000000000000000000604482015260640161039c565b6002546040517fc15e26ba000000000000000000000000000000000000000000000000000000008152600160a060020a038a81166004830152650100000000009092049091169063c15e26ba90602401602060405180830381865afa158015610475573d6000803e3d6000fd5b505050506040513d601f19601f8201168201806040525081019061049991906112f5565b61050e5760405160e560020a62461bcd02815260206004820152602560248201527f547279696e6720746f2072656c65617365206e6f6e206578697374656e74207460448201527f6f6b656e2e000000000000000000000000000000000000000000000000000000606482015260840161039c565b600254825160ff90911611156105b55760405160e560020a62461bcd02815260206004820152604160248201527f4c656e677468206f66207369676e61747572657320617272617920697320736d60448201527f616c6c6572207468616e20746865207265717569726564207468726573686f6c60648201527f6400000000000000000000000000000000000000000000000000000000000000608482015260a40161039c565b60006105c58888888c89896102d0565b905060005b60025460ff168110156106fa5760006105fc838684815181106105ef576105ef611317565b6020026020010151610962565b6002546040517f0c9c8d9e000000000000000000000000000000000000000000000000000000008152600160a060020a0380841660048301529293506000926501000000000090920490911690630c9c8d9e90602401602060405180830381865afa15801561066f573d6000803e3d6000fd5b505050506040513d601f19601f8201168201806040525081019061069391906112f5565b9050806106e55760405160e560020a62461bcd02815260206004820152601160248201527f496e76616c6964207369676e6174757265000000000000000000000000000000604482015260640161039c565b505080806106f290611346565b9150506105ca565b5063ffffffff871660009081526001602052604090819020905161071f908790611388565b9081526040519081900360200190205460ff161515600114156107875760405160e560020a62461bcd02815260206004820181905260248201527f5472616e73616374696f6e20494420616c72656164792070726f636573736564604482015260640161039c565b60018060008963ffffffff1663ffffffff168152602001908152602001600020866040516107b59190611388565b908152604051908190036020019020805491151560ff1990921691909117905560025463ffffffff87811661010090920416146108835760405160e560020a62461bcd02815260206004820152604b60248201527f44657374696e6174696f6e20436861696e204964206e6f7420657175616c207460448201527f6f2074686520426c6f636b636861696e20686f7374696e67207468697320667560648201527f6e6374696f6e2063616c6c000000000000000000000000000000000000000000608482015260a40161039c565b6040517fa9059cbb000000000000000000000000000000000000000000000000000000008152600160a060020a038981166004830152602482018690528a169063a9059cbb906044016020604051808303816000875af11580156108eb573d6000803e3d6000fd5b505050506040513d601f19601f8201168201806040525081019061090f91906112f5565b507f0780d22bf3acfc9b2c674136adf970cd35b7dfdd7d2cd823e8dc068f9d17b5ff8888888c89894260405161094b97969594939291906113d0565b60405180910390a150600198975050505050505050565b600080600080610971856109e1565b6040805160008152602081018083528b905260ff8516918101919091526060810183905260808101829052929550909350915060019060a0016020604051602081039080840390855afa1580156109cc573d6000803e3d6000fd5b5050604051601f190151979650505050505050565b600080600083516041146109f457600080fd5b5050506020810151604082015160609092015160001a92909190565b6000805460ff1615610a675760405160e560020a62461bcd02815260206004820152601060248201527f5061757361626c653a2070617573656400000000000000000000000000000000604482015260640161039c565b6002546040517fc15e26ba000000000000000000000000000000000000000000000000000000008152600160a060020a038581166004830152650100000000009092049091169063c15e26ba90602401602060405180830381865afa158015610ad4573d6000803e3d6000fd5b505050506040513d601f19601f82011682018060405250810190610af891906112f5565b610b6c5760405160e560020a62461bcd028152602060048201526024808201527f547279696e6720746f20627269646765206e6f6e206578697374656e7420746f60448201527f6b656e2e00000000000000000000000000000000000000000000000000000000606482015260840161039c565b6040517f23b872dd00000000000000000000000000000000000000000000000000000000815233600482015230602482015260448101839052600160a060020a038416906323b872dd906064016020604051808303816000875af1158015610bd8573d6000803e3d6000fd5b505050506040513d601f19601f82011682018060405250810190610bfc91906112f5565b506002546040517f2b22864dce6f5f0e1eec190017d755d1c54cc3a6b032c3d026d2276b2d2541f891610c4c913391899163ffffffff610100830416918a918a918a9160ff909116904290611426565b60405180910390a1506001949350505050565b600054600160a060020a03610100909104163314610c925760405160e560020a62461bcd02815260040161039c906112c0565b60028160ff1610610cad576002805460ff191660ff83161790555b50565b600054600160a060020a03610100909104163314610ce35760405160e560020a62461bcd02815260040161039c906112c0565b600160a060020a038116610d625760405160e560020a62461bcd02815260206004820152602660248201527f4f776e61626c653a206e6577206f776e657220697320746865207a65726f206160448201527f6464726573730000000000000000000000000000000000000000000000000000606482015260840161039c565b610cad815b60008054600160a060020a0383811661010081810274ffffffffffffffffffffffffffffffffffffffff0019851617855560405193049190911692909183917f8be0079c531659141344cd1fd0a4f28419497f9722a3daafe3b4186f6b6457e091a35050565b8035600160a060020a0381168114610de457600080fd5b919050565b803563ffffffff81168114610de457600080fd5b7f4e487b7100000000000000000000000000000000000000000000000000000000600052604160045260246000fd5b604051601f8201601f1916810167ffffffffffffffff81118282101715610e5557610e55610dfd565b604052919050565b600082601f830112610e6e57600080fd5b813567ffffffffffffffff811115610e8857610e88610dfd565b610e9b601f8201601f1916602001610e2c565b818152846020838601011115610eb057600080fd5b816020850160208301376000918101602001919091529392505050565b60008060008060008060c08789031215610ee657600080fd5b610eef87610dcd565b9550610efd60208801610de9565b9450610f0b60408801610de9565b9350610f1960608801610dcd565b9250608087013567ffffffffffffffff811115610f3557600080fd5b610f4189828a01610e5d565b92505060a087013590509295509295509295565b600060208284031215610f6757600080fd5b5035919050565b60008060408385031215610f8157600080fd5b610f8a83610de9565b9150602083013567ffffffffffffffff811115610fa657600080fd5b610fb285828601610e5d565b9150509250929050565b600080600080600080600060e0888a031215610fd757600080fd5b610fe088610dcd565b9650610fee60208901610dcd565b9550610ffc60408901610de9565b945061100a60608901610de9565b9350608088013567ffffffffffffffff8082111561102757600080fd5b6110338b838c01610e5d565b945060a08a0135935060c08a013591508082111561105057600080fd5b818a0191508a601f83011261106457600080fd5b81358181111561107657611076610dfd565b611084602080830201610e2c565b818152602091820284018201918101908d8311156110a157600080fd5b602085015b838110156110da5784813511156110bc57600080fd5b6110cc8f60208335890101610e5d565b8352602092830192016110a6565b50809550505050505092959891949750929550565b6000806040838503121561110257600080fd5b82359150602083013567ffffffffffffffff811115610fa657600080fd5b60006020828403121561113257600080fd5b813567ffffffffffffffff81111561114957600080fd5b61115584828501610e5d565b949350505050565b6000806000806080858703121561117357600080fd5b843567ffffffffffffffff81111561118a57600080fd5b61119687828801610e5d565b9450506111a560208601610de9565b92506111b360408601610dcd565b9396929550929360600135925050565b6000602082840312156111d557600080fd5b813560ff811681146111e657600080fd5b9392505050565b6000602082840312156111ff57600080fd5b6111e682610dcd565b60005b8381101561122357818101518382015260200161120b565b83811115611232576000848401525b50505050565b6c01000000000000000000000000600160a060020a03888116820283527c010000000000000000000000000000000000000000000000000000000063ffffffff898116820260148601528816026018840152851602601c82015282516000906112a8816030850160208801611208565b60309201918201929092526050019695505050505050565b6020808252818101527f4f776e61626c653a2063616c6c6572206973206e6f7420746865206f776e6572604082015260600190565b60006020828403121561130757600080fd5b815180151581146111e657600080fd5b7f4e487b7100000000000000000000000000000000000000000000000000000000600052603260045260246000fd5b6000600019821415611381577f4e487b7100000000000000000000000000000000000000000000000000000000600052601160045260246000fd5b5060010190565b6000825161139a818460208701611208565b9190910192915050565b600081518084526113bc816020860160208601611208565b601f01601f19169290920160200192915050565b600160a060020a03888116825263ffffffff8881166020840152871660408301528516606082015260e060808201819052600090611410908301866113a4565b60a08301949094525060c0015295945050505050565b6000610100600160a060020a03808c16845281602085015261144a8285018c6113a4565b63ffffffff9a8b166040860152989099166060840152505093909516608084015260a083019190915260ff1660c082015260e001919091529291505056fea2646970667358221220f69e6dba3f0d74a41f9e51e237007039bc9536d2090db08558eeaac156b882e064736f6c634300080a0033",
  "immutableReferences": {},
  "source": "// SPDX-License-Identifier: MIT\npragma solidity ^0.8.0;\nimport \"@openzeppelin/contracts/security/Pausable.sol\";\nimport \"@openzeppelin/contracts/access/Ownable.sol\";\nimport \"@openzeppelin/contracts/token/ERC20/IERC20.sol\";\nimport \"./interfaces/IBridgeState.sol\";\n\ncontract Bridge is Pausable, Ownable {\n    // Mapping of  processed root chain transactions by root chain ID and txn hash. We follow official EVM Chain Id Standards.\n    // e.g:\n    // 1 is Ethereum Mainnet\n    // 4 is Rinkeby\n    mapping(uint32 => mapping(string => bool)) public processedTxnIds;\n\n    uint8 public signatureThreshold = 2;\n\n    // This variable ensures the bridge contract can check its own ID is equal to destinationChainId inside release tokens logic.\n    uint32 public thisChainId; // Ethereum Mainnet Chain is Id'd 1;\n\n    address public stateContract; // This address is basically of BridgeState which contains all the verifying methods and governance methods of the bridge.\n\n    // To make things ready-to-run. Deployer provides 3 Soldier addresses in constructor. Deployer is automatically bridge admin, owner, and pauser role.\n    constructor(uint32 chainId, address _stateAddress) {\n        thisChainId = chainId;\n        stateContract = _stateAddress;\n    }\n\n    // Events to monitor the bridge.\n\n    event Lock(\n        address fromAddr,\n        string toAddr,\n        uint32 rootChainId,\n        uint32 destinationChainId,\n        address tokenAddr,\n        uint256 amount,\n        uint8 signatureThreshold,\n        uint256 timestamp\n    );\n\n    event BridgeSuccess(\n        address toAddr,\n        uint32 rootChainId,\n        uint32 destinationChainId,\n        address tokenAddr,\n        string rootTxnId,\n        uint256 amount,\n        uint256 timestamp\n    );\n\n    // Multisig variables.\n    function changeSignatureThreshold(uint8 newThreshold) public onlyOwner {\n        if (newThreshold >= 2) {\n            signatureThreshold = newThreshold;\n        }\n    }\n\n    // Release Tokens.\n    function releaseTokens(\n        address tokenAddr,\n        address toAddr,\n        uint32 rootChainId,\n        uint32 destinationChainId,\n        string memory rootTxnId,\n        uint256 amount,\n        bytes[] memory signatures\n    ) public whenNotPaused returns (bool) {\n        require(\n            IBridgeState(stateContract).isTokenValid(tokenAddr),\n            \"Trying to release non existent token.\"\n        );\n        // Require that you have enough signature to run the validation scheme.\n        require(\n            signatures.length >= signatureThreshold,\n            \"Length of signatures array is smaller than the required threshold\"\n        );\n\n        // Reconstruct the hash that the soldiers signed using the function parameters.\n        bytes32 reconstructedHash = reconstructMessageHash(\n            toAddr,\n            rootChainId,\n            destinationChainId,\n            tokenAddr,\n            rootTxnId,\n            amount\n        );\n        for (uint256 i = 0; i < signatureThreshold; i++) {\n            address verifiedAddress = recoverSigner(\n                reconstructedHash,\n                signatures[i]\n            );\n            bool checkSoldier = IBridgeState(stateContract).isSoldier(\n                verifiedAddress\n            );\n            require(checkSoldier, \"Invalid signature\");\n        }\n\n        // Check that this transaction has never been processed before.\n        require(\n            processedTxnIds[rootChainId][rootTxnId] != true,\n            \"Transaction ID already processed\"\n        );\n        processedTxnIds[rootChainId][rootTxnId] = true;\n\n        // Emit success event.\n        require(\n            destinationChainId == thisChainId,\n            \"Destination Chain Id not equal to the Blockchain hosting this function call\"\n        );\n\n        // Transfer.\n        IERC20(tokenAddr).transfer(toAddr, amount);\n\n        emit BridgeSuccess(\n            toAddr,\n            rootChainId,\n            destinationChainId,\n            tokenAddr,\n            rootTxnId,\n            amount,\n            block.timestamp\n        );\n        return true;\n    }\n\n    // Lock tokens inside the bridge.\n    // Root chain will automatically be the ID of the chain where this contract is deployed to.\n    // tokenAddr will be checked against Whitelist.\n    function lockTokens(\n        string memory toAddr,\n        uint32 destinationChainId,\n        address tokenAddr,\n        uint256 amount\n    ) public whenNotPaused returns (bool) {\n        require(\n            IBridgeState(stateContract).isTokenValid(tokenAddr),\n            \"Trying to bridge non existent token.\"\n        );\n        IERC20(tokenAddr).transferFrom(msg.sender, address(this), amount);\n        // Lock event accounts with rootChainId = thisChainId.\n        emit Lock(\n            msg.sender,\n            toAddr,\n            thisChainId,\n            destinationChainId,\n            tokenAddr,\n            amount,\n            signatureThreshold,\n            block.timestamp\n        );\n        return true;\n    }\n\n    // Utils.\n    function prefixed(bytes32 message) public pure returns (bytes32) {\n        return\n            keccak256(\n                abi.encodePacked(\"\\x19Ethereum Signed Message:\\n32\", message)\n            );\n    }\n\n    function recoverSigner(bytes32 message, bytes memory sig)\n        public\n        pure\n        returns (address)\n    {\n        uint8 v;\n        bytes32 r;\n        bytes32 s;\n\n        (v, r, s) = splitSignature(sig);\n\n        return ecrecover(message, v, r, s);\n    }\n\n    function splitSignature(bytes memory sig)\n        public\n        pure\n        returns (\n            uint8,\n            bytes32,\n            bytes32\n        )\n    {\n        require(sig.length == 65);\n\n        bytes32 r;\n        bytes32 s;\n        uint8 v;\n\n        assembly {\n            // first 32 bytes, after the length prefix.\n            r := mload(add(sig, 32))\n            // second 32 bytes.\n            s := mload(add(sig, 64))\n            // final byte (first byte of the next 32 bytes).\n            v := byte(0, mload(add(sig, 96)))\n        }\n\n        return (v, r, s);\n    }\n\n    function reconstructMessageHash(\n        address toAddr,\n        uint32 rootChainId,\n        uint32 destinationChainId,\n        address tokenAddr,\n        string memory rootTxnId,\n        uint256 amount\n    ) public pure returns (bytes32) {\n        return\n            prefixed(\n                keccak256(\n                    abi.encodePacked(\n                        toAddr,\n                        rootChainId,\n                        destinationChainId,\n                        tokenAddr,\n                        rootTxnId,\n                        amount\n                    )\n                )\n            );\n    }\n}\n",
  "sourcePath": "/home/cicd/contract/zerobridge-smart-contracts/contracts/Bridge.sol",
  "compiler": {
    "name": "solc",
    "version": "0.8.10+commit.fc410830.Emscripten.clang"
  },
  "schemaVersion": "3.4.4",
  "updatedAt": "2022-01-21T07:24:20.971Z",
  "networkType": "ethereum",
  "devdoc": {
    "kind": "dev",
    "methods": {
      "owner()": {
        "details": "Returns the address of the current owner."
      },
      "paused()": {
        "details": "Returns true if the contract is paused, and false otherwise."
      },
      "renounceOwnership()": {
        "details": "Leaves the contract without owner. It will not be possible to call `onlyOwner` functions anymore. Can only be called by the current owner. NOTE: Renouncing ownership will leave the contract without an owner, thereby removing any functionality that is only available to the owner."
      },
      "transferOwnership(address)": {
        "details": "Transfers ownership of the contract to a new account (`newOwner`). Can only be called by the current owner."
      }
    },
    "version": 1
  },
  "userdoc": {
    "kind": "user",
    "methods": {},
    "version": 1
  }
}