{
  "contractName": "Bridge",
  "abi": [
    {
      "inputs": [
        {
          "internalType": "address[3]",
          "name": "initialSoldiers",
          "type": "address[3]"
        },
        {
          "internalType": "uint8",
          "name": "chainId",
          "type": "uint8"
        },
        {
          "internalType": "address[2]",
          "name": "tokens",
          "type": "address[2]"
        }
      ],
      "stateMutability": "nonpayable",
      "type": "constructor"
    },
    {
      "anonymous": false,
      "inputs": [
        {
          "indexed": false,
          "internalType": "address",
          "name": "toAddr",
          "type": "address"
        },
        {
          "indexed": false,
          "internalType": "uint8",
          "name": "rootChainId",
          "type": "uint8"
        },
        {
          "indexed": false,
          "internalType": "uint8",
          "name": "destinationChainId",
          "type": "uint8"
        },
        {
          "indexed": false,
          "internalType": "address",
          "name": "tokenAddr",
          "type": "address"
        },
        {
          "indexed": false,
          "internalType": "string",
          "name": "rootTxnId",
          "type": "string"
        },
        {
          "indexed": false,
          "internalType": "uint256",
          "name": "amount",
          "type": "uint256"
        },
        {
          "indexed": false,
          "internalType": "uint256",
          "name": "timestamp",
          "type": "uint256"
        }
      ],
      "name": "BridgeSuccess",
      "type": "event"
    },
    {
      "anonymous": false,
      "inputs": [
        {
          "indexed": false,
          "internalType": "address",
          "name": "fromAddr",
          "type": "address"
        },
        {
          "indexed": false,
          "internalType": "string",
          "name": "toAddr",
          "type": "string"
        },
        {
          "indexed": false,
          "internalType": "uint8",
          "name": "rootChainId",
          "type": "uint8"
        },
        {
          "indexed": false,
          "internalType": "uint8",
          "name": "destinationChainId",
          "type": "uint8"
        },
        {
          "indexed": false,
          "internalType": "address",
          "name": "tokenAddr",
          "type": "address"
        },
        {
          "indexed": false,
          "internalType": "uint256",
          "name": "amount",
          "type": "uint256"
        },
        {
          "indexed": false,
          "internalType": "uint8",
          "name": "signatureThreshold",
          "type": "uint8"
        },
        {
          "indexed": false,
          "internalType": "uint256",
          "name": "timestamp",
          "type": "uint256"
        }
      ],
      "name": "Lock",
      "type": "event"
    },
    {
      "anonymous": false,
      "inputs": [
        {
          "indexed": true,
          "internalType": "address",
          "name": "previousOwner",
          "type": "address"
        },
        {
          "indexed": true,
          "internalType": "address",
          "name": "newOwner",
          "type": "address"
        }
      ],
      "name": "OwnershipTransferred",
      "type": "event"
    },
    {
      "anonymous": false,
      "inputs": [
        {
          "indexed": false,
          "internalType": "address",
          "name": "account",
          "type": "address"
        }
      ],
      "name": "Paused",
      "type": "event"
    },
    {
      "anonymous": false,
      "inputs": [
        {
          "indexed": false,
          "internalType": "address",
          "name": "account",
          "type": "address"
        }
      ],
      "name": "Unpaused",
      "type": "event"
    },
    {
      "inputs": [
        {
          "internalType": "uint256",
          "name": "",
          "type": "uint256"
        }
      ],
      "name": "assetIdToTokenAddress",
      "outputs": [
        {
          "internalType": "address",
          "name": "",
          "type": "address"
        }
      ],
      "stateMutability": "view",
      "type": "function",
      "constant": true
    },
    {
      "inputs": [
        {
          "internalType": "address",
          "name": "",
          "type": "address"
        }
      ],
      "name": "isBridgeAdmin",
      "outputs": [
        {
          "internalType": "bool",
          "name": "",
          "type": "bool"
        }
      ],
      "stateMutability": "view",
      "type": "function",
      "constant": true
    },
    {
      "inputs": [
        {
          "internalType": "address",
          "name": "",
          "type": "address"
        }
      ],
      "name": "isSoldier",
      "outputs": [
        {
          "internalType": "bool",
          "name": "",
          "type": "bool"
        }
      ],
      "stateMutability": "view",
      "type": "function",
      "constant": true
    },
    {
      "inputs": [],
      "name": "owner",
      "outputs": [
        {
          "internalType": "address",
          "name": "",
          "type": "address"
        }
      ],
      "stateMutability": "view",
      "type": "function",
      "constant": true
    },
    {
      "inputs": [],
      "name": "paused",
      "outputs": [
        {
          "internalType": "bool",
          "name": "",
          "type": "bool"
        }
      ],
      "stateMutability": "view",
      "type": "function",
      "constant": true
    },
    {
      "inputs": [
        {
          "internalType": "uint8",
          "name": "",
          "type": "uint8"
        },
        {
          "internalType": "string",
          "name": "",
          "type": "string"
        }
      ],
      "name": "processedTxnIds",
      "outputs": [
        {
          "internalType": "bool",
          "name": "",
          "type": "bool"
        }
      ],
      "stateMutability": "view",
      "type": "function",
      "constant": true
    },
    {
      "inputs": [],
      "name": "renounceOwnership",
      "outputs": [],
      "stateMutability": "nonpayable",
      "type": "function"
    },
    {
      "inputs": [],
      "name": "signatureThreshold",
      "outputs": [
        {
          "internalType": "uint8",
          "name": "",
          "type": "uint8"
        }
      ],
      "stateMutability": "view",
      "type": "function",
      "constant": true
    },
    {
      "inputs": [],
      "name": "thisChainId",
      "outputs": [
        {
          "internalType": "uint8",
          "name": "",
          "type": "uint8"
        }
      ],
      "stateMutability": "view",
      "type": "function",
      "constant": true
    },
    {
      "inputs": [
        {
          "internalType": "address",
          "name": "",
          "type": "address"
        }
      ],
      "name": "tokenWhitelist",
      "outputs": [
        {
          "internalType": "bool",
          "name": "",
          "type": "bool"
        }
      ],
      "stateMutability": "view",
      "type": "function",
      "constant": true
    },
    {
      "inputs": [
        {
          "internalType": "address",
          "name": "newOwner",
          "type": "address"
        }
      ],
      "name": "transferOwnership",
      "outputs": [],
      "stateMutability": "nonpayable",
      "type": "function"
    },
    {
      "inputs": [
        {
          "internalType": "address",
          "name": "adminAddr",
          "type": "address"
        }
      ],
      "name": "addAdmin",
      "outputs": [],
      "stateMutability": "nonpayable",
      "type": "function"
    },
    {
      "inputs": [
        {
          "internalType": "address",
          "name": "adminAddr",
          "type": "address"
        }
      ],
      "name": "removeAdmin",
      "outputs": [],
      "stateMutability": "nonpayable",
      "type": "function"
    },
    {
      "inputs": [],
      "name": "renounceAdmin",
      "outputs": [],
      "stateMutability": "nonpayable",
      "type": "function"
    },
    {
      "inputs": [
        {
          "internalType": "address",
          "name": "soldierAddr",
          "type": "address"
        }
      ],
      "name": "addSoldier",
      "outputs": [],
      "stateMutability": "nonpayable",
      "type": "function"
    },
    {
      "inputs": [
        {
          "internalType": "address",
          "name": "soldierAddr",
          "type": "address"
        }
      ],
      "name": "removeSoldier",
      "outputs": [],
      "stateMutability": "nonpayable",
      "type": "function"
    },
    {
      "inputs": [],
      "name": "renounceSoldier",
      "outputs": [],
      "stateMutability": "nonpayable",
      "type": "function"
    },
    {
      "inputs": [
        {
          "internalType": "uint8",
          "name": "newThreshold",
          "type": "uint8"
        }
      ],
      "name": "changeSignatureThreshold",
      "outputs": [],
      "stateMutability": "nonpayable",
      "type": "function"
    },
    {
      "inputs": [
        {
          "internalType": "address",
          "name": "tokenAddr",
          "type": "address"
        }
      ],
      "name": "addTokenToBridge",
      "outputs": [],
      "stateMutability": "nonpayable",
      "type": "function"
    },
    {
      "inputs": [
        {
          "internalType": "address",
          "name": "tokenAddr",
          "type": "address"
        }
      ],
      "name": "removeTokenFromBridge",
      "outputs": [],
      "stateMutability": "nonpayable",
      "type": "function"
    },
    {
      "inputs": [
        {
          "internalType": "uint256",
          "name": "assetId",
          "type": "uint256"
        },
        {
          "internalType": "address",
          "name": "tokenAddr",
          "type": "address"
        }
      ],
      "name": "addAssetToBridgeMapping",
      "outputs": [],
      "stateMutability": "nonpayable",
      "type": "function"
    },
    {
      "inputs": [
        {
          "internalType": "uint256",
          "name": "assetId",
          "type": "uint256"
        }
      ],
      "name": "removeAssetFromBridgeMapping",
      "outputs": [],
      "stateMutability": "nonpayable",
      "type": "function"
    },
    {
      "inputs": [
        {
          "internalType": "address",
          "name": "toAddr",
          "type": "address"
        },
        {
          "internalType": "uint8",
          "name": "rootChainId",
          "type": "uint8"
        },
        {
          "internalType": "uint8",
          "name": "destinationChainId",
          "type": "uint8"
        },
        {
          "internalType": "address",
          "name": "tokenAddr",
          "type": "address"
        },
        {
          "internalType": "string",
          "name": "rootTxnId",
          "type": "string"
        },
        {
          "internalType": "uint256",
          "name": "amount",
          "type": "uint256"
        },
        {
          "internalType": "bytes[]",
          "name": "signatures",
          "type": "bytes[]"
        }
      ],
      "name": "releaseTokens",
      "outputs": [
        {
          "internalType": "bool",
          "name": "",
          "type": "bool"
        }
      ],
      "stateMutability": "nonpayable",
      "type": "function"
    },
    {
      "inputs": [
        {
          "internalType": "string",
          "name": "toAddr",
          "type": "string"
        },
        {
          "internalType": "uint8",
          "name": "destinationChainId",
          "type": "uint8"
        },
        {
          "internalType": "address",
          "name": "tokenAddr",
          "type": "address"
        },
        {
          "internalType": "uint256",
          "name": "amount",
          "type": "uint256"
        }
      ],
      "name": "lockTokens",
      "outputs": [
        {
          "internalType": "bool",
          "name": "",
          "type": "bool"
        }
      ],
      "stateMutability": "nonpayable",
      "type": "function"
    },
    {
      "inputs": [
        {
          "internalType": "bytes32",
          "name": "message",
          "type": "bytes32"
        }
      ],
      "name": "prefixed",
      "outputs": [
        {
          "internalType": "bytes32",
          "name": "",
          "type": "bytes32"
        }
      ],
      "stateMutability": "pure",
      "type": "function",
      "constant": true
    },
    {
      "inputs": [
        {
          "internalType": "bytes32",
          "name": "message",
          "type": "bytes32"
        },
        {
          "internalType": "bytes",
          "name": "sig",
          "type": "bytes"
        }
      ],
      "name": "recoverSigner",
      "outputs": [
        {
          "internalType": "address",
          "name": "",
          "type": "address"
        }
      ],
      "stateMutability": "pure",
      "type": "function",
      "constant": true
    },
    {
      "inputs": [
        {
          "internalType": "bytes",
          "name": "sig",
          "type": "bytes"
        }
      ],
      "name": "splitSignature",
      "outputs": [
        {
          "internalType": "uint8",
          "name": "",
          "type": "uint8"
        },
        {
          "internalType": "bytes32",
          "name": "",
          "type": "bytes32"
        },
        {
          "internalType": "bytes32",
          "name": "",
          "type": "bytes32"
        }
      ],
      "stateMutability": "pure",
      "type": "function",
      "constant": true
    },
    {
      "inputs": [
        {
          "internalType": "address",
          "name": "toAddr",
          "type": "address"
        },
        {
          "internalType": "uint8",
          "name": "rootChainId",
          "type": "uint8"
        },
        {
          "internalType": "uint8",
          "name": "destinationChainId",
          "type": "uint8"
        },
        {
          "internalType": "address",
          "name": "tokenAddr",
          "type": "address"
        },
        {
          "internalType": "string",
          "name": "rootTxnId",
          "type": "string"
        },
        {
          "internalType": "uint256",
          "name": "amount",
          "type": "uint256"
        }
      ],
      "name": "reconstructMessageHash",
      "outputs": [
        {
          "internalType": "bytes32",
          "name": "",
          "type": "bytes32"
        }
      ],
      "stateMutability": "pure",
      "type": "function",
      "constant": true
    }
  ],
  "bytecode": "0x60806040526006805461ffff191660021790553480156200001f57600080fd5b5060405162001c1d38038062001c1d833981016040819052620000429162000269565b6000805460ff19169055620000726200006364010000000062000126810204565b6401000000006200012a810204565b3360009081526003602090815260408083208054600160ff1991821681179092558751600160a060020a03908116865260028552838620805483168417905588850151811686528386208054831684179055978301518816855282852080548216831790556006805460ff989098166101000261ff00199098169790971790965584518716845260058352818420805487168217905593909101519094168152929092208054909116909117905562000312565b3390565b60008054600160a060020a0383811661010081810261010060a860020a0319851617855560405193049190911692909183917f8be0079c531659141344cd1fd0a4f28419497f9722a3daafe3b4186f6b6457e091a35050565b7f4e487b7100000000000000000000000000000000000000000000000000000000600052604160045260246000fd5b604051606081016001604060020a0381118282101715620001d757620001d762000183565b60405290565b8051600160a060020a0381168114620001f557600080fd5b919050565b6000604051604081018181106001604060020a038211171562000221576200022162000183565b806040525080915060408301848111156200023b57600080fd5b835b8181101562000260576200025181620001dd565b8352602092830192016200023d565b50505092915050565b600080600060c084860312156200027f57600080fd5b84601f8501126200028f57600080fd5b62000299620001b2565b806060860187811115620002ac57600080fd5b865b81811015620002d157620002c281620001dd565b845260209384019301620002ae565b5051909450905060ff81168114620002e857600080fd5b9150609f84018513620002fa57600080fd5b620003098560808601620001fa565b90509250925092565b6118fb80620003226000396000f3fe608060405234801561001057600080fd5b50600436106101e1576000357c0100000000000000000000000000000000000000000000000000000000900480638bad0c0a11610116578063aa426b0c116100b4578063cc1bb6181161008e578063cc1bb61814610462578063e3d29c5d14610475578063f2fde38b14610487578063f34581851461049a57600080fd5b8063aa426b0c14610434578063b94e14dc1461043c578063c3fc83f01461044f57600080fd5b8063985dddcb116100f0578063985dddcb146103bd5780639a12717f146103d0578063a7bb5803146103e3578063a82f2e261461041557600080fd5b80638bad0c0a1461038c5780638da5cb5b1461039457806397aba7f9146103aa57600080fd5b80634dc7dac211610183578063704802751161015d578063704802751461033b578063715018a61461034e578063753d7563146103565780637604b6ee1461037957600080fd5b80634dc7dac2146102fa5780635619e07a1461030d5780635c975abb1461033057600080fd5b80631f275713116101bf5780631f27571314610246578063341319761461026757806340dd0b26146102a6578063486474e6146102e757600080fd5b80630c9c8d9e146101e65780631785f53c1461021e5780631d36765414610233575b600080fd5b6102096101f43660046111af565b60026020526000908152604090205460ff1681565b60405190151581526020015b60405180910390f35b61023161022c3660046111af565b6104ad565b005b6102316102413660046111af565b61050a565b6102596102543660046111d1565b61055d565b604051908152602001610215565b6102096102753660046112cb565b6001602090815260009283526040909220815180830184018051928152908401929093019190912091525460ff1681565b6102cf6102b43660046111d1565b600460205260009081526040902054600160a060020a031681565b604051600160a060020a039091168152602001610215565b6102096102f5366004611319565b6105b0565b6102316103083660046111d1565b610a3a565b61020961031b3660046111af565b60036020526000908152604090205460ff1681565b60005460ff16610209565b6102316103493660046111af565b610a97565b610231610aee565b6102096103643660046111af565b60056020526000908152604090205460ff1681565b61025961038736600461144c565b610b2d565b610231610b73565b6000546101009004600160a060020a03166102cf565b6102cf6103b83660046114d4565b610bbe565b6102316103cb366004611505565b610c3d565b6102316103de3660046111af565b610caa565b6103f66103f1366004611531565b610cfd565b6040805160ff9094168452602084019290925290820152606001610215565b6006546104229060ff1681565b60405160ff9091168152602001610215565b610231610d2c565b61023161044a3660046111af565b610dcd565b61023161045d36600461156e565b610e23565b6102316104703660046111af565b610e6c565b60065461042290610100900460ff1681565b6102316104953660046111af565b610ec2565b6102096104a8366004611589565b610f80565b600054600160a060020a036101009091041633146104e95760405160e560020a62461bcd0281526004016104e0906115ef565b60405180910390fd5b600160a060020a03166000908152600360205260409020805460ff19169055565b3360009081526003602052604090205460ff1661053c5760405160e560020a62461bcd0281526004016104e090611624565b600160a060020a03166000908152600260205260409020805460ff19169055565b6040517f19457468657265756d205369676e6564204d6573736167653a0a3332000000006020820152603c8101829052600090605c01604051602081830303815290604052805190602001209050919050565b6000805460ff16156106075760405160e560020a62461bcd02815260206004820152601060248201527f5061757361626c653a207061757365640000000000000000000000000000000060448201526064016104e0565b600654825160ff90911611156106ae5760405160e560020a62461bcd02815260206004820152604160248201527f4c656e677468206f66207369676e61747572657320617272617920697320736d60448201527f616c6c6572207468616e20746865207265717569726564207468726573686f6c60648201527f6400000000000000000000000000000000000000000000000000000000000000608482015260a4016104e0565b60006106be898989898989610b2d565b905060005b60065460ff1681101561077557600260006106f7848785815181106106ea576106ea611681565b6020026020010151610bbe565b600160a060020a0316815260208101919091526040016000205460ff166107635760405160e560020a62461bcd02815260206004820152601160248201527f496e76616c6964207369676e617475726500000000000000000000000000000060448201526064016104e0565b8061076d816116b0565b9150506106c3565b50600160a060020a03861660009081526005602052604090205460ff166107e15760405160e560020a62461bcd02815260206004820152600d60248201527f496e76616c696420746f6b656e0000000000000000000000000000000000000060448201526064016104e0565b60ff8816600090815260016020526040908190209051610802908790611722565b9081526040519081900360200190205460ff1615156001141561086a5760405160e560020a62461bcd02815260206004820181905260248201527f5472616e73616374696f6e20494420616c72656164792070726f63657373656460448201526064016104e0565b60018060008a60ff1660ff168152602001908152602001600020866040516108929190611722565b908152604051908190036020018120805492151560ff19909316929092179091557fa9059cbb000000000000000000000000000000000000000000000000000000008152600160a060020a038a811660048301526024820186905287169063a9059cbb906044016020604051808303816000875af1158015610918573d6000803e3d6000fd5b505050506040513d601f19601f8201168201806040525081019061093c919061173e565b5060065460ff88811661010090920416146109e85760405160e560020a62461bcd02815260206004820152604b60248201527f44657374696e6174696f6e20436861696e204964206e6f7420657175616c207460448201527f6f2074686520426c6f636b636861696e20686f7374696e67207468697320667560648201527f6e6374696f6e2063616c6c000000000000000000000000000000000000000000608482015260a4016104e0565b7f0cd925a13b84a4bbc7400074eac9389f22a87f7b7bfb42bd1fa9a404ecfe443589898989898942604051610a23979695949392919061178c565b60405180910390a150600198975050505050505050565b3360009081526003602052604090205460ff16610a6c5760405160e560020a62461bcd0281526004016104e090611624565b6000908152600460205260409020805473ffffffffffffffffffffffffffffffffffffffff19169055565b600054600160a060020a03610100909104163314610aca5760405160e560020a62461bcd0281526004016104e0906115ef565b600160a060020a03166000908152600360205260409020805460ff19166001179055565b600054600160a060020a03610100909104163314610b215760405160e560020a62461bcd0281526004016104e0906115ef565b610b2b600061112d565b565b6000610b68878787878787604051602001610b4d969594939291906117e0565b6040516020818303038152906040528051906020012061055d565b979650505050505050565b3360009081526003602052604090205460ff16610ba55760405160e560020a62461bcd0281526004016104e090611624565b336000908152600360205260409020805460ff19169055565b600080600080610bcd85610cfd565b6040805160008152602081018083528b905260ff8516918101919091526060810183905260808101829052929550909350915060019060a0016020604051602081039080840390855afa158015610c28573d6000803e3d6000fd5b5050604051601f190151979650505050505050565b3360009081526003602052604090205460ff16610c6f5760405160e560020a62461bcd0281526004016104e090611624565b600091825260046020526040909120805473ffffffffffffffffffffffffffffffffffffffff1916600160a060020a03909216919091179055565b3360009081526003602052604090205460ff16610cdc5760405160e560020a62461bcd0281526004016104e090611624565b600160a060020a03166000908152600560205260409020805460ff19169055565b60008060008351604114610d1057600080fd5b5050506020810151604082015160609092015160001a92909190565b3360009081526002602052604090205460ff16610db45760405160e560020a62461bcd02815260206004820152602360248201527f4e6f7420612070617274206f662074686520536f6c646965722077686974656c60448201527f697374000000000000000000000000000000000000000000000000000000000060648201526084016104e0565b336000908152600260205260409020805460ff19169055565b3360009081526003602052604090205460ff16610dff5760405160e560020a62461bcd0281526004016104e090611624565b600160a060020a03166000908152600560205260409020805460ff19166001179055565b600054600160a060020a03610100909104163314610e565760405160e560020a62461bcd0281526004016104e0906115ef565b6006805460ff191660ff92909216919091179055565b3360009081526003602052604090205460ff16610e9e5760405160e560020a62461bcd0281526004016104e090611624565b600160a060020a03166000908152600260205260409020805460ff19166001179055565b600054600160a060020a03610100909104163314610ef55760405160e560020a62461bcd0281526004016104e0906115ef565b600160a060020a038116610f745760405160e560020a62461bcd02815260206004820152602660248201527f4f776e61626c653a206e6577206f776e657220697320746865207a65726f206160448201527f646472657373000000000000000000000000000000000000000000000000000060648201526084016104e0565b610f7d8161112d565b50565b6000805460ff1615610fd75760405160e560020a62461bcd02815260206004820152601060248201527f5061757361626c653a207061757365640000000000000000000000000000000060448201526064016104e0565b600160a060020a03831660009081526005602052604090205460ff166110425760405160e560020a62461bcd02815260206004820181905260248201527f546f6b656e206e6f74206163636570746564206279206f75722062726964676560448201526064016104e0565b6040517f23b872dd00000000000000000000000000000000000000000000000000000000815233600482015230602482015260448101839052600160a060020a038416906323b872dd906064016020604051808303816000875af11580156110ae573d6000803e3d6000fd5b505050506040513d601f19601f820116820180604052508101906110d2919061173e565b506006546040516000917f55f28fc02ed60de184042341135208d1922588c8774a99b3dd2ddd58d5114dba916111199133918a9186918b918b918b9160ff16904290611868565b60405180910390a150600195945050505050565b60008054600160a060020a0383811661010081810274ffffffffffffffffffffffffffffffffffffffff0019851617855560405193049190911692909183917f8be0079c531659141344cd1fd0a4f28419497f9722a3daafe3b4186f6b6457e091a35050565b8035600160a060020a03811681146111aa57600080fd5b919050565b6000602082840312156111c157600080fd5b6111ca82611193565b9392505050565b6000602082840312156111e357600080fd5b5035919050565b803560ff811681146111aa57600080fd5b7f4e487b7100000000000000000000000000000000000000000000000000000000600052604160045260246000fd5b604051601f8201601f1916810167ffffffffffffffff81118282101715611253576112536111fb565b604052919050565b600082601f83011261126c57600080fd5b813567ffffffffffffffff811115611286576112866111fb565b611299601f8201601f191660200161122a565b8181528460208386010111156112ae57600080fd5b816020850160208301376000918101602001919091529392505050565b600080604083850312156112de57600080fd5b6112e7836111ea565b9150602083013567ffffffffffffffff81111561130357600080fd5b61130f8582860161125b565b9150509250929050565b600080600080600080600060e0888a03121561133457600080fd5b61133d88611193565b965061134b602089016111ea565b9550611359604089016111ea565b945061136760608901611193565b9350608088013567ffffffffffffffff8082111561138457600080fd5b6113908b838c0161125b565b945060a08a0135935060c08a01359150808211156113ad57600080fd5b818a0191508a601f8301126113c157600080fd5b8135818111156113d3576113d36111fb565b6113e160208083020161122a565b818152602091820284018201918101908d8311156113fe57600080fd5b602085015b8381101561143757848135111561141957600080fd5b6114298f6020833589010161125b565b835260209283019201611403565b50809550505050505092959891949750929550565b60008060008060008060c0878903121561146557600080fd5b61146e87611193565b955061147c602088016111ea565b945061148a604088016111ea565b935061149860608801611193565b9250608087013567ffffffffffffffff8111156114b457600080fd5b6114c089828a0161125b565b92505060a087013590509295509295509295565b600080604083850312156114e757600080fd5b82359150602083013567ffffffffffffffff81111561130357600080fd5b6000806040838503121561151857600080fd5b8235915061152860208401611193565b90509250929050565b60006020828403121561154357600080fd5b813567ffffffffffffffff81111561155a57600080fd5b6115668482850161125b565b949350505050565b60006020828403121561158057600080fd5b6111ca826111ea565b6000806000806080858703121561159f57600080fd5b843567ffffffffffffffff8111156115b657600080fd5b6115c28782880161125b565b9450506115d1602086016111ea565b92506115df60408601611193565b9396929550929360600135925050565b6020808252818101527f4f776e61626c653a2063616c6c6572206973206e6f7420746865206f776e6572604082015260600190565b60208082526028908201527f4e6f7420612070617274206f6620746865204272696467652041646d696e207760408201527f686974656c697374000000000000000000000000000000000000000000000000606082015260800190565b7f4e487b7100000000000000000000000000000000000000000000000000000000600052603260045260246000fd5b60006000198214156116eb577f4e487b7100000000000000000000000000000000000000000000000000000000600052601160045260246000fd5b5060010190565b60005b8381101561170d5781810151838201526020016116f5565b8381111561171c576000848401525b50505050565b600082516117348184602087016116f2565b9190910192915050565b60006020828403121561175057600080fd5b815180151581146111ca57600080fd5b600081518084526117788160208601602086016116f2565b601f01601f19169290920160200192915050565b6000600160a060020a03808a16835260ff8916602084015260ff8816604084015280871660608401525060e060808301526117ca60e0830186611760565b60a08301949094525060c0015295945050505050565b6c01000000000000000000000000600160a060020a03888116820283527f010000000000000000000000000000000000000000000000000000000000000060ff8981168202601486015288160260158401528516026016820152825160009061185081602a8501602088016116f2565b602a920191820192909252604a019695505050505050565b6000610100600160a060020a03808c16845281602085015261188c8285018c611760565b60ff9a8b166040860152988a1660608501529690961660808301525060a0810193909352941660c082015260e00192909252939250505056fea26469706673582212208adb833e1a9cb8c6c833e7f46c4069d84ed8fb11197b95b61f088797319d4f3464736f6c634300080a0033",
  "immutableReferences": {},
  "source": "// SPDX-License-Identifier: MIT\npragma solidity ^0.8.0;\nimport \"@openzeppelin/contracts/security/Pausable.sol\";\nimport \"@openzeppelin/contracts/access/Ownable.sol\";\nimport \"@openzeppelin/contracts/token/ERC20/IERC20.sol\";\n\ncontract Bridge is Pausable, Ownable {\n    // Mapping of  processed root chain transactions by root chain ID and txn hash.\n    // e.g:\n    // 0 is Ethereum\n    // 1 is Algorand\n    // 2 is Polygon, etc.\n    mapping(uint8 => mapping(string => bool)) public processedTxnIds;\n\n    // Defining roles.\n    // There can be an owner, an admin, and a soldier.\n    // The owner can transfer ownership of contract, choose new admins/soldiers and revoke them.\n    // Admins can add and revoke soldiers.\n    mapping(address => bool) public isSoldier;\n    mapping(address => bool) public isBridgeAdmin;\n\n    // Mapping to link every asset from other chains to its EVM-based pair.\n    mapping(uint256 => address) public assetIdToTokenAddress;\n    mapping(address => bool) public tokenWhitelist;\n\n    uint8 public signatureThreshold = 2;\n    uint8 public thisChainId = 0; // Ethereum Chain is Id'd 0;\n\n    // To make things ready-to-run. Deployer provides 3 Soldier addresses in constructor. Deployer is automatically bridge admin, owner, and pauser role.\n    constructor(\n        address[3] memory initialSoldiers,\n        uint8 chainId,\n        address[2] memory tokens\n    ) {\n        isBridgeAdmin[msg.sender] = true;\n        isSoldier[initialSoldiers[0]] = true;\n        isSoldier[initialSoldiers[1]] = true;\n        isSoldier[initialSoldiers[2]] = true;\n        thisChainId = chainId;\n        tokenWhitelist[tokens[0]] = true;\n        tokenWhitelist[tokens[1]] = true;\n    }\n\n    // Events to monitor the bridge.\n\n    event Lock(\n        address fromAddr,\n        string toAddr,\n        uint8 rootChainId,\n        uint8 destinationChainId,\n        address tokenAddr,\n        uint256 amount,\n        uint8 signatureThreshold,\n        uint256 timestamp\n    );\n\n    event BridgeSuccess(\n        address toAddr,\n        uint8 rootChainId,\n        uint8 destinationChainId,\n        address tokenAddr,\n        string rootTxnId,\n        uint256 amount,\n        uint256 timestamp\n    );\n\n    // Role assignment and modifiers.\n    modifier onlySoldier() {\n        require(isSoldier[msg.sender], \"Not a part of the Soldier whitelist\");\n        _;\n    }\n    modifier onlyAdmin() {\n        require(\n            isBridgeAdmin[msg.sender],\n            \"Not a part of the Bridge Admin whitelist\"\n        );\n        _;\n    }\n\n    function addAdmin(address adminAddr) external onlyOwner {\n        isBridgeAdmin[adminAddr] = true;\n    }\n\n    function removeAdmin(address adminAddr) external onlyOwner {\n        isBridgeAdmin[adminAddr] = false;\n    }\n\n    function renounceAdmin() external onlyAdmin {\n        isBridgeAdmin[msg.sender] = false;\n    }\n\n    function addSoldier(address soldierAddr) external onlyAdmin {\n        isSoldier[soldierAddr] = true;\n    }\n\n    function removeSoldier(address soldierAddr) external onlyAdmin {\n        isSoldier[soldierAddr] = false;\n    }\n\n    function renounceSoldier() external onlySoldier {\n        isSoldier[msg.sender] = false;\n    }\n\n    // Multisig variables.\n    function changeSignatureThreshold(uint8 newThreshold) public onlyOwner {\n        signatureThreshold = newThreshold;\n    }\n\n    // Token whitelist & mappings manipulation.\n    function addTokenToBridge(address tokenAddr) public onlyAdmin {\n        tokenWhitelist[tokenAddr] = true;\n    }\n\n    function removeTokenFromBridge(address tokenAddr) public onlyAdmin {\n        tokenWhitelist[tokenAddr] = false;\n    }\n\n    function addAssetToBridgeMapping(uint256 assetId, address tokenAddr)\n        public\n        onlyAdmin\n    {\n        assetIdToTokenAddress[assetId] = tokenAddr;\n    }\n\n    function removeAssetFromBridgeMapping(uint256 assetId) public onlyAdmin {\n        assetIdToTokenAddress[assetId] = address(0);\n    }\n\n    // Bridging mechanisms, modifier whenNotPaused function is applied. Pauser role can pause locking and releasing in case of problem.\n\n    // Release Tokens.\n    function releaseTokens(\n        address toAddr,\n        uint8 rootChainId,\n        uint8 destinationChainId,\n        address tokenAddr,\n        string memory rootTxnId,\n        uint256 amount,\n        bytes[] memory signatures\n    ) public whenNotPaused returns (bool) {\n        // Require that you have enough signature to run the validation scheme.\n        require(\n            signatures.length >= signatureThreshold,\n            \"Length of signatures array is smaller than the required threshold\"\n        );\n\n        // Reconstruct the hash that the soldiers signed using the function parameters.\n        bytes32 reconstructedHash = reconstructMessageHash(\n            toAddr,\n            rootChainId,\n            destinationChainId,\n            tokenAddr,\n            rootTxnId,\n            amount\n        );\n        for (uint256 i = 0; i < signatureThreshold; i++) {\n            require(\n                isSoldier[recoverSigner(reconstructedHash, signatures[i])],\n                \"Invalid signature\"\n            );\n        }\n\n        // Grabbing the ERC20 Token Address from the Foreign Chains Asset Mapping.\n        require(tokenWhitelist[tokenAddr], \"Invalid token\");\n\n        // Check that this transaction has never been processed before.\n        require(\n            processedTxnIds[rootChainId][rootTxnId] != true,\n            \"Transaction ID already processed\"\n        );\n        processedTxnIds[rootChainId][rootTxnId] = true;\n\n        // Transfer.\n        IERC20(tokenAddr).transfer(toAddr, amount);\n\n        // Emit success event.\n        require(\n            destinationChainId == thisChainId,\n            \"Destination Chain Id not equal to the Blockchain hosting this function call\"\n        ); // Ethereum is ID: 0.\n        emit BridgeSuccess(\n            toAddr,\n            rootChainId,\n            destinationChainId,\n            tokenAddr,\n            rootTxnId,\n            amount,\n            block.timestamp\n        );\n        return true;\n    }\n\n    // Lock tokens inside the bridge.\n    // Root chain will automatically be the ID of the chain where this contract is deployed to.\n    // tokenAddr will be checked against Whitelist.\n    function lockTokens(\n        string memory toAddr,\n        uint8 destinationChainId,\n        address tokenAddr,\n        uint256 amount\n    ) public whenNotPaused returns (bool) {\n        require(tokenWhitelist[tokenAddr], \"Token not accepted by our bridge\");\n        IERC20(tokenAddr).transferFrom(msg.sender, address(this), amount);\n        // Lock event accounts for rootChainId. Here, we set it to 0 (Ethereum).\n        uint8 rootChainId = 0; // Ethereum ID.\n        emit Lock(\n            msg.sender,\n            toAddr,\n            rootChainId,\n            destinationChainId,\n            tokenAddr,\n            amount,\n            signatureThreshold,\n            block.timestamp\n        );\n        return true;\n    }\n\n    // Utils.\n    function prefixed(bytes32 message) public pure returns (bytes32) {\n        return\n            keccak256(\n                abi.encodePacked(\"\\x19Ethereum Signed Message:\\n32\", message)\n            );\n    }\n\n    function recoverSigner(bytes32 message, bytes memory sig)\n        public\n        pure\n        returns (address)\n    {\n        uint8 v;\n        bytes32 r;\n        bytes32 s;\n\n        (v, r, s) = splitSignature(sig);\n\n        return ecrecover(message, v, r, s);\n    }\n\n    function splitSignature(bytes memory sig)\n        public\n        pure\n        returns (\n            uint8,\n            bytes32,\n            bytes32\n        )\n    {\n        require(sig.length == 65);\n\n        bytes32 r;\n        bytes32 s;\n        uint8 v;\n\n        assembly {\n            // first 32 bytes, after the length prefix.\n            r := mload(add(sig, 32))\n            // second 32 bytes.\n            s := mload(add(sig, 64))\n            // final byte (first byte of the next 32 bytes).\n            v := byte(0, mload(add(sig, 96)))\n        }\n\n        return (v, r, s);\n    }\n\n    function reconstructMessageHash(\n        address toAddr,\n        uint8 rootChainId,\n        uint8 destinationChainId,\n        address tokenAddr,\n        string memory rootTxnId,\n        uint256 amount\n    ) public pure returns (bytes32) {\n        return\n            prefixed(\n                keccak256(\n                    abi.encodePacked(\n                        toAddr,\n                        rootChainId,\n                        destinationChainId,\n                        tokenAddr,\n                        rootTxnId,\n                        amount\n                    )\n                )\n            );\n    }\n}\n",
  "sourcePath": "/home/cicd/contract/zerobridge-smart-contracts/contracts/Bridge.sol",
  "compiler": {
    "name": "solc",
    "version": "0.8.10+commit.fc410830.Emscripten.clang"
  },
  "schemaVersion": "3.4.4",
  "updatedAt": "2022-01-17T19:11:28.860Z",
  "networkType": "ethereum",
  "devdoc": {
    "kind": "dev",
    "methods": {
      "owner()": {
        "details": "Returns the address of the current owner."
      },
      "paused()": {
        "details": "Returns true if the contract is paused, and false otherwise."
      },
      "renounceOwnership()": {
        "details": "Leaves the contract without owner. It will not be possible to call `onlyOwner` functions anymore. Can only be called by the current owner. NOTE: Renouncing ownership will leave the contract without an owner, thereby removing any functionality that is only available to the owner."
      },
      "transferOwnership(address)": {
        "details": "Transfers ownership of the contract to a new account (`newOwner`). Can only be called by the current owner."
      }
    },
    "version": 1
  },
  "userdoc": {
    "kind": "user",
    "methods": {},
    "version": 1
  }
}