{
  "contractName": "BridgeGovernance",
  "abi": [
    {
      "anonymous": false,
      "inputs": [
        {
          "indexed": false,
          "internalType": "address",
          "name": "previousAdmin",
          "type": "address"
        },
        {
          "indexed": false,
          "internalType": "address",
          "name": "newAdmin",
          "type": "address"
        }
      ],
      "name": "AdminChanged",
      "type": "event"
    },
    {
      "anonymous": false,
      "inputs": [
        {
          "indexed": true,
          "internalType": "address",
          "name": "beacon",
          "type": "address"
        }
      ],
      "name": "BeaconUpgraded",
      "type": "event"
    },
    {
      "anonymous": false,
      "inputs": [
        {
          "indexed": false,
          "internalType": "uint8",
          "name": "version",
          "type": "uint8"
        }
      ],
      "name": "Initialized",
      "type": "event"
    },
    {
      "anonymous": false,
      "inputs": [
        {
          "indexed": false,
          "internalType": "address",
          "name": "soldierAddress",
          "type": "address"
        }
      ],
      "name": "LogSoldierAdded",
      "type": "event"
    },
    {
      "anonymous": false,
      "inputs": [
        {
          "indexed": false,
          "internalType": "address",
          "name": "soldierAddress",
          "type": "address"
        }
      ],
      "name": "LogSoldierRemoved",
      "type": "event"
    },
    {
      "anonymous": false,
      "inputs": [
        {
          "indexed": false,
          "internalType": "uint8",
          "name": "threshold",
          "type": "uint8"
        }
      ],
      "name": "LogThresholdChanged",
      "type": "event"
    },
    {
      "anonymous": false,
      "inputs": [
        {
          "indexed": false,
          "internalType": "address",
          "name": "tokenAddress",
          "type": "address"
        }
      ],
      "name": "LogTokenAdded",
      "type": "event"
    },
    {
      "anonymous": false,
      "inputs": [
        {
          "indexed": false,
          "internalType": "address",
          "name": "tokenAddress",
          "type": "address"
        }
      ],
      "name": "LogTokenRemoved",
      "type": "event"
    },
    {
      "anonymous": false,
      "inputs": [
        {
          "indexed": true,
          "internalType": "address",
          "name": "implementation",
          "type": "address"
        }
      ],
      "name": "Upgraded",
      "type": "event"
    },
    {
      "inputs": [
        {
          "internalType": "address",
          "name": "",
          "type": "address"
        }
      ],
      "name": "soldiers",
      "outputs": [
        {
          "internalType": "bool",
          "name": "",
          "type": "bool"
        }
      ],
      "stateMutability": "view",
      "type": "function"
    },
    {
      "inputs": [],
      "name": "thisChainId",
      "outputs": [
        {
          "internalType": "uint32",
          "name": "",
          "type": "uint32"
        }
      ],
      "stateMutability": "view",
      "type": "function"
    },
    {
      "inputs": [
        {
          "internalType": "address",
          "name": "",
          "type": "address"
        }
      ],
      "name": "tokens",
      "outputs": [
        {
          "internalType": "bool",
          "name": "",
          "type": "bool"
        }
      ],
      "stateMutability": "view",
      "type": "function"
    },
    {
      "inputs": [
        {
          "internalType": "uint32",
          "name": "",
          "type": "uint32"
        },
        {
          "internalType": "string",
          "name": "",
          "type": "string"
        }
      ],
      "name": "transactions",
      "outputs": [
        {
          "internalType": "bool",
          "name": "processed",
          "type": "bool"
        }
      ],
      "stateMutability": "view",
      "type": "function"
    },
    {
      "inputs": [
        {
          "internalType": "address[]",
          "name": "initialSoldiers",
          "type": "address[]"
        },
        {
          "internalType": "address[]",
          "name": "initialTokens",
          "type": "address[]"
        },
        {
          "internalType": "uint8",
          "name": "threshold",
          "type": "uint8"
        },
        {
          "internalType": "uint32",
          "name": "chainId",
          "type": "uint32"
        }
      ],
      "name": "initialize",
      "outputs": [],
      "stateMutability": "nonpayable",
      "type": "function"
    },
    {
      "inputs": [
        {
          "internalType": "address",
          "name": "tokenAddress",
          "type": "address"
        },
        {
          "internalType": "uint256",
          "name": "requestNonce",
          "type": "uint256"
        },
        {
          "internalType": "bytes[]",
          "name": "signatures",
          "type": "bytes[]"
        }
      ],
      "name": "addToken",
      "outputs": [],
      "stateMutability": "nonpayable",
      "type": "function"
    },
    {
      "inputs": [
        {
          "internalType": "address",
          "name": "tokenAddress",
          "type": "address"
        },
        {
          "internalType": "uint256",
          "name": "requestNonce",
          "type": "uint256"
        },
        {
          "internalType": "bytes[]",
          "name": "signatures",
          "type": "bytes[]"
        }
      ],
      "name": "removeToken",
      "outputs": [],
      "stateMutability": "nonpayable",
      "type": "function"
    },
    {
      "inputs": [
        {
          "internalType": "uint8",
          "name": "threshold",
          "type": "uint8"
        },
        {
          "internalType": "uint256",
          "name": "requestNonce",
          "type": "uint256"
        },
        {
          "internalType": "bytes[]",
          "name": "signatures",
          "type": "bytes[]"
        }
      ],
      "name": "changeSignatureThreshold",
      "outputs": [],
      "stateMutability": "nonpayable",
      "type": "function"
    },
    {
      "inputs": [
        {
          "internalType": "address",
          "name": "soldierAddress",
          "type": "address"
        },
        {
          "internalType": "uint256",
          "name": "requestNonce",
          "type": "uint256"
        },
        {
          "internalType": "bytes[]",
          "name": "signatures",
          "type": "bytes[]"
        }
      ],
      "name": "addSoldier",
      "outputs": [],
      "stateMutability": "nonpayable",
      "type": "function"
    },
    {
      "inputs": [
        {
          "internalType": "address",
          "name": "soldierAddress",
          "type": "address"
        },
        {
          "internalType": "uint256",
          "name": "requestNonce",
          "type": "uint256"
        },
        {
          "internalType": "bytes[]",
          "name": "signatures",
          "type": "bytes[]"
        }
      ],
      "name": "removeSoldier",
      "outputs": [],
      "stateMutability": "nonpayable",
      "type": "function"
    },
    {
      "inputs": [
        {
          "internalType": "address",
          "name": "newImplementation",
          "type": "address"
        },
        {
          "internalType": "uint256",
          "name": "requestNonce",
          "type": "uint256"
        },
        {
          "internalType": "bytes[]",
          "name": "signatures",
          "type": "bytes[]"
        }
      ],
      "name": "upgrade",
      "outputs": [],
      "stateMutability": "nonpayable",
      "type": "function"
    },
    {
      "inputs": [],
      "name": "getNonce",
      "outputs": [
        {
          "internalType": "uint256",
          "name": "",
          "type": "uint256"
        }
      ],
      "stateMutability": "view",
      "type": "function"
    }
  ],
  "bytecode": "0x6080604052600060015534801561001557600080fd5b50611705806100256000396000f3fe608060405234801561001057600080fd5b50600436106100d1576000357c01000000000000000000000000000000000000000000000000000000009004806394c4395b1161008e57806394c4395b1461019b578063b3aa7620146101ae578063d087d288146101c1578063e02a3343146101d2578063e3d29c5d146101e5578063e48603391461020a57600080fd5b8063071743ed146100d65780631e93cb9e1461010e57806327546ef8146101235780636426a18d146101365780637a8a0067146101495780638f230ba314610188575b600080fd5b6100f96100e4366004611175565b60036020526000908152604090205460ff1681565b60405190151581526020015b60405180910390f35b61012161011c366004611292565b61022d565b005b610121610131366004611401565b6105b4565b610121610144366004611401565b610726565b6100f9610157366004611458565b6006602090815260009283526040909220815180830184018051928152908401929093019190912091525460ff1681565b610121610196366004611401565b6108bb565b6101216101a9366004611401565b6109db565b6101216101bc3660046114ba565b610a58565b600154604051908152602001610105565b6101216101e0366004611401565b610b31565b6007546101f59063ffffffff1681565b60405163ffffffff9091168152602001610105565b6100f9610218366004611175565b60046020526000908152604090205460ff1681565b60006102396001610c55565b90508015610259576007805465ff00000000001916650100000000001790555b8260ff16855110156102b55760405160e560020a62461bcd02815260206004820152601360248201527f4e6f7420656e6f75676820736f6c64696572730000000000000000000000000060448201526064015b60405180910390fd5b600285516102c391906114f1565b8360ff16116102e75760405160e560020a62461bcd0281526004016102ac90611516565b60005b85518160ff1610156104055760036000878360ff168151811061030f5761030f611573565b602090810291909101810151600160a060020a031682528101919091526040016000205460ff16156103865760405160e560020a62461bcd02815260206004820152601560248201527f536f6c6469657220616c7265616479206164646564000000000000000000000060448201526064016102ac565b600160036000888460ff16815181106103a1576103a1611573565b602090810291909101810151600160a060020a031682528181019290925260409081016000908120805494151560ff1995861617905560018054825260058452828220338352909352208054909216179055806103fd8161158c565b9150506102ea565b50845160009081555b84518160ff1610156105295760046000868360ff168151811061043357610433611573565b602090810291909101810151600160a060020a031682528101919091526040016000205460ff16156104aa5760405160e560020a62461bcd02815260206004820152601360248201527f546f6b656e20616c72656164792061646465640000000000000000000000000060448201526064016102ac565b600160046000878460ff16815181106104c5576104c5611573565b602090810291909101810151600160a060020a031682528181019290925260409081016000908120805494151560ff1995861617905560018054825260058452828220338352909352208054909216179055806105218161158c565b91505061040e565b506001805490600061053a836115ac565b90915550506002805460ff191660ff85161790556007805463ffffffff191663ffffffff841617905580156105ad576007805465ff000000000019169055604051600181527f7f26b83ff96e1f2b6a682f133852f6798a09c465da95921460cefb38474024989060200160405180910390a15b5050505050565b3360009081526003602052604090205460ff166105e65760405160e560020a62461bcd0281526004016102ac906115c7565b81600154811461060b5760405160e560020a62461bcd0281526004016102ac90611624565b600160a060020a03841660009081526003602052604090205460ff16156106775760405160e560020a62461bcd02815260206004820152601660248201527f536f6c6469657220616c7265616479206163746976650000000000000000000060448201526064016102ac565b6106996106848585610d02565b60008581526005602052604090208490610d9c565b600160a060020a0384166000908152600360205260408120805460ff19166001179055805490806106c9836115ac565b9091555050604051600160a060020a03851681527f45df561f3a6211cd36a659f28ca50d2c48d04968cdd47fe32229f9ff2c476bd1906020015b60405180910390a16001805490600061071b836115ac565b919050555050505050565b3360009081526003602052604090205460ff166107585760405160e560020a62461bcd0281526004016102ac906115c7565b81600154811461077d5760405160e560020a62461bcd0281526004016102ac90611624565b60025460005460ff909116106107d85760405160e560020a62461bcd02815260206004820152601360248201527f4e6f7420656e6f75676820736f6c64696572730000000000000000000000000060448201526064016102ac565b600160a060020a03841660009081526003602052604090205460ff166108435760405160e560020a62461bcd02815260206004820152600d60248201527f4e6f74206120736f6c696465720000000000000000000000000000000000000060448201526064016102ac565b6108506106848585610d02565b600160a060020a0384166000908152600360205260408120805460ff191690558054908061087d8361165b565b9091555050604051600160a060020a03851681527fa3b8d9f0a704aed051810dffe58189fcc83f68b00d2c06cd86220c18b5d288c690602001610703565b3360009081526003602052604090205460ff166108ed5760405160e560020a62461bcd0281526004016102ac906115c7565b8160015481146109125760405160e560020a62461bcd0281526004016102ac90611624565b600160a060020a03841660009081526004602052604090205460ff1661097d5760405160e560020a62461bcd02815260206004820152601860248201527f546f6b656e20616c7265616479206e6f7420616374697665000000000000000060448201526064016102ac565b61098a6106848585610d02565b600160a060020a038416600081815260046020908152604091829020805460ff1916905590519182527f48207b8b88ad0363606ff7f381bc9ee60bb9b614b5dccd985ae4cb02af0f77c39101610703565b3360009081526003602052604090205460ff16610a0d5760405160e560020a62461bcd0281526004016102ac906115c7565b816001548114610a325760405160e560020a62461bcd0281526004016102ac90611624565b610a3f6106848585610d02565b610a4884610f5e565b6001805490600061071b836115ac565b3360009081526003602052604090205460ff16610a8a5760405160e560020a62461bcd0281526004016102ac906115c7565b816001548114610aaf5760405160e560020a62461bcd0281526004016102ac90611624565b6002600054610abe91906114f1565b8460ff1611610ae25760405160e560020a62461bcd0281526004016102ac90611516565b610aef6106848585610f9e565b6002805460ff191660ff86169081179091556040519081527f1d35c1363b251f7865b1b369641e54ec5729c78010282069b20f2fb0af8621ee90602001610703565b3360009081526003602052604090205460ff16610b635760405160e560020a62461bcd0281526004016102ac906115c7565b816001548114610b885760405160e560020a62461bcd0281526004016102ac90611624565b600160a060020a03841660009081526004602052604090205460ff1615610bf45760405160e560020a62461bcd02815260206004820152601460248201527f546f6b656e20616c72656164792061637469766500000000000000000000000060448201526064016102ac565b610c016106848585610d02565b600160a060020a038416600081815260046020908152604091829020805460ff1916600117905590519182527f5a2cd987faef4fe5343b92ff6b73ef7a6e5ffefa48ef8559a9c99fbe55ebca8f9101610703565b60075460009065010000000000900460ff1615610ca5578160ff166001148015610c7e5750303b155b610c9d5760405160e560020a62461bcd0281526004016102ac90611672565b506000919050565b60075460ff8084166401000000009092041610610cd75760405160e560020a62461bcd0281526004016102ac90611672565b506007805460ff9092166401000000000264ff0000000019909216919091179055600190565b919050565b6040516c01000000000000000000000000600160a060020a03841602602082015260348101829052600090610d95906054015b60408051601f1981840301815282825280516020918201207f19457468657265756d205369676e6564204d6573736167653a0a33320000000084830152603c8085019190915282518085039091018152605c909301909152815191012090565b9392505050565b600254825160ff9091161115610df75760405160e560020a62461bcd02815260206004820152601560248201527f4e6f7420656e6f756768207369676e617475726573000000000000000000000060448201526064016102ac565b6000805b8351811015610efb576000610e2986868481518110610e1c57610e1c611573565b6020026020010151610fe2565b600160a060020a03811660009081526003602052604090205490915060ff1615610e5b5782610e578161158c565b9350505b600160a060020a03811660009081526020859052604090205460ff1615610ec75760405160e560020a62461bcd02815260206004820152601460248201527f4475706c696361746564207369676e617475726500000000000000000000000060448201526064016102ac565b600160a060020a03166000908152602084905260409020805460ff1916600117905580610ef3816115ac565b915050610dfb565b5060025460ff9081169082161015610f585760405160e560020a62461bcd02815260206004820152601b60248201527f4e6f7420656e6f7567682076616c6964207369676e617475726573000000000060448201526064016102ac565b50505050565b610f6781611061565b604051600160a060020a038216907fbc7cd75a20ee27fd9adebab32041f755214dbc6bffa90cc0225b39da2e5c2d3b90600090a250565b6040517f010000000000000000000000000000000000000000000000000000000000000060ff841602602082015260218101829052600090610d9590604101610d35565b600080600080610ff18561112f565b6040805160008152602081018083528b905260ff8516918101919091526060810183905260808101829052929550909350915060019060a0016020604051602081039080840390855afa15801561104c573d6000803e3d6000fd5b5050604051601f190151979650505050505050565b600160a060020a0381163b6110e15760405160e560020a62461bcd02815260206004820152602d60248201527f455243313936373a206e657720696d706c656d656e746174696f6e206973206e60448201527f6f74206120636f6e74726163740000000000000000000000000000000000000060648201526084016102ac565b7f360894a13ba1a3210667c828492db98dca3e2076cc3735a920a3ca505d382bbc805473ffffffffffffffffffffffffffffffffffffffff1916600160a060020a0392909216919091179055565b6000806000835160411461114257600080fd5b5050506020810151604082015160609092015160001a92909190565b8035600160a060020a0381168114610cfd57600080fd5b60006020828403121561118757600080fd5b610d958261115e565b60e060020a634e487b7102600052604160045260246000fd5b604051601f8201601f1916810167ffffffffffffffff811182821017156111d2576111d2611190565b604052919050565b600067ffffffffffffffff8211156111f4576111f4611190565b5060209081020190565b600082601f83011261120f57600080fd5b8135602061122461121f836111da565b6111a9565b8281529181028401810191818101908684111561124057600080fd5b8286015b84811015611262576112558161115e565b8352918301918301611244565b509695505050505050565b803560ff81168114610cfd57600080fd5b803563ffffffff81168114610cfd57600080fd5b600080600080608085870312156112a857600080fd5b843567ffffffffffffffff808211156112c057600080fd5b6112cc888389016111fe565b955060208701359150808211156112e257600080fd5b506112ef878288016111fe565b9350506112fe6040860161126d565b915061130c6060860161127e565b905092959194509250565b600067ffffffffffffffff83111561133157611331611190565b611344601f8401601f19166020016111a9565b905082815283838301111561135857600080fd5b828260208301376000602084830101529392505050565b600082601f83011261138057600080fd5b8135602061139061121f836111da565b828152918102840181019181810190868411156113ac57600080fd5b8286015b8481101561126257803567ffffffffffffffff8111156113d05760008081fd5b8701603f810189136113e25760008081fd5b6113f3898683013560408401611317565b8452509183019183016113b0565b60008060006060848603121561141657600080fd5b61141f8461115e565b925060208401359150604084013567ffffffffffffffff81111561144257600080fd5b61144e8682870161136f565b9150509250925092565b6000806040838503121561146b57600080fd5b6114748361127e565b9150602083013567ffffffffffffffff81111561149057600080fd5b8301601f810185136114a157600080fd5b6114b085823560208401611317565b9150509250929050565b6000806000606084860312156114cf57600080fd5b61141f8461126d565b60e060020a634e487b7102600052601160045260246000fd5b6000826115115760e060020a634e487b7102600052601260045260246000fd5b500490565b60208082526037908201527f5468726573686f6c642073686f756c642062652067726561746572207468616e60408201527f2068616c66206f6620736f6c646965727320636f756e74000000000000000000606082015260800190565b60e060020a634e487b7102600052603260045260246000fd5b600060ff821660ff8114156115a3576115a36114d8565b60010192915050565b60006000198214156115c0576115c06114d8565b5060010190565b60208082526021908201527f63616c6c6572206973206e6f74206f6e65206f662074686520736f6c6469657260408201527f7300000000000000000000000000000000000000000000000000000000000000606082015260800190565b6020808252600d908201527f496e76616c6964206e6f6e636500000000000000000000000000000000000000604082015260600190565b60008161166a5761166a6114d8565b506000190190565b6020808252602e908201527f496e697469616c697a61626c653a20636f6e747261637420697320616c72656160408201527f647920696e697469616c697a656400000000000000000000000000000000000060608201526080019056fea2646970667358221220c05019426d1b4a0e177074fce5226052e5b8b7a93264a15aa729d99905056fe364736f6c634300080a0033",
  "immutableReferences": {},
  "source": "// SPDX-License-Identifier: MIT\npragma solidity ^0.8.0;\n\nimport \"@openzeppelin/contracts/proxy/ERC1967/ERC1967Upgrade.sol\";\nimport \"@openzeppelin/contracts/proxy/utils/Initializable.sol\";\nimport \"./BridgeSignatureValidator.sol\";\n\ncontract BridgeGovernance is\n    BridgeSignatureValidator,\n    ERC1967Upgrade,\n    Initializable\n{\n    event LogTokenAdded(address tokenAddress);\n    event LogTokenRemoved(address tokenAddress);\n    event LogSoldierAdded(address soldierAddress);\n    event LogSoldierRemoved(address soldierAddress);\n    event LogThresholdChanged(uint8 threshold);\n\n    function initialize(\n        address[] memory initialSoldiers,\n        address[] memory initialTokens,\n        uint8 threshold,\n        uint32 chainId\n    ) public initializer {\n        require(initialSoldiers.length >= threshold, \"Not enough soldiers\");\n        require(threshold > initialSoldiers.length / 2, \"Threshold should be greater than half of soldiers count\");\n        for (uint8 i = 0; i < initialSoldiers.length; i++) {\n            require(!soldiers[initialSoldiers[i]], \"Soldier already added\");\n            soldiers[initialSoldiers[i]] = true;\n            signers[nonce][msg.sender] = true;\n        }\n        soldierCount = initialSoldiers.length;\n\n        for (uint8 i = 0; i < initialTokens.length; i++) {\n            require(!tokens[initialTokens[i]], \"Token already added\");\n            tokens[initialTokens[i]] = true;\n            signers[nonce][msg.sender] = true;\n        }\n        nonce++;\n\n        signaturesThreshold = threshold;\n        thisChainId = chainId;\n    }\n\n    modifier onlySoldier() {\n        require(soldiers[msg.sender], \"caller is not one of the soldiers\");\n        _;\n    }\n\n    modifier validNonce(uint256 requestNonce) {\n        require(requestNonce == nonce, \"Invalid nonce\");\n        _;\n        nonce++;\n    }\n\n    function addToken(\n        address tokenAddress,\n        uint256 requestNonce,\n        bytes[] memory signatures\n    ) public onlySoldier validNonce(requestNonce) {\n        require(!tokens[tokenAddress], \"Token already active\");\n        validateSignatures(\n            reconstructMessage(tokenAddress, requestNonce),\n            signatures,\n            signers[requestNonce]\n        );\n        tokens[tokenAddress] = true;\n        emit LogTokenAdded(tokenAddress);\n    }\n\n    function removeToken(\n        address tokenAddress,\n        uint256 requestNonce,\n        bytes[] memory signatures\n    ) public onlySoldier validNonce(requestNonce) {\n        require(tokens[tokenAddress], \"Token already not active\");\n        validateSignatures(\n            reconstructMessage(tokenAddress, requestNonce),\n            signatures,\n            signers[requestNonce]\n        );\n        delete tokens[tokenAddress];\n        emit LogTokenRemoved(tokenAddress);\n    }\n\n    function changeSignatureThreshold(\n        uint8 threshold,\n        uint256 requestNonce,\n        bytes[] memory signatures\n    ) public onlySoldier validNonce(requestNonce) {\n        require(threshold > soldierCount / 2, \"Threshold should be greater than half of soldiers count\");\n        validateSignatures(\n            reconstructMessageUint8(threshold, requestNonce),\n            signatures,\n            signers[requestNonce]\n        );\n        signaturesThreshold = threshold;\n        emit LogThresholdChanged(threshold);\n    }\n\n    function addSoldier(\n        address soldierAddress,\n        uint256 requestNonce,\n        bytes[] memory signatures\n    ) public onlySoldier validNonce(requestNonce) {\n        require(!soldiers[soldierAddress], \"Soldier already active\");\n        validateSignatures(\n            reconstructMessage(soldierAddress, requestNonce),\n            signatures,\n            signers[requestNonce]\n        );\n        soldiers[soldierAddress] = true;\n        soldierCount++;\n        emit LogSoldierAdded(soldierAddress);\n    }\n\n    function removeSoldier(\n        address soldierAddress,\n        uint256 requestNonce,\n        bytes[] memory signatures\n    ) public onlySoldier validNonce(requestNonce) {\n        require(soldierCount > signaturesThreshold, \"Not enough soldiers\");\n        require(soldiers[soldierAddress], \"Not a solider\");\n        validateSignatures(\n            reconstructMessage(soldierAddress, requestNonce),\n            signatures,\n            signers[requestNonce]\n        );\n        delete soldiers[soldierAddress];\n        soldierCount--;\n        emit LogSoldierRemoved(soldierAddress);\n    }\n\n    function upgrade(\n        address newImplementation,\n        uint256 requestNonce,\n        bytes[] memory signatures\n    ) public onlySoldier validNonce(requestNonce) {\n        validateSignatures(\n            reconstructMessage(newImplementation, requestNonce),\n            signatures,\n            signers[requestNonce]\n        );\n        _upgradeTo(newImplementation);\n    }\n\n    function getNonce() public view returns (uint256) {\n        return nonce;\n    }\n\n    function reconstructMessage(address addressToAdd, uint256 requestNonce)\n        private\n        pure\n        returns (bytes32)\n    {\n        return\n            prefixed(keccak256(abi.encodePacked(addressToAdd, requestNonce)));\n    }\n\n    function reconstructMessageUint8(uint8 number, uint256 requestNonce)\n        private\n        pure\n        returns (bytes32)\n    {\n        return prefixed(keccak256(abi.encodePacked(number, requestNonce)));\n    }\n}\n",
  "sourcePath": "/home/cicd/contract/bridge-ethereum-assets-beta/contracts/BridgeGovernance.sol",
  "compiler": {
    "name": "solc",
    "version": "0.8.10+commit.fc410830.Emscripten.clang"
  },
  "schemaVersion": "3.4.4",
  "updatedAt": "2024-09-14T06:13:42.353Z",
  "devdoc": {
    "kind": "dev",
    "methods": {},
    "version": 1
  },
  "userdoc": {
    "kind": "user",
    "methods": {},
    "version": 1
  }
}