{
  "contractName": "AramidAuroraTokenMainnet",
  "abi": [
    {
      "inputs": [
        {
          "internalType": "address",
          "name": "bridgeContract",
          "type": "address"
        }
      ],
      "stateMutability": "nonpayable",
      "type": "constructor"
    },
    {
      "anonymous": false,
      "inputs": [
        {
          "indexed": true,
          "internalType": "address",
          "name": "owner",
          "type": "address"
        },
        {
          "indexed": true,
          "internalType": "address",
          "name": "spender",
          "type": "address"
        },
        {
          "indexed": false,
          "internalType": "uint256",
          "name": "value",
          "type": "uint256"
        }
      ],
      "name": "Approval",
      "type": "event"
    },
    {
      "anonymous": false,
      "inputs": [
        {
          "indexed": true,
          "internalType": "address",
          "name": "from",
          "type": "address"
        },
        {
          "indexed": true,
          "internalType": "address",
          "name": "to",
          "type": "address"
        },
        {
          "indexed": false,
          "internalType": "uint256",
          "name": "value",
          "type": "uint256"
        }
      ],
      "name": "Transfer",
      "type": "event"
    },
    {
      "inputs": [
        {
          "internalType": "address",
          "name": "owner",
          "type": "address"
        },
        {
          "internalType": "address",
          "name": "spender",
          "type": "address"
        }
      ],
      "name": "allowance",
      "outputs": [
        {
          "internalType": "uint256",
          "name": "",
          "type": "uint256"
        }
      ],
      "stateMutability": "view",
      "type": "function",
      "constant": true
    },
    {
      "inputs": [
        {
          "internalType": "address",
          "name": "spender",
          "type": "address"
        },
        {
          "internalType": "uint256",
          "name": "amount",
          "type": "uint256"
        }
      ],
      "name": "approve",
      "outputs": [
        {
          "internalType": "bool",
          "name": "",
          "type": "bool"
        }
      ],
      "stateMutability": "nonpayable",
      "type": "function"
    },
    {
      "inputs": [
        {
          "internalType": "address",
          "name": "account",
          "type": "address"
        }
      ],
      "name": "balanceOf",
      "outputs": [
        {
          "internalType": "uint256",
          "name": "",
          "type": "uint256"
        }
      ],
      "stateMutability": "view",
      "type": "function",
      "constant": true
    },
    {
      "inputs": [],
      "name": "bridgeContract",
      "outputs": [
        {
          "internalType": "address",
          "name": "",
          "type": "address"
        }
      ],
      "stateMutability": "view",
      "type": "function",
      "constant": true
    },
    {
      "inputs": [],
      "name": "decimals",
      "outputs": [
        {
          "internalType": "uint8",
          "name": "",
          "type": "uint8"
        }
      ],
      "stateMutability": "view",
      "type": "function",
      "constant": true
    },
    {
      "inputs": [
        {
          "internalType": "address",
          "name": "spender",
          "type": "address"
        },
        {
          "internalType": "uint256",
          "name": "subtractedValue",
          "type": "uint256"
        }
      ],
      "name": "decreaseAllowance",
      "outputs": [
        {
          "internalType": "bool",
          "name": "",
          "type": "bool"
        }
      ],
      "stateMutability": "nonpayable",
      "type": "function"
    },
    {
      "inputs": [
        {
          "internalType": "address",
          "name": "spender",
          "type": "address"
        },
        {
          "internalType": "uint256",
          "name": "addedValue",
          "type": "uint256"
        }
      ],
      "name": "increaseAllowance",
      "outputs": [
        {
          "internalType": "bool",
          "name": "",
          "type": "bool"
        }
      ],
      "stateMutability": "nonpayable",
      "type": "function"
    },
    {
      "inputs": [],
      "name": "name",
      "outputs": [
        {
          "internalType": "string",
          "name": "",
          "type": "string"
        }
      ],
      "stateMutability": "view",
      "type": "function",
      "constant": true
    },
    {
      "inputs": [],
      "name": "symbol",
      "outputs": [
        {
          "internalType": "string",
          "name": "",
          "type": "string"
        }
      ],
      "stateMutability": "view",
      "type": "function",
      "constant": true
    },
    {
      "inputs": [],
      "name": "totalSupply",
      "outputs": [
        {
          "internalType": "uint256",
          "name": "",
          "type": "uint256"
        }
      ],
      "stateMutability": "view",
      "type": "function",
      "constant": true
    },
    {
      "inputs": [
        {
          "internalType": "address",
          "name": "to",
          "type": "address"
        },
        {
          "internalType": "uint256",
          "name": "amount",
          "type": "uint256"
        }
      ],
      "name": "transfer",
      "outputs": [
        {
          "internalType": "bool",
          "name": "",
          "type": "bool"
        }
      ],
      "stateMutability": "nonpayable",
      "type": "function"
    },
    {
      "inputs": [
        {
          "internalType": "address",
          "name": "from",
          "type": "address"
        },
        {
          "internalType": "address",
          "name": "to",
          "type": "address"
        },
        {
          "internalType": "uint256",
          "name": "amount",
          "type": "uint256"
        }
      ],
      "name": "transferFrom",
      "outputs": [
        {
          "internalType": "bool",
          "name": "",
          "type": "bool"
        }
      ],
      "stateMutability": "nonpayable",
      "type": "function"
    }
  ],
  "bytecode": "0x60806040523480156200001157600080fd5b5060405162000d9e38038062000d9e833981016040819052620000349162000305565b6040518060400160405280601781526020017f4172616d6964204175726f72612045544820546f6b656e0000000000000000008152506040518060400160405280600981526020017f6175726f7261455448000000000000000000000000000000000000000000000081525082601283838160039080519060200190620000bd9291906200025f565b508051620000d39060049060208401906200025f565b50506005805460ff8416600160a860020a031990911617610100600160a060020a038681168202929092179283905560001993506200011e920416826401000000006200012a810204565b505050505050620003cd565b600160a060020a0382166200019f576040517f08c379a000000000000000000000000000000000000000000000000000000000815260206004820152601f60248201527f45524332303a206d696e7420746f20746865207a65726f206164647265737300604482015260640160405180910390fd5b620001b6600083836401000000006200025a810204565b8060026000828254620001ca919062000337565b9091555050600160a060020a03821660009081526020819052604081208054839290620001f990849062000337565b9091555050604051818152600160a060020a038316906000907fddf252ad1be2c89b69c2b068fc378daa952ba7f163c4a11628f55a4df523b3ef9060200160405180910390a362000256600083836401000000006200025a810204565b5050565b505050565b8280546200026d9062000377565b90600052602060002090601f016020900481019282620002915760008555620002dc565b82601f10620002ac57805160ff1916838001178555620002dc565b82800160010185558215620002dc579182015b82811115620002dc578251825591602001919060010190620002bf565b50620002ea929150620002ee565b5090565b5b80821115620002ea5760008155600101620002ef565b6000602082840312156200031857600080fd5b8151600160a060020a03811681146200033057600080fd5b9392505050565b6000821982111562000372577f4e487b7100000000000000000000000000000000000000000000000000000000600052601160045260246000fd5b500190565b6002810460018216806200038c57607f821691505b60208210811415620003c7577f4e487b7100000000000000000000000000000000000000000000000000000000600052602260045260246000fd5b50919050565b6109c180620003dd6000396000f3fe608060405234801561001057600080fd5b50600436106100d1576000357c01000000000000000000000000000000000000000000000000000000009004806370a082311161008e57806370a082311461016457806395d89b411461018d578063a457c2d714610195578063a9059cbb146101a8578063cd596583146101bb578063dd62ed3e146101eb57600080fd5b806306fdde03146100d6578063095ea7b3146100f457806318160ddd1461011757806323b872dd14610129578063313ce5671461013c5780633950935114610151575b600080fd5b6100de6101fe565b6040516100eb91906107cc565b60405180910390f35b61010761010236600461083d565b610290565b60405190151581526020016100eb565b6002545b6040519081526020016100eb565b610107610137366004610867565b6102a8565b60055460405160ff90911681526020016100eb565b61010761015f36600461083d565b6102cc565b61011b6101723660046108a3565b600160a060020a031660009081526020819052604090205490565b6100de6102ee565b6101076101a336600461083d565b6102fd565b6101076101b636600461083d565b610398565b6005546101d3906101009004600160a060020a031681565b604051600160a060020a0390911681526020016100eb565b61011b6101f93660046108c5565b6103a6565b60606003805461020d906108f8565b80601f0160208091040260200160405190810160405280929190818152602001828054610239906108f8565b80156102865780601f1061025b57610100808354040283529160200191610286565b820191906000526020600020905b81548152906001019060200180831161026957829003601f168201915b5050505050905090565b60003361029e8185856103d1565b5060019392505050565b6000336102b685828561052f565b6102c18585856105ac565b506001949350505050565b60003361029e8185856102df83836103a6565b6102e9919061094c565b6103d1565b60606004805461020d906108f8565b6000338161030b82866103a6565b90508381101561038b5760405160e560020a62461bcd02815260206004820152602560248201527f45524332303a2064656372656173656420616c6c6f77616e63652062656c6f7760448201527f207a65726f00000000000000000000000000000000000000000000000000000060648201526084015b60405180910390fd5b6102c182868684036103d1565b60003361029e8185856105ac565b600160a060020a03918216600090815260016020908152604080832093909416825291909152205490565b600160a060020a03831661044f5760405160e560020a62461bcd028152602060048201526024808201527f45524332303a20617070726f76652066726f6d20746865207a65726f2061646460448201527f72657373000000000000000000000000000000000000000000000000000000006064820152608401610382565b600160a060020a0382166104ce5760405160e560020a62461bcd02815260206004820152602260248201527f45524332303a20617070726f766520746f20746865207a65726f20616464726560448201527f73730000000000000000000000000000000000000000000000000000000000006064820152608401610382565b600160a060020a0383811660008181526001602090815260408083209487168084529482529182902085905590518481527f8c5be1e5ebec7d5bd14f71427d1e84f3dd0314c0f7b2291e5b200ac8c7c3b925910160405180910390a3505050565b600061053b84846103a6565b905060001981146105a657818110156105995760405160e560020a62461bcd02815260206004820152601d60248201527f45524332303a20696e73756666696369656e7420616c6c6f77616e63650000006044820152606401610382565b6105a684848484036103d1565b50505050565b600160a060020a03831661062b5760405160e560020a62461bcd02815260206004820152602560248201527f45524332303a207472616e736665722066726f6d20746865207a65726f20616460448201527f64726573730000000000000000000000000000000000000000000000000000006064820152608401610382565b600160a060020a0382166106aa5760405160e560020a62461bcd02815260206004820152602360248201527f45524332303a207472616e7366657220746f20746865207a65726f206164647260448201527f65737300000000000000000000000000000000000000000000000000000000006064820152608401610382565b600160a060020a0383166000908152602081905260409020548181101561073c5760405160e560020a62461bcd02815260206004820152602660248201527f45524332303a207472616e7366657220616d6f756e742065786365656473206260448201527f616c616e636500000000000000000000000000000000000000000000000000006064820152608401610382565b600160a060020a0380851660009081526020819052604080822085850390559185168152908120805484929061077390849061094c565b9250508190555082600160a060020a031684600160a060020a03167fddf252ad1be2c89b69c2b068fc378daa952ba7f163c4a11628f55a4df523b3ef846040516107bf91815260200190565b60405180910390a36105a6565b600060208083528351808285015260005b818110156107f9578581018301518582016040015282016107dd565b8181111561080b576000604083870101525b50601f01601f1916929092016040019392505050565b8035600160a060020a038116811461083857600080fd5b919050565b6000806040838503121561085057600080fd5b61085983610821565b946020939093013593505050565b60008060006060848603121561087c57600080fd5b61088584610821565b925061089360208501610821565b9150604084013590509250925092565b6000602082840312156108b557600080fd5b6108be82610821565b9392505050565b600080604083850312156108d857600080fd5b6108e183610821565b91506108ef60208401610821565b90509250929050565b60028104600182168061090c57607f821691505b60208210811415610946577f4e487b7100000000000000000000000000000000000000000000000000000000600052602260045260246000fd5b50919050565b60008219821115610986577f4e487b7100000000000000000000000000000000000000000000000000000000600052601160045260246000fd5b50019056fea264697066735822122044ad82ea460c8dbccfde91e859f9ec95a5766b95d12c79e649e72e66f5e2f8ad64736f6c634300080a0033",
  "immutableReferences": {},
  "source": "// SPDX-License-Identifier: MIT\npragma solidity ^0.8.0;\nimport \"@openzeppelin/contracts/token/ERC20/ERC20.sol\";\nimport \"./WrappedAssetToken.sol\";\n\ncontract AramidAuroraTokenMainnet is WrappedAssetToken {\n    constructor(address bridgeContract)\n        WrappedAssetToken(\n            \"Aramid Aurora ETH Token\",\n            \"auroraETH\",\n            bridgeContract,\n            18\n        )\n    {}\n}\n",
  "sourcePath": "/home/scholtz/src/bridge-ethereum-smart-contracts/contracts/AramidAuroraTokenMainnet.sol",
  "compiler": {
    "name": "solc",
    "version": "0.8.10+commit.fc410830.Emscripten.clang"
  },
  "schemaVersion": "3.4.3",
  "updatedAt": "2022-06-06T20:26:32.390Z",
  "networkType": "ethereum",
  "devdoc": {
    "kind": "dev",
    "methods": {
      "allowance(address,address)": {
        "details": "See {IERC20-allowance}."
      },
      "approve(address,uint256)": {
        "details": "See {IERC20-approve}. NOTE: If `amount` is the maximum `uint256`, the allowance is not updated on `transferFrom`. This is semantically equivalent to an infinite approval. Requirements: - `spender` cannot be the zero address."
      },
      "balanceOf(address)": {
        "details": "See {IERC20-balanceOf}."
      },
      "decimals()": {
        "details": "Returns the number of decimals used to get its user representation. For example, if `decimals` equals `2`, a balance of `505` tokens should be displayed to a user as `5.05` (`505 / 10 ** 2`). NOTE: This information is only used for _display_ purposes: it in no way affects any of the arithmetic of the contract, including {IERC20-balanceOf} and {IERC20-transfer}."
      },
      "decreaseAllowance(address,uint256)": {
        "details": "Atomically decreases the allowance granted to `spender` by the caller. This is an alternative to {approve} that can be used as a mitigation for problems described in {IERC20-approve}. Emits an {Approval} event indicating the updated allowance. Requirements: - `spender` cannot be the zero address. - `spender` must have allowance for the caller of at least `subtractedValue`."
      },
      "increaseAllowance(address,uint256)": {
        "details": "Atomically increases the allowance granted to `spender` by the caller. This is an alternative to {approve} that can be used as a mitigation for problems described in {IERC20-approve}. Emits an {Approval} event indicating the updated allowance. Requirements: - `spender` cannot be the zero address."
      },
      "name()": {
        "details": "Returns the name of the token."
      },
      "symbol()": {
        "details": "Returns the symbol of the token, usually a shorter version of the name."
      },
      "totalSupply()": {
        "details": "See {IERC20-totalSupply}."
      },
      "transfer(address,uint256)": {
        "details": "See {IERC20-transfer}. Requirements: - `to` cannot be the zero address. - the caller must have a balance of at least `amount`."
      },
      "transferFrom(address,address,uint256)": {
        "details": "See {IERC20-transferFrom}. Emits an {Approval} event indicating the updated allowance. This is not required by the EIP. See the note at the beginning of {ERC20}. NOTE: Does not update the allowance if the current allowance is the maximum `uint256`. Requirements: - `from` and `to` cannot be the zero address. - `from` must have a balance of at least `amount`. - the caller must have allowance for ``from``'s tokens of at least `amount`."
      }
    },
    "version": 1
  },
  "userdoc": {
    "kind": "user",
    "methods": {},
    "version": 1
  }
}