{
  "contractName": "Bridge",
  "abi": [
    {
      "anonymous": false,
      "inputs": [
        {
          "indexed": false,
          "internalType": "address",
          "name": "previousAdmin",
          "type": "address"
        },
        {
          "indexed": false,
          "internalType": "address",
          "name": "newAdmin",
          "type": "address"
        }
      ],
      "name": "AdminChanged",
      "type": "event"
    },
    {
      "anonymous": false,
      "inputs": [
        {
          "indexed": true,
          "internalType": "address",
          "name": "beacon",
          "type": "address"
        }
      ],
      "name": "BeaconUpgraded",
      "type": "event"
    },
    {
      "anonymous": false,
      "inputs": [
        {
          "indexed": false,
          "internalType": "string",
          "name": "sourceTransactionId",
          "type": "string"
        },
        {
          "components": [
            {
              "internalType": "uint32",
              "name": "chainId",
              "type": "uint32"
            },
            {
              "internalType": "string",
              "name": "tokenId",
              "type": "string"
            },
            {
              "internalType": "uint256",
              "name": "amount",
              "type": "uint256"
            },
            {
              "internalType": "string",
              "name": "addressId",
              "type": "string"
            }
          ],
          "indexed": false,
          "internalType": "struct Bridge.ExternalChainInfo",
          "name": "sourceChainData",
          "type": "tuple"
        },
        {
          "components": [
            {
              "internalType": "uint32",
              "name": "chainId",
              "type": "uint32"
            },
            {
              "internalType": "address",
              "name": "tokenId",
              "type": "address"
            },
            {
              "internalType": "uint256",
              "name": "amount",
              "type": "uint256"
            },
            {
              "internalType": "address",
              "name": "addressId",
              "type": "address"
            }
          ],
          "indexed": false,
          "internalType": "struct Bridge.EthChainInfo",
          "name": "destinationChainData",
          "type": "tuple"
        },
        {
          "indexed": false,
          "internalType": "string",
          "name": "note",
          "type": "string"
        },
        {
          "indexed": false,
          "internalType": "uint256",
          "name": "timestamp",
          "type": "uint256"
        }
      ],
      "name": "BridgeSuccess",
      "type": "event"
    },
    {
      "anonymous": false,
      "inputs": [
        {
          "indexed": false,
          "internalType": "uint8",
          "name": "version",
          "type": "uint8"
        }
      ],
      "name": "Initialized",
      "type": "event"
    },
    {
      "anonymous": false,
      "inputs": [
        {
          "indexed": false,
          "internalType": "address",
          "name": "feeTokenAddr",
          "type": "address"
        },
        {
          "indexed": false,
          "internalType": "uint256",
          "name": "feeAmount",
          "type": "uint256"
        },
        {
          "components": [
            {
              "internalType": "uint32",
              "name": "chainId",
              "type": "uint32"
            },
            {
              "internalType": "address",
              "name": "tokenId",
              "type": "address"
            },
            {
              "internalType": "uint256",
              "name": "amount",
              "type": "uint256"
            },
            {
              "internalType": "address",
              "name": "addressId",
              "type": "address"
            }
          ],
          "indexed": false,
          "internalType": "struct Bridge.EthChainInfo",
          "name": "sourceChainData",
          "type": "tuple"
        },
        {
          "components": [
            {
              "internalType": "uint32",
              "name": "chainId",
              "type": "uint32"
            },
            {
              "internalType": "string",
              "name": "tokenId",
              "type": "string"
            },
            {
              "internalType": "uint256",
              "name": "amount",
              "type": "uint256"
            },
            {
              "internalType": "string",
              "name": "addressId",
              "type": "string"
            }
          ],
          "indexed": false,
          "internalType": "struct Bridge.ExternalChainInfo",
          "name": "destinationChainData",
          "type": "tuple"
        },
        {
          "indexed": false,
          "internalType": "string",
          "name": "note",
          "type": "string"
        },
        {
          "indexed": false,
          "internalType": "uint256",
          "name": "timestamp",
          "type": "uint256"
        }
      ],
      "name": "Lock",
      "type": "event"
    },
    {
      "anonymous": false,
      "inputs": [
        {
          "indexed": false,
          "internalType": "address",
          "name": "soldierAddress",
          "type": "address"
        }
      ],
      "name": "LogSoldierAdded",
      "type": "event"
    },
    {
      "anonymous": false,
      "inputs": [
        {
          "indexed": false,
          "internalType": "address",
          "name": "soldierAddress",
          "type": "address"
        }
      ],
      "name": "LogSoldierRemoved",
      "type": "event"
    },
    {
      "anonymous": false,
      "inputs": [
        {
          "indexed": false,
          "internalType": "uint8",
          "name": "threshold",
          "type": "uint8"
        }
      ],
      "name": "LogThresholdChanged",
      "type": "event"
    },
    {
      "anonymous": false,
      "inputs": [
        {
          "indexed": false,
          "internalType": "address",
          "name": "tokenAddress",
          "type": "address"
        }
      ],
      "name": "LogTokenAdded",
      "type": "event"
    },
    {
      "anonymous": false,
      "inputs": [
        {
          "indexed": false,
          "internalType": "address",
          "name": "tokenAddress",
          "type": "address"
        }
      ],
      "name": "LogTokenRemoved",
      "type": "event"
    },
    {
      "anonymous": false,
      "inputs": [
        {
          "indexed": false,
          "internalType": "address",
          "name": "account",
          "type": "address"
        }
      ],
      "name": "Paused",
      "type": "event"
    },
    {
      "anonymous": false,
      "inputs": [
        {
          "indexed": false,
          "internalType": "address",
          "name": "account",
          "type": "address"
        }
      ],
      "name": "Unpaused",
      "type": "event"
    },
    {
      "anonymous": false,
      "inputs": [
        {
          "indexed": true,
          "internalType": "address",
          "name": "implementation",
          "type": "address"
        }
      ],
      "name": "Upgraded",
      "type": "event"
    },
    {
      "inputs": [
        {
          "internalType": "address",
          "name": "soldierAddress",
          "type": "address"
        },
        {
          "internalType": "uint256",
          "name": "requestNonce",
          "type": "uint256"
        },
        {
          "internalType": "bytes[]",
          "name": "signatures",
          "type": "bytes[]"
        }
      ],
      "name": "addSoldier",
      "outputs": [],
      "stateMutability": "nonpayable",
      "type": "function"
    },
    {
      "inputs": [
        {
          "internalType": "address",
          "name": "tokenAddress",
          "type": "address"
        },
        {
          "internalType": "uint256",
          "name": "requestNonce",
          "type": "uint256"
        },
        {
          "internalType": "bytes[]",
          "name": "signatures",
          "type": "bytes[]"
        }
      ],
      "name": "addToken",
      "outputs": [],
      "stateMutability": "nonpayable",
      "type": "function"
    },
    {
      "inputs": [
        {
          "internalType": "uint8",
          "name": "threshold",
          "type": "uint8"
        },
        {
          "internalType": "uint256",
          "name": "requestNonce",
          "type": "uint256"
        },
        {
          "internalType": "bytes[]",
          "name": "signatures",
          "type": "bytes[]"
        }
      ],
      "name": "changeSignatureThreshold",
      "outputs": [],
      "stateMutability": "nonpayable",
      "type": "function"
    },
    {
      "inputs": [],
      "name": "getNonce",
      "outputs": [
        {
          "internalType": "uint256",
          "name": "",
          "type": "uint256"
        }
      ],
      "stateMutability": "view",
      "type": "function",
      "constant": true
    },
    {
      "inputs": [
        {
          "internalType": "address[]",
          "name": "initialSoldiers",
          "type": "address[]"
        },
        {
          "internalType": "address[]",
          "name": "initialTokens",
          "type": "address[]"
        },
        {
          "internalType": "uint8",
          "name": "threshold",
          "type": "uint8"
        },
        {
          "internalType": "uint32",
          "name": "chainId",
          "type": "uint32"
        }
      ],
      "name": "initialize",
      "outputs": [],
      "stateMutability": "nonpayable",
      "type": "function"
    },
    {
      "inputs": [],
      "name": "paused",
      "outputs": [
        {
          "internalType": "bool",
          "name": "",
          "type": "bool"
        }
      ],
      "stateMutability": "view",
      "type": "function",
      "constant": true
    },
    {
      "inputs": [
        {
          "internalType": "address",
          "name": "soldierAddress",
          "type": "address"
        },
        {
          "internalType": "uint256",
          "name": "requestNonce",
          "type": "uint256"
        },
        {
          "internalType": "bytes[]",
          "name": "signatures",
          "type": "bytes[]"
        }
      ],
      "name": "removeSoldier",
      "outputs": [],
      "stateMutability": "nonpayable",
      "type": "function"
    },
    {
      "inputs": [
        {
          "internalType": "address",
          "name": "tokenAddress",
          "type": "address"
        },
        {
          "internalType": "uint256",
          "name": "requestNonce",
          "type": "uint256"
        },
        {
          "internalType": "bytes[]",
          "name": "signatures",
          "type": "bytes[]"
        }
      ],
      "name": "removeToken",
      "outputs": [],
      "stateMutability": "nonpayable",
      "type": "function"
    },
    {
      "inputs": [
        {
          "internalType": "address",
          "name": "",
          "type": "address"
        }
      ],
      "name": "soldiers",
      "outputs": [
        {
          "internalType": "bool",
          "name": "",
          "type": "bool"
        }
      ],
      "stateMutability": "view",
      "type": "function",
      "constant": true
    },
    {
      "inputs": [],
      "name": "thisChainId",
      "outputs": [
        {
          "internalType": "uint32",
          "name": "",
          "type": "uint32"
        }
      ],
      "stateMutability": "view",
      "type": "function",
      "constant": true
    },
    {
      "inputs": [
        {
          "internalType": "address",
          "name": "",
          "type": "address"
        }
      ],
      "name": "tokens",
      "outputs": [
        {
          "internalType": "bool",
          "name": "",
          "type": "bool"
        }
      ],
      "stateMutability": "view",
      "type": "function",
      "constant": true
    },
    {
      "inputs": [
        {
          "internalType": "uint32",
          "name": "",
          "type": "uint32"
        },
        {
          "internalType": "string",
          "name": "",
          "type": "string"
        }
      ],
      "name": "transactions",
      "outputs": [
        {
          "internalType": "bool",
          "name": "processed",
          "type": "bool"
        }
      ],
      "stateMutability": "view",
      "type": "function",
      "constant": true
    },
    {
      "inputs": [
        {
          "internalType": "address",
          "name": "newImplementation",
          "type": "address"
        },
        {
          "internalType": "uint256",
          "name": "requestNonce",
          "type": "uint256"
        },
        {
          "internalType": "bytes[]",
          "name": "signatures",
          "type": "bytes[]"
        }
      ],
      "name": "upgrade",
      "outputs": [],
      "stateMutability": "nonpayable",
      "type": "function"
    },
    {
      "inputs": [
        {
          "internalType": "uint64",
          "name": "maxReleaseRound",
          "type": "uint64"
        },
        {
          "internalType": "string",
          "name": "sourceTransactionId",
          "type": "string"
        },
        {
          "components": [
            {
              "internalType": "uint32",
              "name": "chainId",
              "type": "uint32"
            },
            {
              "internalType": "string",
              "name": "tokenId",
              "type": "string"
            },
            {
              "internalType": "uint256",
              "name": "amount",
              "type": "uint256"
            },
            {
              "internalType": "string",
              "name": "addressId",
              "type": "string"
            }
          ],
          "internalType": "struct Bridge.ExternalChainInfo",
          "name": "sourceChainData",
          "type": "tuple"
        },
        {
          "components": [
            {
              "internalType": "uint32",
              "name": "chainId",
              "type": "uint32"
            },
            {
              "internalType": "address",
              "name": "tokenId",
              "type": "address"
            },
            {
              "internalType": "uint256",
              "name": "amount",
              "type": "uint256"
            },
            {
              "internalType": "address",
              "name": "addressId",
              "type": "address"
            }
          ],
          "internalType": "struct Bridge.EthChainInfo",
          "name": "destinationChainData",
          "type": "tuple"
        },
        {
          "internalType": "string",
          "name": "note",
          "type": "string"
        },
        {
          "internalType": "bytes[]",
          "name": "signatures",
          "type": "bytes[]"
        }
      ],
      "name": "releaseTokens",
      "outputs": [
        {
          "internalType": "bool",
          "name": "",
          "type": "bool"
        }
      ],
      "stateMutability": "nonpayable",
      "type": "function"
    },
    {
      "inputs": [
        {
          "internalType": "address",
          "name": "feeTokenAddr",
          "type": "address"
        },
        {
          "internalType": "uint256",
          "name": "feeAmount",
          "type": "uint256"
        },
        {
          "internalType": "address",
          "name": "rootTokenAddr",
          "type": "address"
        },
        {
          "internalType": "uint256",
          "name": "rootAmount",
          "type": "uint256"
        },
        {
          "components": [
            {
              "internalType": "uint32",
              "name": "chainId",
              "type": "uint32"
            },
            {
              "internalType": "string",
              "name": "tokenId",
              "type": "string"
            },
            {
              "internalType": "uint256",
              "name": "amount",
              "type": "uint256"
            },
            {
              "internalType": "string",
              "name": "addressId",
              "type": "string"
            }
          ],
          "internalType": "struct Bridge.ExternalChainInfo",
          "name": "destinationChainData",
          "type": "tuple"
        },
        {
          "internalType": "string",
          "name": "note",
          "type": "string"
        }
      ],
      "name": "lockTokens",
      "outputs": [
        {
          "internalType": "bool",
          "name": "",
          "type": "bool"
        }
      ],
      "stateMutability": "payable",
      "type": "function",
      "payable": true
    },
    {
      "inputs": [
        {
          "internalType": "address",
          "name": "feeTokenAddr",
          "type": "address"
        },
        {
          "internalType": "uint256",
          "name": "feeAmount",
          "type": "uint256"
        },
        {
          "internalType": "uint256",
          "name": "rootAmount",
          "type": "uint256"
        },
        {
          "components": [
            {
              "internalType": "uint32",
              "name": "chainId",
              "type": "uint32"
            },
            {
              "internalType": "string",
              "name": "tokenId",
              "type": "string"
            },
            {
              "internalType": "uint256",
              "name": "amount",
              "type": "uint256"
            },
            {
              "internalType": "string",
              "name": "addressId",
              "type": "string"
            }
          ],
          "internalType": "struct Bridge.ExternalChainInfo",
          "name": "destinationChainData",
          "type": "tuple"
        },
        {
          "internalType": "string",
          "name": "note",
          "type": "string"
        }
      ],
      "name": "lockNativeCurrency",
      "outputs": [
        {
          "internalType": "bool",
          "name": "",
          "type": "bool"
        }
      ],
      "stateMutability": "payable",
      "type": "function",
      "payable": true
    },
    {
      "inputs": [],
      "name": "deposit",
      "outputs": [],
      "stateMutability": "payable",
      "type": "function",
      "payable": true
    },
    {
      "inputs": [
        {
          "internalType": "uint64",
          "name": "maxReleaseRound",
          "type": "uint64"
        },
        {
          "internalType": "string",
          "name": "sourceTransactionId",
          "type": "string"
        },
        {
          "components": [
            {
              "internalType": "uint32",
              "name": "chainId",
              "type": "uint32"
            },
            {
              "internalType": "string",
              "name": "tokenId",
              "type": "string"
            },
            {
              "internalType": "uint256",
              "name": "amount",
              "type": "uint256"
            },
            {
              "internalType": "string",
              "name": "addressId",
              "type": "string"
            }
          ],
          "internalType": "struct Bridge.ExternalChainInfo",
          "name": "sourceChainData",
          "type": "tuple"
        },
        {
          "components": [
            {
              "internalType": "uint32",
              "name": "chainId",
              "type": "uint32"
            },
            {
              "internalType": "address",
              "name": "tokenId",
              "type": "address"
            },
            {
              "internalType": "uint256",
              "name": "amount",
              "type": "uint256"
            },
            {
              "internalType": "address",
              "name": "addressId",
              "type": "address"
            }
          ],
          "internalType": "struct Bridge.EthChainInfo",
          "name": "destinationChainData",
          "type": "tuple"
        },
        {
          "internalType": "string",
          "name": "note",
          "type": "string"
        }
      ],
      "name": "reconstructMessageHash",
      "outputs": [
        {
          "internalType": "bytes32",
          "name": "",
          "type": "bytes32"
        }
      ],
      "stateMutability": "pure",
      "type": "function",
      "constant": true
    }
  ],
  "bytecode": "0x6080604052600060025534801561001557600080fd5b506000805460ff19169055612a378061002f6000396000f3fe60806040526004361061010d5760003560e060020a90048063b0324d6411610099578063d12fed8611610068578063d12fed86146102d3578063e02a3343146102e6578063e3d29c5d14610306578063e486033914610338578063ef78a1b61461036857600080fd5b8063b0324d6414610270578063b3aa76201461029e578063d087d288146102be578063d0e30db01461018a57600080fd5b80635c975abb116100e05780635c975abb146101ac5780636426a18d146101c45780637a8a0067146101e45780638f230ba31461023057806394c4395b1461025057600080fd5b8063071743ed1461011257806307622459146101575780631e93cb9e1461016a57806327546ef81461018c575b600080fd5b34801561011e57600080fd5b5061014261012d366004611d7c565b60046020526000908152604090205460ff1681565b60405190151581526020015b60405180910390f35b610142610165366004611f36565b610388565b34801561017657600080fd5b5061018a610185366004612071565b610762565b005b34801561019857600080fd5b5061018a6101a7366004612188565b610ab6565b3480156101b857600080fd5b5060005460ff16610142565b3480156101d057600080fd5b5061018a6101df366004612188565b610c2a565b3480156101f057600080fd5b506101426101ff3660046121df565b6007602090815260009283526040909220815180830184018051928152908401929093019190912091525460ff1681565b34801561023c57600080fd5b5061018a61024b366004612188565b610dc0565b34801561025c57600080fd5b5061018a61026b366004612188565b610ee0565b34801561027c57600080fd5b5061029061028b36600461229e565b610f5d565b60405190815260200161014e565b3480156102aa57600080fd5b5061018a6102b936600461234a565b61109b565b3480156102ca57600080fd5b50600254610290565b6101426102e1366004612368565b611141565b3480156102f257600080fd5b5061018a610301366004612188565b6113c9565b34801561031257600080fd5b506008546103239063ffffffff1681565b60405163ffffffff909116815260200161014e565b34801561034457600080fd5b50610142610353366004611d7c565b60056020526000908152604090205460ff1681565b34801561037457600080fd5b506101426103833660046123d6565b6114ed565b6000805460ff16156103b85760405160e560020a62461bcd0281526004016103af90612499565b60405180910390fd5b6032825111156103dd5760405160e560020a62461bcd0281526004016103af906124d0565b600160a060020a03851660009081526005602052604090205460ff166104185760405160e560020a62461bcd0281526004016103af9061252d565b86600160a060020a031685600160a060020a03161415801561043a5750600086115b801561044e5750600160a060020a03871615155b1561058157600160a060020a03871660009081526005602052604090205460ff1661048e5760405160e560020a62461bcd0281526004016103af9061252d565b60405160e060020a6323b872dd028152600160a060020a038816906323b872dd906104c190339030908b9060040161258a565b6020604051808303816000875af11580156104e0573d6000803e3d6000fd5b505050506040513d601f19601f8201168201806040525081019061050491906125ae565b5060405160e060020a6323b872dd028152600160a060020a038616906323b872dd906105389033903090899060040161258a565b6020604051808303816000875af1158015610557573d6000803e3d6000fd5b505050506040513d601f19601f8201168201806040525081019061057b91906125ae565b506106e6565b86600160a060020a031685600160a060020a03161480156105a25750600086115b156105e357600160a060020a0385166323b872dd33306105c28a896125ff565b6040518463ffffffff1660e060020a0281526004016105389392919061258a565b85341480156105f95750600160a060020a038716155b80156106055750600034115b1561063d5760405160e060020a6323b872dd028152600160a060020a038616906323b872dd906105389033903090899060040161258a565b856106755760405160e060020a6323b872dd028152600160a060020a038616906323b872dd906105389033903090899060040161258a565b60405160e560020a62461bcd02815260206004820152603760248201527f50726f626c656d206f63637572726564207768696c6520747279696e6720746f60448201527f2073656c6563742061207472616e73666572206361736500000000000000000060648201526084016103af565b6040805160808101825260085463ffffffff168152600160a060020a038716602082015280820186905233606082015290517f9ee6a3a299d72fe4453ced2f6d176851e8650224eb8247a26e96a655e940edb79161074d918a918a918890889042906126fb565b60405180910390a15060019695505050505050565b600061076e60016118d6565b9050801561078e576008805465ff00000000001916650100000000001790555b8260ff16855110156107e55760405160e560020a62461bcd02815260206004820152601360248201527f4e6f7420656e6f75676820736f6c64696572730000000000000000000000000060448201526064016103af565b60005b85518160ff1610156109055760046000878360ff168151811061080d5761080d61275a565b602090810291909101810151600160a060020a031682528101919091526040016000205460ff16156108845760405160e560020a62461bcd02815260206004820152601560248201527f536f6c6469657220616c7265616479206164646564000000000000000000000060448201526064016103af565b600160046000888460ff168151811061089f5761089f61275a565b602090810291909101810151600160a060020a031682528181019290925260409081016000908120805494151560ff19958616179055600254815260068352818120338252909252902080549091166001179055806108fd81612789565b9150506107e8565b50845160015560005b84518160ff161015610a2b5760056000868360ff16815181106109335761093361275a565b602090810291909101810151600160a060020a031682528101919091526040016000205460ff16156109aa5760405160e560020a62461bcd02815260206004820152601360248201527f546f6b656e20616c72656164792061646465640000000000000000000000000060448201526064016103af565b600160056000878460ff16815181106109c5576109c561275a565b602090810291909101810151600160a060020a031682528181019290925260409081016000908120805494151560ff1995861617905560025481526006835281812033825290925290208054909116600117905580610a2381612789565b91505061090e565b5060028054906000610a3c836127a9565b90915550506003805460ff191660ff85161790556008805463ffffffff191663ffffffff84161790558015610aaf576008805465ff000000000019169055604051600181527f7f26b83ff96e1f2b6a682f133852f6798a09c465da95921460cefb38474024989060200160405180910390a15b5050505050565b3360009081526004602052604090205460ff16610ae85760405160e560020a62461bcd0281526004016103af906127c4565b816002548114610b0d5760405160e560020a62461bcd0281526004016103af90612821565b600160a060020a03841660009081526004602052604090205460ff1615610b795760405160e560020a62461bcd02815260206004820152601660248201527f536f6c6469657220616c7265616479206163746976650000000000000000000060448201526064016103af565b610b9b610b868585611983565b600085815260066020526040902084906119c1565b600160a060020a0384166000908152600460205260408120805460ff19166001908117909155805491610bcd836127a9565b9091555050604051600160a060020a03851681527f45df561f3a6211cd36a659f28ca50d2c48d04968cdd47fe32229f9ff2c476bd1906020015b60405180910390a160028054906000610c1f836127a9565b919050555050505050565b3360009081526004602052604090205460ff16610c5c5760405160e560020a62461bcd0281526004016103af906127c4565b816002548114610c815760405160e560020a62461bcd0281526004016103af90612821565b60035460015460ff90911610610cdc5760405160e560020a62461bcd02815260206004820152601360248201527f4e6f7420656e6f75676820736f6c64696572730000000000000000000000000060448201526064016103af565b600160a060020a03841660009081526004602052604090205460ff16610d475760405160e560020a62461bcd02815260206004820152600d60248201527f4e6f74206120736f6c696465720000000000000000000000000000000000000060448201526064016103af565b610d54610b868585611983565b600160a060020a0384166000908152600460205260408120805460ff191690556001805491610d8283612858565b9091555050604051600160a060020a03851681527fa3b8d9f0a704aed051810dffe58189fcc83f68b00d2c06cd86220c18b5d288c690602001610c07565b3360009081526004602052604090205460ff16610df25760405160e560020a62461bcd0281526004016103af906127c4565b816002548114610e175760405160e560020a62461bcd0281526004016103af90612821565b600160a060020a03841660009081526005602052604090205460ff16610e825760405160e560020a62461bcd02815260206004820152601860248201527f546f6b656e20616c7265616479206e6f7420616374697665000000000000000060448201526064016103af565b610e8f610b868585611983565b600160a060020a038416600081815260056020908152604091829020805460ff1916905590519182527f48207b8b88ad0363606ff7f381bc9ee60bb9b614b5dccd985ae4cb02af0f77c39101610c07565b3360009081526004602052604090205460ff16610f125760405160e560020a62461bcd0281526004016103af906127c4565b816002548114610f375760405160e560020a62461bcd0281526004016103af90612821565b610f44610b868585611983565b610f4d84611b65565b60028054906000610c1f836127a9565b6000808460600151856040015186600001518760200151604051602001610f87949392919061286f565b60408051601f198184030181528282528051602091820120606088015192880151885189840151600160a060020a039586166c0100000000000000000000000090810295880195909552603487019290925263ffffffff1660e060020a026054860152929092160260588301529150600090606c0160408051601f19818403018152908290528051602091820120925061108f9161102f918b918b91879187918b91016128bc565b60408051601f1981840301815282825280516020918201207f19457468657265756d205369676e6564204d6573736167653a0a33320000000084830152603c8085019190915282518085039091018152605c909301909152815191012090565b98975050505050505050565b3360009081526004602052604090205460ff166110cd5760405160e560020a62461bcd0281526004016103af906127c4565b8160025481146110f25760405160e560020a62461bcd0281526004016103af90612821565b6110ff610b868585611ba5565b6003805460ff191660ff86169081179091556040519081527f1d35c1363b251f7865b1b369641e54ec5729c78010282069b20f2fb0af8621ee90602001610c07565b6000805460ff16156111685760405160e560020a62461bcd0281526004016103af90612499565b60328251111561118d5760405160e560020a62461bcd0281526004016103af906124d0565b600061119986866125ff565b3414156111a557611362565b84341480156111b45750600086115b80156111c85750600160a060020a03871615155b156112da57600160a060020a03871660009081526005602052604090205460ff1661125e5760405160e560020a62461bcd02815260206004820152602a60248201527f547279696e6720746f20706179206665652077697468206e6f6e20657869737460448201527f656e7420746f6b656e2e0000000000000000000000000000000000000000000060648201526084016103af565b60405160e060020a6323b872dd028152600160a060020a038816906323b872dd9061129190339030908b9060040161258a565b6020604051808303816000875af11580156112b0573d6000803e3d6000fd5b505050506040513d601f19601f820116820180604052508101906112d491906125ae565b50611362565b84341480156112e7575085155b156112f157611362565b60405160e560020a62461bcd02815260206004820152602d60248201527f54686572652077617320612070726f626c656d20696e2074686520666565206960448201527f667320636f6e646974696f6e730000000000000000000000000000000000000060648201526084016103af565b6040805160808101825260085463ffffffff168152600160a060020a038316602082015280820187905233606082015290517f9ee6a3a299d72fe4453ced2f6d176851e8650224eb8247a26e96a655e940edb79161074d918a918a918990899042906126fb565b3360009081526004602052604090205460ff166113fb5760405160e560020a62461bcd0281526004016103af906127c4565b8160025481146114205760405160e560020a62461bcd0281526004016103af90612821565b600160a060020a03841660009081526005602052604090205460ff161561148c5760405160e560020a62461bcd02815260206004820152601460248201527f546f6b656e20616c72656164792061637469766500000000000000000000000060448201526064016103af565b611499610b868585611983565b600160a060020a038416600081815260056020908152604091829020805460ff1916600117905590519182527f5a2cd987faef4fe5343b92ff6b73ef7a6e5ffefa48ef8559a9c99fbe55ebca8f9101610c07565b6000805460ff16156115145760405160e560020a62461bcd0281526004016103af90612499565b602080850151600160a060020a031660009081526005909152604090205460ff166115aa5760405160e560020a62461bcd02815260206004820152602560248201527f547279696e6720746f2072656c65617365206e6f6e206578697374656e74207460448201527f6f6b656e2e00000000000000000000000000000000000000000000000000000060648201526084016103af565b8667ffffffffffffffff16431061162c5760405160e560020a62461bcd02815260206004820152603260248201527f5472616e73616374696f6e206d7573742062652072656c65617365642077697460448201527f68696e20646566696e656420706572696f64000000000000000000000000000060648201526084016103af565b600854845163ffffffff9081169116146116d75760405160e560020a62461bcd02815260206004820152604b60248201527f44657374696e6174696f6e20436861696e204964206e6f7420657175616c207460448201527f6f2074686520426c6f636b636861696e20686f7374696e67207468697320667560648201527f6e6374696f6e2063616c6c000000000000000000000000000000000000000000608482015260a4016103af565b845163ffffffff1660009081526007602052604080822090516116fb90899061292c565b908152604051908190036020019020805490915060ff161515600114156117675760405160e560020a62461bcd02815260206004820181905260248201527f5472616e73616374696f6e20494420616c72656164792070726f63657373656460448201526064016103af565b805460ff1916600117815560006117818989898989610f5d565b90506117918185846001016119c1565b6020860151600160a060020a03166117ea578560600151600160a060020a03166108fc87604001519081150290604051600060405180830381858888f193505050501580156117e4573d6000803e3d6000fd5b50611888565b6020860151606087015160408089015190517fa9059cbb000000000000000000000000000000000000000000000000000000008152600160a060020a039283166004820152602481019190915291169063a9059cbb906044016020604051808303816000875af1158015611862573d6000803e3d6000fd5b505050506040513d601f19601f8201168201806040525081019061188691906125ae565b505b7f458f68139cfa07bb172a72eae8c1877b3b805bd88454b8dffaca7614387e184188888888426040516118bf959493929190612948565b60405180910390a150600198975050505050505050565b60085460009065010000000000900460ff1615611926578160ff1660011480156118ff5750303b155b61191e5760405160e560020a62461bcd0281526004016103af906129a4565b506000919050565b60085460ff80841664010000000090920416106119585760405160e560020a62461bcd0281526004016103af906129a4565b506008805460ff9092166401000000000264ff0000000019909216919091179055600190565b919050565b6040516c01000000000000000000000000600160a060020a038416026020820152603481018290526000906119ba9060540161102f565b9392505050565b600354825160ff9091161115611a1c5760405160e560020a62461bcd02815260206004820152601560248201527f4e6f7420656e6f756768207369676e617475726573000000000000000000000060448201526064016103af565b60005b60035460ff16811015611b5f576000611a5185858481518110611a4457611a4461275a565b6020026020010151611be9565b600160a060020a03811660009081526004602052604090205490915060ff16611abf5760405160e560020a62461bcd02815260206004820152601160248201527f496e76616c6964207369676e617475726500000000000000000000000000000060448201526064016103af565b600160a060020a03811660009081526020849052604090205460ff1615611b2b5760405160e560020a62461bcd02815260206004820152601460248201527f4475706c696361746564207369676e617475726500000000000000000000000060448201526064016103af565b600160a060020a03166000908152602083905260409020805460ff1916600117905580611b57816127a9565b915050611a1f565b50505050565b611b6e81611c68565b604051600160a060020a038216907fbc7cd75a20ee27fd9adebab32041f755214dbc6bffa90cc0225b39da2e5c2d3b90600090a250565b6040517f010000000000000000000000000000000000000000000000000000000000000060ff8416026020820152602181018290526000906119ba9060410161102f565b600080600080611bf885611d36565b6040805160008152602081018083528b905260ff8516918101919091526060810183905260808101829052929550909350915060019060a0016020604051602081039080840390855afa158015611c53573d6000803e3d6000fd5b5050604051601f190151979650505050505050565b600160a060020a0381163b611ce85760405160e560020a62461bcd02815260206004820152602d60248201527f455243313936373a206e657720696d706c656d656e746174696f6e206973206e60448201527f6f74206120636f6e74726163740000000000000000000000000000000000000060648201526084016103af565b7f360894a13ba1a3210667c828492db98dca3e2076cc3735a920a3ca505d382bbc805473ffffffffffffffffffffffffffffffffffffffff1916600160a060020a0392909216919091179055565b60008060008351604114611d4957600080fd5b5050506020810151604082015160609092015160001a92909190565b8035600160a060020a038116811461197e57600080fd5b600060208284031215611d8e57600080fd5b6119ba82611d65565b7f4e487b7100000000000000000000000000000000000000000000000000000000600052604160045260246000fd5b6040516080810167ffffffffffffffff81118282101715611de957611de9611d97565b60405290565b604051601f8201601f1916810167ffffffffffffffff81118282101715611e1857611e18611d97565b604052919050565b803563ffffffff8116811461197e57600080fd5b600067ffffffffffffffff831115611e4e57611e4e611d97565b611e61601f8401601f1916602001611def565b9050828152838383011115611e7557600080fd5b828260208301376000602084830101529392505050565b600082601f830112611e9d57600080fd5b6119ba83833560208501611e34565b600060808284031215611ebe57600080fd5b611ec6611dc6565b9050611ed182611e20565b8152602082013567ffffffffffffffff80821115611eee57600080fd5b611efa85838601611e8c565b6020840152604084013560408401526060840135915080821115611f1d57600080fd5b50611f2a84828501611e8c565b60608301525092915050565b60008060008060008060c08789031215611f4f57600080fd5b611f5887611d65565b955060208701359450611f6d60408801611d65565b935060608701359250608087013567ffffffffffffffff80821115611f9157600080fd5b611f9d8a838b01611eac565b935060a0890135915080821115611fb357600080fd5b50611fc089828a01611e8c565b9150509295509295509295565b600067ffffffffffffffff821115611fe757611fe7611d97565b5060209081020190565b600082601f83011261200257600080fd5b8135602061201761201283611fcd565b611def565b8281529181028401810191818101908684111561203357600080fd5b8286015b848110156120555761204881611d65565b8352918301918301612037565b509695505050505050565b803560ff8116811461197e57600080fd5b6000806000806080858703121561208757600080fd5b843567ffffffffffffffff8082111561209f57600080fd5b6120ab88838901611ff1565b955060208701359150808211156120c157600080fd5b506120ce87828801611ff1565b9350506120dd60408601612060565b91506120eb60608601611e20565b905092959194509250565b600082601f83011261210757600080fd5b8135602061211761201283611fcd565b8281529181028401810191818101908684111561213357600080fd5b8286015b8481101561205557803567ffffffffffffffff8111156121575760008081fd5b8701603f810189136121695760008081fd5b61217a898683013560408401611e34565b845250918301918301612137565b60008060006060848603121561219d57600080fd5b6121a684611d65565b925060208401359150604084013567ffffffffffffffff8111156121c957600080fd5b6121d5868287016120f6565b9150509250925092565b600080604083850312156121f257600080fd5b6121fb83611e20565b9150602083013567ffffffffffffffff81111561221757600080fd5b61222385828601611e8c565b9150509250929050565b803567ffffffffffffffff8116811461197e57600080fd5b60006080828403121561225757600080fd5b61225f611dc6565b905061226a82611e20565b815261227860208301611d65565b60208201526040820135604082015261229360608301611d65565b606082015292915050565b600080600080600061010086880312156122b757600080fd5b6122c08661222d565b9450602086013567ffffffffffffffff808211156122dd57600080fd5b6122e989838a01611e8c565b955060408801359150808211156122ff57600080fd5b61230b89838a01611eac565b945061231a8960608a01612245565b935060e088013591508082111561233057600080fd5b5061233d88828901611e8c565b9150509295509295909350565b60008060006060848603121561235f57600080fd5b6121a684612060565b600080600080600060a0868803121561238057600080fd5b61238986611d65565b94506020860135935060408601359250606086013567ffffffffffffffff808211156123b457600080fd5b6123c089838a01611eac565b9350608088013591508082111561233057600080fd5b60008060008060008061012087890312156123f057600080fd5b6123f98761222d565b9550602087013567ffffffffffffffff8082111561241657600080fd5b6124228a838b01611e8c565b9650604089013591508082111561243857600080fd5b6124448a838b01611eac565b95506124538a60608b01612245565b945060e089013591508082111561246957600080fd5b6124758a838b01611e8c565b935061010089013591508082111561248c57600080fd5b50611fc089828a016120f6565b60208082526010908201527f5061757361626c653a2070617573656400000000000000000000000000000000604082015260600190565b60208082526022908201527f4e6f7465206d7573742062652073686f72746572207468616e2035302062797460408201527f6573000000000000000000000000000000000000000000000000000000000000606082015260800190565b60208082526024908201527f547279696e6720746f20627269646765206e6f6e206578697374656e7420746f60408201527f6b656e2e00000000000000000000000000000000000000000000000000000000606082015260800190565b600160a060020a039384168152919092166020820152604081019190915260600190565b6000602082840312156125c057600080fd5b815180151581146119ba57600080fd5b7f4e487b7100000000000000000000000000000000000000000000000000000000600052601160045260246000fd5b60008219821115612612576126126125d0565b500190565b63ffffffff81511682526020810151600160a060020a0380821660208501526040830151604085015280606084015116606085015250505050565b60005b8381101561266d578181015183820152602001612655565b83811115611b5f5750506000910152565b60008151808452612696816020860160208601612652565b601f01601f19169290920160200192915050565b63ffffffff815116825260006020820151608060208501526126cf608085018261267e565b905060408301516040850152606083015184820360608601526126f2828261267e565b95945050505050565b6000610120600160a060020a038916835287602084015261271f6040840188612617565b8060c0840152612731818401876126aa565b905082810360e0840152612745818661267e565b91505082610100830152979650505050505050565b7f4e487b7100000000000000000000000000000000000000000000000000000000600052603260045260246000fd5b600060ff821660ff8114156127a0576127a06125d0565b60010192915050565b60006000198214156127bd576127bd6125d0565b5060010190565b60208082526021908201527f63616c6c6572206973206e6f74206f6e65206f662074686520736f6c6469657260408201527f7300000000000000000000000000000000000000000000000000000000000000606082015260800190565b6020808252600d908201527f496e76616c6964206e6f6e636500000000000000000000000000000000000000604082015260600190565b600081612867576128676125d0565b506000190190565b60008551612881818460208a01612652565b808301905085815260e060020a63ffffffff861602602082015283516128ae816024840160208801612652565b016024019695505050505050565b780100000000000000000000000000000000000000000000000067ffffffffffffffff8716028152600085516128f9816008850160208a01612652565b8083019050856008820152846028820152835161291d816048840160208801612652565b01604801979650505050505050565b6000825161293e818460208701612652565b9190910192915050565b600061010080835261295c8184018961267e565b9050828103602084015261297081886126aa565b905061297f6040840187612617565b82810360c0840152612991818661267e565b9150508260e08301529695505050505050565b6020808252602e908201527f496e697469616c697a61626c653a20636f6e747261637420697320616c72656160408201527f647920696e697469616c697a656400000000000000000000000000000000000060608201526080019056fea26469706673582212208e7494b9dd8dcc91117347473ec06181a77b990913cae2a4cce5e02dd2ae523a64736f6c634300080a0033",
  "immutableReferences": {},
  "source": "// SPDX-License-Identifier: MIT\npragma solidity ^0.8.0;\n\nimport \"@openzeppelin/contracts/security/Pausable.sol\";\nimport \"@openzeppelin/contracts/token/ERC20/IERC20.sol\";\nimport \"./BridgeGovernance.sol\";\n\ncontract Bridge is Pausable, BridgeGovernance {\n    // solves too many arguments error\n    struct EthChainInfo {\n        uint32 chainId;\n        address tokenId;\n        uint256 amount;\n        address addressId;\n    }\n\n    struct ExternalChainInfo {\n        uint32 chainId;\n        string tokenId;\n        uint256 amount;\n        string addressId;\n    }\n    // Events to monitor the bridge.\n    // This event is emitted when user wants to lock existing ERC20 token to a foreign chain.\n    // Tokens will be locked into the bridge smart contract.\n    event Lock(\n        address feeTokenAddr,\n        uint256 feeAmount,\n        EthChainInfo sourceChainData,\n        ExternalChainInfo destinationChainData,\n        string note,\n        uint256 timestamp\n    );\n    // This event is emitted when a user successfully bridged tokens on this chain.\n    event BridgeSuccess(\n        string sourceTransactionId,\n        ExternalChainInfo sourceChainData,\n        EthChainInfo destinationChainData,\n        string note,\n        uint256 timestamp\n    );\n\n    /**\n     * @dev This function is called to release tokens that were previously locked in this smart contract.\n     * This is the function called in the case of a bridge request with this chain as destination.\n     */\n    function releaseTokens(\n        uint64 maxReleaseRound,\n        string memory sourceTransactionId,\n        ExternalChainInfo memory sourceChainData,\n        EthChainInfo memory destinationChainData,\n        string memory note,\n        bytes[] memory signatures\n    ) public whenNotPaused returns (bool) {\n        require(\n            tokens[destinationChainData.tokenId],\n            \"Trying to release non existent token.\"\n        );\n        require(\n            block.number < maxReleaseRound,\n            \"Transaction must be released within defined period\"\n        );\n        require(\n            destinationChainData.chainId == thisChainId,\n            \"Destination Chain Id not equal to the Blockchain hosting this function call\"\n        );\n        // Check that this transaction has never been processed before.\n        Transaction storage transaction = transactions[sourceChainData.chainId][\n            sourceTransactionId\n        ];\n        require(\n            transaction.processed != true,\n            \"Transaction ID already processed\"\n        );\n        transaction.processed = true;\n\n        // Reconstruct the hash that the soldiers signed using the function parameters.\n        bytes32 reconstructedHash = reconstructMessageHash(\n            maxReleaseRound,\n            sourceTransactionId,\n            sourceChainData,\n            destinationChainData,\n            note\n        );\n        validateSignatures(reconstructedHash, signatures, transaction.signers);\n\n        if (destinationChainData.tokenId == address(0)) {\n            payable(destinationChainData.addressId).transfer(\n                destinationChainData.amount\n            );\n        } else {\n            IERC20(destinationChainData.tokenId).transfer(\n                destinationChainData.addressId,\n                destinationChainData.amount\n            );\n        }\n\n        emit BridgeSuccess(\n            sourceTransactionId,\n            sourceChainData,\n            destinationChainData,\n            note,\n            block.timestamp\n        );\n        return true;\n    }\n\n    /**\n     * @dev This function lock tokens inside the bridge smart contract. This is used for bridge/swap requests originated on this chain and with destination chain represented by destinationChain.\n     */\n    function lockTokens(\n        address feeTokenAddr, // token to pay fee\n        uint256 feeAmount, // fee amount to be locked\n        address rootTokenAddr, // token at this network\n        uint256 rootAmount, // amount to be locked at this network\n        ExternalChainInfo memory destinationChainData,\n        string memory note\n    ) public payable whenNotPaused returns (bool) {\n        require(bytes(note).length <= 50, \"Note must be shorter than 50 bytes\");\n        require(tokens[rootTokenAddr], \"Trying to bridge non existent token.\");\n\n        // Four cases:\n        // 1 - Token used to pay fee is different from token to bridge && fee > 0\n        if (\n            rootTokenAddr != feeTokenAddr &&\n            feeAmount > 0 &&\n            feeTokenAddr != address(0)\n        ) {\n            require(\n                tokens[feeTokenAddr],\n                \"Trying to bridge non existent token.\"\n            );\n            IERC20(feeTokenAddr).transferFrom(\n                msg.sender,\n                address(this),\n                feeAmount\n            );\n            IERC20(rootTokenAddr).transferFrom(\n                msg.sender,\n                address(this),\n                rootAmount\n            );\n        } else if (rootTokenAddr == feeTokenAddr && feeAmount > 0) {\n            // 2 - Token used to pay fee is the same as token to bridge && fee > 0\n            IERC20(rootTokenAddr).transferFrom(\n                msg.sender,\n                address(this),\n                rootAmount + feeAmount\n            );\n        } else if (\n            msg.value == feeAmount &&\n            feeTokenAddr == address(0) &&\n            msg.value > 0\n        ) {\n            // 3 - Fee is paid in native currency (e.g. eth or matic)\n            IERC20(rootTokenAddr).transferFrom(\n                msg.sender,\n                address(this),\n                rootAmount\n            );\n        } else if (feeAmount == 0) {\n            // 4 - Fee is 0. Will be paid on destination network or denied by soldier network\n            IERC20(rootTokenAddr).transferFrom(\n                msg.sender,\n                address(this),\n                rootAmount\n            );\n        } else {\n            require(\n                false,\n                \"Problem occurred while trying to select a transfer case\"\n            );\n        }\n\n        // Lock event accounts with rootChainId = thisChainId.\n        emit Lock(\n            feeTokenAddr,\n            feeAmount,\n            EthChainInfo(thisChainId, rootTokenAddr, rootAmount, msg.sender),\n            destinationChainData,\n            note,\n            block.timestamp\n        );\n        return true;\n    }\n\n    /**\n     * @dev This function lock native eth (or native chain token) inside the bridge smart contract.\n     */\n    function lockNativeCurrency(\n        address feeTokenAddr, // token to pay fee\n        uint256 feeAmount, // fee amount to be locked\n        uint256 rootAmount, // amount to be locked at this network\n        ExternalChainInfo memory destinationChainData,\n        string memory note\n    ) public payable whenNotPaused returns (bool) {\n        require(bytes(note).length <= 50, \"Note must be shorter than 50 bytes\");\n        address fakeTokenAddrForNativeCurrency = address(0);\n        // Three cases:\n        if (msg.value == rootAmount + feeAmount) {\n            // 1 - User pays in native currency the fee.\n        } else if (\n            msg.value == rootAmount &&\n            feeAmount > 0 &&\n            feeTokenAddr != address(0)\n        ) {\n            // 2 - Token used to pay fee is a different token\n            require(\n                tokens[feeTokenAddr],\n                \"Trying to pay fee with non existent token.\"\n            );\n            IERC20(feeTokenAddr).transferFrom(\n                msg.sender,\n                address(this),\n                feeAmount\n            );\n        } else if (msg.value == rootAmount && feeAmount == 0) {\n            // 3 - Fee is 0. Will be paid on destination network or denied by soldier network\n        } else {\n            require(false, \"There was a problem in the fee ifs conditions\");\n        }\n\n        // Lock event accounts with rootChainId = thisChainId.\n        emit Lock(\n            feeTokenAddr,\n            feeAmount,\n            EthChainInfo(\n                thisChainId,\n                fakeTokenAddrForNativeCurrency,\n                rootAmount,\n                msg.sender\n            ),\n            destinationChainData,\n            note,\n            block.timestamp\n        );\n        return true;\n    }\n\n    /**\n     * @dev Used to deposit money directly inside the bridge.\n     */\n    function deposit() public payable {}\n\n    /**\n     * @dev used to reconstruct a hash digest starting from some parameters.\n     */\n    function reconstructMessageHash(\n        uint64 maxReleaseRound,\n        string memory sourceTransactionId,\n        ExternalChainInfo memory sourceChainData,\n        EthChainInfo memory destinationChainData,\n        string memory note\n    ) public pure returns (bytes32) {\n        uint256 sourceHash = uint256(\n            keccak256(\n                abi.encodePacked(\n                    sourceChainData.addressId,\n                    sourceChainData.amount,\n                    sourceChainData.chainId,\n                    sourceChainData.tokenId\n                )\n            )\n        );\n        uint256 destinationHash = uint256(\n            keccak256(\n                abi.encodePacked(\n                    destinationChainData.addressId,\n                    destinationChainData.amount,\n                    destinationChainData.chainId,\n                    destinationChainData.tokenId\n                )\n            )\n        );\n        return\n            prefixed(\n                keccak256(\n                    abi.encodePacked(\n                        maxReleaseRound,\n                        sourceTransactionId,\n                        sourceHash,\n                        destinationHash,\n                        note\n                    )\n                )\n            );\n    }\n}\n",
  "sourcePath": "/home/cicd/contract/bridge-ethereum-assets-beta/contracts/Bridge.sol",
  "compiler": {
    "name": "solc",
    "version": "0.8.10+commit.fc410830.Emscripten.clang"
  },
  "schemaVersion": "3.4.4",
  "updatedAt": "2022-06-06T16:44:50.660Z",
  "networkType": "ethereum",
  "devdoc": {
    "kind": "dev",
    "methods": {
      "deposit()": {
        "details": "Used to deposit money directly inside the bridge."
      },
      "lockNativeCurrency(address,uint256,uint256,(uint32,string,uint256,string),string)": {
        "details": "This function lock native eth (or native chain token) inside the bridge smart contract."
      },
      "lockTokens(address,uint256,address,uint256,(uint32,string,uint256,string),string)": {
        "details": "This function lock tokens inside the bridge smart contract. This is used for bridge/swap requests originated on this chain and with destination chain represented by destinationChain."
      },
      "paused()": {
        "details": "Returns true if the contract is paused, and false otherwise."
      },
      "reconstructMessageHash(uint64,string,(uint32,string,uint256,string),(uint32,address,uint256,address),string)": {
        "details": "used to reconstruct a hash digest starting from some parameters."
      },
      "releaseTokens(uint64,string,(uint32,string,uint256,string),(uint32,address,uint256,address),string,bytes[])": {
        "details": "This function is called to release tokens that were previously locked in this smart contract. This is the function called in the case of a bridge request with this chain as destination."
      }
    },
    "version": 1
  },
  "userdoc": {
    "kind": "user",
    "methods": {},
    "version": 1
  }
}